:10400000E03F0010318900008589000085890000AB
:104010008589000085890000858900000000000076
:104020000000000000000000000000008589000082
:104030008589000000000000858900008589000056
:1040400085890000654F0000117900008589000016
:104050008589000085890000858900008589000028
:104060008589000085890000858900008589000018
:104070008589000085890000858900008589000008
:1040800085890000858900008589000085890000F8
:1040900085890000A1500000858900008589000005
:1040A0002D89000085890000B1510000858900003C
:1040B00085890000858900008589000085890000C8
:1040C000858900008589000085890000044B05482A
:1040D0001B1A062B02D9044B03B11847704700BFC7
:1040E000130A0010100A00100000000005490648DD
:1040F000091A891001EBD171491002D0034B03B1A9
:1041000018477047100A0010100A00100000000045
:1041100010B5064C237843B9FFF7D8FF044B13B111
:104120000448AFF300800123237010BD100A001073
:104130000000000068A6000008B5084B1BB1084944
:104140000848AFF300800848036813B9BDE8084089
:10415000CCE7064B002BF9D09847F7E700000000AA
:10416000140A001068A60000100A001000000000E9
:10417000002301461A46184600F08AB838B5074DA4
:10418000074C2C1BA41005D0013C55F8043D984762
:10419000002CF9D1BDE8384006F070BA8CA60000BA
:1041A00088A6000070B50F4E0F4D761BB61018BFD5
:1041B000002405D0013455F8043B9847A642F9D1B4
:1041C0000A4E0B4D06F050FA761BB61018BF0024AD
:1041D00006D0013455F8043B9847A642F9D170BD8A
:1041E00070BD00BF74A6000074A600007CA600008D
:1041F00074A6000070B4840746D0541E002A41D033
:10420000CDB2034602E0621EE4B3144603F8015B3C
:104210009A07F8D1032C2ED9CDB245EA05250F2CEB
:1042200045EA054519D9264603F11002103E0F2E26
:1042300042F8105C42F80C5C42F8085C42F8045CFE
:1042400002F11002F2D8A4F1100222F00F0204F0E1
:104250000F041032032C13440DD91E462246043A93
:10426000032A46F8045BFAD8221F22F00302043224
:10427000134404F003042CB1C9B21C4403F8011B1D
:10428000A342FBD170BC704714460346C2E700BF8F
:104290002DE9F047254C064625688846D5F8484163
:1042A00092469946C4B360681F2817DC411C76B15A
:1042B00004EB8003C3F888A0D4F88851012282401F
:1042C0001543022EC4F88851C3F808911ED0831CF0
:1042D0006160002044F82380BDE8F087144B03B3ED
:1042E0004FF4C870AFF300800446D0B1D5F8483120
:1042F000002784E888003846C5F848410121C4F801
:104300008871C4F88C71002EE1D0D1E7D4F88C31DB
:104310001A43C4F88C21DAE705F5A674C5F84841BC
:10432000C1E74FF0FF30BDE8F08700BF889B000079
:1043300000000000024B13B10248FFF719BF70479D
:10434000000000007D41000010B500231A4640FA2D
:1043500003F1C3F1070401F00101A14001330A4355
:10436000082BD2B2F3D1104610BD000038B5254B52
:10437000254C1A7812B11A78012A27D11B7833B14B
:10438000204B1B78012B14BF0025402500E0292578
:1043900047F6FF710D2004F0FCFB42F6223112209B
:1043A00004F0F7FB41F24B31142004F0F2FB40F231
:1043B0000111202004F0EDFB21880220013989B28F
:1043C00004F0E7FB2946032004F0E3FB208880B2D9
:1043D00002F060FE02F0F8FE04F074FC4206FBD529
:1043E000612004F076FC04F06DFC4307FBD56220ED
:1043F00004F06FFC054B80221A604FF480721A6043
:1044000038BD00BF2C0A00105004001058C009200D
:1044100070B5274B04461A7832B11B78012B46D170
:10442000402540F2615602E040F26146292547F6F8
:10443000FF710D2004F0ADFB42F62231122004F092
:10444000A8FB41F24B21142004F0A3FB31462020AD
:1044500004F09FFBA1B22C2004F09BFB210C154C17
:104460002D2004F096FB21880220013989B204F046
:1044700090FB2946032004F08CFB208880B202F0D8
:1044800009FE02F0A1FE04F01DFC4206FBD56120EE
:1044900004F01FFC04F016FC4307FBD5622004F077
:1044A00018FC054B80221A604FF480721A6070BDB0
:1044B0002C0A00105004001058C00920F8B5074617
:1044C0000E4602F007FD1D4D044620B96B7843F0FF
:1044D00004036B70F8BD042F07700ED140F6354110
:1044E000174A13681B0DC370164B12681B68C2F382
:1044F000130201FB0233436014E0AB78C3706B68B6
:1045000043602B89623B83700F4B1B7843720F4BC8
:104510001B780372288980B202F0A8FD0C4BA072B0
:104520001B78E3723222314604F10E0005F088FA5E
:104530006B780120637000236B70F8BD2C0A0010AB
:1045400054120010084000403A12001038120010B7
:10455000D616001010B5044C606004F021FA60819A
:10456000000C208110BD00BF5004001010B5642065
:1045700004F0AFFB04F0A6FB00F0040000F0FF0421
:104580000028F7D1214B80221A6010214FF480724D
:104590001A6043F8201C43F8202C022243F8202CF8
:1045A00002F0EAFD02F000FF02F0D4FD02F0FAFC96
:1045B00040F68911164B174A9C72DC7211809E21BD
:1045C0009C81A2F8501040F66211DC81A2F85210D2
:1045D0009C705C601C811C745C705C749C74DC74EA
:1045E0001C751C704FF41663A2F8543040F6B313D8
:1045F000A2F85630E22382F85830074B0020002101
:10460000C3E90001C3E9020110BD00BF5CC009207D
:104610002C0A001050040010501700102DE9F0472C
:104620003B4E3C4F30883C4C80B202F0D9FA00221D
:104630001346385C195D0133C9071F2B41EA52024A
:10464000DFF8D4C0F6D174681CF80310C90741EA3A
:104650005202A24255D1DFF8C49000244FF07F08E7
:104660004FF0000E754603EBC40A05EB0A026244E4
:10467000032C12F81F2C09DD391891F8281001308D
:104680004A40B0FBF8F1C1EBC111401A02FA05F142
:10469000013541EA0E02082D5FFA82FEE5D1D9F814
:1046A00000201E4D02F804E001342E2CD8D173698D
:1046B0005BB929680120FFF701FF194B10221A602E
:1046C000184B28689B6998471FE02B685C79104B52
:1046D000296804F03F04A21C0431186902F004FBAD
:1046E0002A6804F10803D35C2968E21D8A5C296802
:1046F0000634095D120242EA03430B43984204D197
:10470000D7E70133B3F5D87F9ED10120BDE8F0870C
:1047100050040010909B0000B4130010B013001060
:1047200038C009202C0A001038B5584B05461A7EAF
:104730001C46022A13D103221A76554A1268DA61FE
:104740005A8C013A92B21A8400229A84DA62514B4E
:10475000DA7C002A00F099802822DA6138BD032A29
:1047600003793BD1E26A03F00303A2B1A28C218E4C
:1047700092B291420FD1464A1268E261628E62841F
:10478000013A92B2228494F8342084F82620E28EF2
:1047900022850022E262032B77D1AB79002B74D102
:1047A000EB7984F834306A7A2B7A03EB0223E386C0
:1047B000EA7AAB7A03EB022363866A7C2B7C03EBF9
:1047C0000223A28C9BB292B223869B1A47F6FE72FA
:1047D00093425ADC2D4B0122DA6238BD012A54D1B2
:1047E00003F00F03052B50D14379222B4DD1427F8B
:1047F000037F43EA022340F67A42063B9BB2934290
:1048000043D8A36C3BB9022323760023636105F1EF
:104810001101184611E00622811804F13C0005F050
:10482000DDF80028EFD0062205F10C0104F13C0070
:1048300005F0D4F80028E6D038BD11F8012F9A40D1
:104840000833202B40EA0200F7D1FFF783FEEB7D0F
:10485000287E1B0243EA0043A87D1843E06004F071
:104860009FF86B7E206184F82630AB7E23856A7FBB
:104870002B7F43EA0223638495F82730012203F05B
:104880001F03A3766376034BDA7238BD5004001021
:10489000541200102C0A0010F8B50E4615461C469E
:1048A000462800F21583DFE810F0AE0249004E0002
:1048B000520057005A005F00620064006C007100F3
:1048C000AD00B400EF007C00770081008600890015
:1048D0008E001303A300A700A900E900EC00130356
:1048E000F100130313031303130396001A010D01C0
:1048F00037013A013E0142016E01CC01E801290273
:104900003B0246026A004A024F0255025C026A02FA
:10491000D001DC017502B0022901BA0213037D0245
:1049200013030A03B501C801F501130347009402FC
:104930000B01A402FC010603002338E2A34B012073
:10494000987400238BE1A14B02229A725AE2A04B89
:104950001B68C3F34003E8E00A8802230CE09C4B89
:104960001B68C3F30013E0E00A88102304E0984BAF
:1049700025E00A884FF4807362B1964A13600120E3
:10498000F8BD934B1B68C3F34023CEE00A884FF475
:104990000073F1E7904AF1E72146104604F07EFAF1
:1049A000EDE72146104604F093FAE8E78B4B1B68CD
:1049B000C3F3C013B9E00A88802307E0874B1B6864
:1049C000C3F30023B1E00A884FF480730AB1844A2C
:1049D000D4E7844AD2E7844B1A782A705A786A70EE
:1049E0009A78AA70DA78EA701B792B71052342E174
:1049F0000022764B9A74C2E7744B95E00A78734BA9
:104A00001A70BCE7794B1A882A701B88C3F30723F6
:104A100098E10A8840F6EA216C4BDA81DA8992B291
:104A20008A4204D901229A7240F6621215E00022ED
:104A30009A7240F6DC02D98989B2914240F6E921A6
:104A400084BFDA8992B2DA81DA8992B28A428FBF60
:104A500040F6EA225D4AD28992B2DA81D989634A64
:104A600089B2A2F852105B7C5848092B87D0C389C1
:104A70009BB213800023C38110884DE104F05AFAE1
:104A8000C1E15B4A5B4B1A600B22B2E70A886FF404
:104A900000601318B3F5806F80F01A824B886FF4B2
:104AA00000615918B1F5806F80F012829A4200F2CD
:104AB0000F824E49A1F85420A1F856300422A0E1FB
:104AC0000F229EE10B88B3F5807F00F20182474AF6
:104AD000C3F136035BB282F85830072291E100231C
:104AE00013705370444805F021F8C6B2A8703246DE
:104AF0004149E81C04F0A4FF03360BE03F4805F0F1
:104B000015F8C6B205F8010B32463C49284604F0B8
:104B100097FF0136266032E7012010702DE10A88E8
:104B2000374B1A7033E1364B1B782B7024E1354C30
:104B300000220023C4E90023C4E902236F1E0026DB
:104B4000324617F8010F002104F0ACFDD4E9002330
:104B5000083610431943402EC4E90001F0D107354F
:104B60000026324615F8010F002104F09BFDD4E920
:104B70000223083610431943402EC4E90201F0D144
:104B800001F0E6FEFBE6204B00221A60E81C6A1EDC
:104B900019680902196012F8014F1968904241EA38
:104BA00004011960F4D1094B02229A72174A0120BC
:104BB0004FF080511874116029796A7942EA012214
:104BC00013490A8008229A74F8BD00BF2C0A00100D
:104BD00034C0092038C009203CC0092054C0092035
:104BE00058C009205CC009201017001050040010A4
:104BF00021BB05431C00001048A40000379C0000A6
:104C0000D8160010501700104812001098C0092044
:104C1000A2130010AF4B05229A720E229A74002341
:104C20001946AD4A995401330A2BFBD1AB4B0022F4
:104C30001A70AB4B01201870F8BDA64B0120D8723A
:104C4000F8BD1268A74B1A60A1E0A34A0023E95CF3
:104C5000995401330A2BFAD1A14A01201070236024
:104C6000F8BD002319469C4A995401330A2BFBD105
:104C70009B4A00211170236081E69A4B551E1968EA
:104C8000002321FA03F20833202B05F8012FF8D175
:104C90000423F0E712786B7843EA0223924A1380E8
:104CA0006DE6924B10785278198842EA00220A4445
:104CB00012B21A801A888E4812F4004F8D4A07D01B
:104CC0001B884FF4A0715B429BB291FBF3F30AE0A7
:104CD000198809B200290DDD1B884FF4A0711BB2A1
:104CE00091FBF3F39BB2138013889AB2824B1B683B
:104CF000134401E000231380036040E60B887F4DDE
:104D00000022AB63734B2260DA7203229A7209228B
:104D10009A7402F0D1F8288880B202F0BBF92EE62E
:104D20007649551E00234A68DA400833202B05F8DF
:104D3000012FF8D1ACE71068FFF70CFCB7E01323A4
:104D4000137037236B702BE06C4B5B69003318BF1B
:104D50000123EAE60B88694A003318BF0123536137
:104D60000DE602F0D1F8014628B14022284604F0B1
:104D700067FE40237FE7287001202060F8BD554B77
:104D8000002222609A720A229A7402F095F85B4B14
:104D90001888C1E7087803F0F3FE030A2B706870E7
:104DA000022368E74988307803F0F3FEE7E53288AC
:104DB0005C1CDBB29342BFF4E2AD03EB4303EA18A1
:104DC00051789278E85C42EA012103F0E2FE234642
:104DD000EDE70026F7B2384603F0D2FE0136030AAB
:104DE0002E2E2F706B70A87005F10305F2D187236A
:104DF00041E7927929460732D2B2414804F020FEB9
:104E00001022344B9A74002335E7324C062229468F
:104E100004F1200004F014FE0C23A374AFE5947990
:104E2000302C3FF6ACAD74B9344D2146062205F165
:104E30003C00AC64FFF7DEF90622214605F1420092
:104E4000FFF7D8F99BE52F4C931D224613F8011D5F
:104E5000AB4202F8011FF9D1002106222A48FFF7D0
:104E6000C9F926490523FF26A879082808D9CA18B0
:104E700082F84260AA79013B083ADBB2AA71F3E7F3
:104E800060B100210A460131CDB25208A84242F079
:104E90008002F8D819490B4483F842201B4A14F8C1
:104EA000011FA379A24203EA01032370F7D1134B38
:104EB00001209864F8BD074B01209862F8BD054BAE
:104EC0001A7D022A04D00D229A740A781A7556E5C2
:104ED0000020F8BD2C0A00103B12001039120010FF
:104EE000D716001054120010A2130010D416001090
:104EF0000C170010501200104C120010500400103B
:104F0000581200108B04001092040010900400103E
:104F10002DE9F04106460F46904601F0DBFF0F4DAC
:104F2000044628B96B7843F004036B70BDE8F08148
:104F30000B4B06701B880026623BC670C0F80480CD
:104F400083708672C672322239460E3004F078FDC4
:104F50006B786E7063700120BDE8F0812C0A001040
:104F60005004001030B54FF040231B68D9077DD5A1
:104F70003F49404B08681A68024401321A60002217
:104F80000A603D4A1868947A114614B1947A012C4B
:104F900005D11A68520638D10122CA7235E0917AD9
:104FA000022903D11968CD072FD42CE0917A032967
:104FB0001CD132490C7E032C27D1CC69001B8407FD
:104FC00023D1088C013880B20884088C80B240B9A3
:104FD0000120D0728A8C024492B28A844A8C0A845C
:104FE00013E0274A4FF4807111600EE0917A052991
:104FF0000BD12249B1F8501088B2224909681C68C7
:105000000144A14201D10121D1721F491F4A086800
:10501000B8B1108880B2A0B91C680868844210D367
:105020001B481C4D008800044CBF41F6690001205C
:105030001080186828601848008884B228682044C6
:10504000086040F63440118889B2814282BF1968F5
:1050500002311960138811499BB203F634430B6087
:105060000023138001224FF040231A6030BD00BF9F
:1050700048120010541200102C0A001050040010A6
:105080003CC00920301200100C170010A2130010B1
:10509000D41600104C12001050120010184000409E
:1050A000084B04221A60084B4FF080521A60074BDD
:1050B00001221A70064B9A7A022A04BF00221A743F
:1050C000704700BFAC8002409CC009204D17001003
:1050D0002C0A001010B5284B5A7C012A11D05A7C9A
:1050E000082A0ED05A7C042A0BD05A7C092A08D0F0
:1050F0005A7C0A2A05D05A7C0C2A02D05A7C0F2AE4
:1051000039D11E4A1268D10735D51D4A1268D20717
:1051100026D540F635441B4A012111609A7A1A4877
:10512000022A02BF194A4FF080511160184A0168E3
:105130001268C1F3130104FB01225A600268C2F332
:1051400007529A70134A128892B21A81124A134B6C
:10515000116818681060124A1960136801331360EF
:10516000104B1B68DB0706D50F4B01221A600F4A54
:1051700013680133136010BD2C0A0010004000506A
:1051800004400050084000505412001098C00920FC
:10519000084000405004001094120010B01300109A
:1051A000341200100C4000501040005048170010FE
:1051B00008B5114B5B7C092B02D102F0B3FA01E078
:1051C000FFF788FF0D4B1B68190614D50C4B1B68A5
:1051D0001A0605D50B4B80221A600B4B00221A6071
:1051E0000A4B1B681B0606D5094B80221A60094B27
:1051F00002221A60FEE708BD2C0A00100040005091
:105200000440005008400050901100100C40005025
:105210001040005038C009202DE9F04F91B00546EC
:105220000C4690460DF103070DF1FF32E8B2013252
:105230002D0A0721002300F001068E40334311F1AF
:10524000FF31DBB24FEA5000F5D297421370EDD137
:10525000584E594F30880DF1040980B201F0C0FC5E
:10526000C646385C4FF07F0AC8EB0E039C421CD93F
:105270001EF801CB07220023391891F828100CF0F2
:10528000010B01308BEA0101B0FBFAFB9140CBEB43
:10529000CB1B0B4312F1FF32CBEB00004FEA5C0C4F
:1052A000DBB2E9D209F8013BDEE747F6FF710D20DA
:1052B00003F06FFC42F62231122003F06AFC41F247
:1052C0004B31142003F065FC40F60141202003F02F
:1052D00060FC3188022089B203F05BFC0B210520C1
:1052E00003F057FC4021032003F053FC142123203A
:1052F00003F04FFCED074CBF4AF6AA2145F2555189
:105300002D2003F046FC082003F03AFCC0F308010E
:105310000434064641F49C410820E4B203F039FC11
:1053200003F0D0FC4006FBD5612003F0D2FC03F073
:10533000C9FC4107FBD5214B4FF480721A608022D3
:105340001A620E2003F01CFC00F01F000F28F8D199
:10535000632003F0BEFC1A4F0025A5420DD23B6826
:105360005A07FCD4601BC0B210280DEB050128BF02
:10537000102003F013FC1035EFE70E2003F000FCC3
:1053800000F01F000F28F8D10E4B4FF480721A6006
:10539000642003F09EFC03F095FC4307FBD40A4B0A
:1053A00080221A603146082003F0F3FB11B0BDE8FB
:1053B000F08F00BF50040010909B000038C00920FF
:1053C00054C009203CC009205CC00920F8B5614CDC
:1053D0000023E372604B614A19681160A27A52B9E6
:1053E000022003F0CDFB5E4B1B889BB2013B984231
:1053F00040F08380F8BDA27A012A33D1584A594B34
:1054000010461D78584B594F1E784FF0080E1388E0
:1054100020339BB2138013889BB2B3F51B6F81BFFF
:1054200013884F3B9BB21380002D66D0002E64D0B2
:10543000038801889BB2A3F6621393FBFEF389B243
:1054400017F803C04A4BA1F662110B40002BBEBFF8
:1054500003F1FF3363F0070301334CFA03F3DB0777
:10546000D5D54AE0A27A052A2ED13D4A3D4B1046B9
:105470001D783E4E0827138820339BB21380138873
:105480009BB2B3F51B6F81BF13884F3B9BB2138058
:105490004F2D32D0038801889BB2A3F6621393FB91
:1054A000F7F389B216F803E0314BA1F662110B4015
:1054B000002BBEBF03F1FF3363F0070301334EFA45
:1054C00003F3D907D7D418E0A27A022A05D11868C5
:1054D00001F0E4FA224B18800FE0A37A032B05D1E8
:1054E0001F4D281D01F0ACFB288006E0A37A042B99
:1054F00001BFA3891A4A9BB21380642003F0E9FB21
:1055000003F0E0FB4207FBD4607C154DC0B2298854
:10551000022817BF01F1FF3189B289B2022003F0DE
:1055200038FBA37A1BB1288880B201F0B3FD61205B
:1055300003F0CFFB03F0C6FB4307FBD50123237425
:10554000637C022B0CBF63206220BDE8F84003F0AF
:10555000C0BB00BF2C0A0010541200103012001003
:105560005004001039120010D71600103B12001022
:10557000070000802DE9F74F4D4D10234D4F2B6054
:1055800001F09AFCB84603F06FFA01F06DFE01F0ED
:10559000EBFEFEF7EBFE01F0ADFD474CA37CA2460F
:1055A000012B7AD110232B6001F0FCFCDFF80CB149
:1055B0006FF07F063B68414ADFF820911BBB062055
:1055C00003F0DEFA9BF8003040F307205BB116F1E0
:1055D000800F08D13A4B93F900603636B042B8BF1D
:1055E000304646B2304601F0F9FCD9F8000001F02F
:1055F000C5FC9AF80B3013B1FFF7E8FEDAE74FF479
:1056000080732B60D6E72F4B10212F4E1960336823
:105610001BB1637843F002036370D8F80030012BAC
:1056200082BF637843F001036370217C224B29B170
:10563000597841F02001597000211974234B0192CF
:10564000188880B201F0EAFC019A137813B9204B54
:105650001B782BB1637843F0080363700023137049
:10566000174B1C4A93F9003092F9002035339342CE
:10567000B8BF63784FF00000BCBF43F01003637005
:10568000154B1968FEF71AFFD9F8000001F076FCF7
:105690000023C8F8003033607FE7A37C082B81D05B
:1056A00001F082FE03B0BDE8F04F01F03BBD00BF4A
:1056B0003CC00920341200102C0A00104D170010B5
:1056C0004C17001038C00920481700105004001073
:1056D000A013001038120010B01300105412001064
:1056E0002DE9F04385B0654B0027DC689D68002FED
:1056F0004FEAD47608BF012EE8B20CBFAA26552681
:10570000FEF722FE8DF80000C5F30720FEF71CFE11
:105710008DF80100C5F30740FEF716FE8DF8020074
:10572000280EFEF711FE8DF80300E0B2FEF70CFE26
:105730008DF80400C4F30720FEF706FE8DF805007F
:10574000C4F30740FEF700FE8DF80600200EFEF7BA
:10575000FBFD8DF807003046FEF7F6FD8DF80800DA
:105760007720FEF7F1FD8DF809006620FEF7ECFDCD
:105770008DF80A005520FEF7E7FD8DF80B00442058
:10578000FEF7E2FD8DF80C003320FEF7DDFD8DF80D
:105790000D002220FEF7D8FD8DF80E001120FEF737
:1057A000D3FD14218DF80F00232003F0F2F9082017
:1057B00003F0E6F93C46C0F30801314F064641F4D8
:1057C0009C41082003F0E5F9B9462E4B9A7C1D4612
:1057D000022A48D1DFF8BC80640840F6C9033A6861
:1057E000B4EB520F05D1EA7A002AF8D0FFF7EEFDAC
:1057F000F3E7D8F800209A42F5D9234B4FF4807292
:10580000D9F8004069461A60102003F0C7F90E204D
:1058100003F0B6F900F01F000F28F8D11B4B4FF42E
:1058200080721A60642003F054FA03F04BFA4107C7
:10583000FBD403F047FA4206FBD5612003F049FA96
:1058400003F040FA4307FBD50E2003F099F900F06E
:105850001F000F28F8D1632003F03BFA084B1868AB
:1058600001F08CFBB1E70A4B80221A603146082018
:1058700003F08FF905B0BDE8F08300BF50170010AA
:10588000541200102C0A001038C009203CC0092016
:105890005CC009200840004008B50F48FEF75AFEDA
:1058A0000E4B0F4ADA600F4A1A6100221A845A61BD
:1058B0009A84DA641A765A769A76DA615A8483F888
:1058C00026201A85DA621A865A8683F83420DA8608
:1058D000054BDA7208BD00BFD6BE898E5004001099
:1058E00055555500AAAAAA002C0A001010B5064C5E
:1058F0004FF4847200212046FEF77CFC4FF0FF330A
:10590000C4F8003110BD00BF981200102DE9F84F07
:105910006D4C0123804623706074FFF7BDFF6B4B15
:105920004FF080726A4E1A606A4F1023336001F0A4
:10593000C3FAB94603F098F801F096FC01F014FDA3
:10594000FEF714FD01F0D6FB0025A37C984540F03E
:10595000A9805D4BDB899BB2CBB1642003F0B9F920
:1059600003F0B0F94207FBD45B4B022019880139E0
:1059700089B203F00EF9612003F0ABF903F0A2F94C
:105980004307FBD5622003F0A4F90023E381E37A07
:1059900013B1FFF71BFD02E04FF480733360102357
:1059A000336001F0FFFA6FF07F0B3A68DFF848A12F
:1059B000D2B9DAF80020BAB9062003F0E1F8474A74
:1059C00040F30720127862B11BF1800F09D1444BDC
:1059D00093F9003036339842B8BF18464FFA80FB2F
:1059E000584601F0FBFAE0E7DAF800301BB16378C3
:1059F00043F002036370D9F80030002B5ED03B689F
:105A0000012B82BF637843F001036370324B188827
:105A100080B201F003FB314A137813B9314B1B7884
:105A200033B16378022543F00803637000231370D9
:105A30002B4B2D4A93F9003092F9002035339342D5
:105A400005DA6378022543F01003637000E0ADB31C
:105A500026494FF4C872A1F5C87003F0F1FF013D6B
:105A6000DFF88CB0DFF894E0EDB2002303F13200F0
:105A70000BEBC0000021DEF80020D25CDEF800C095
:105A8000D20942541CF8032001315200D2B2082935
:105A90000CF80320EFD10133322BE7D1E36A14482D
:105AA000984758B9134B4FF080721A60FEF75EFDAD
:105AB00001F07AFCBDE8F84F01F034BB0023C9F8CF
:105AC0000030CAF8003040E72C0A001000E100E086
:105AD0003CC0092034120010500400104D17001073
:105AE0004C170010A01300103812001044150010BD
:105AF000B413001080E100E048170010B01300104C
:105B00002DE9F04F93B0A74DA74C01232B702376BE
:105B1000A64B4FF08072A64E68741A601023336053
:105B2000814601F0C9F902F09FFF01F0E1FB01F0AD
:105B30001BFC606802F034FFDFF87CB2FEF768FC03
:105B40000096AB7C994540F09B81964BDB899BB2DC
:105B5000C3B1642003F0BDF803F0B4F84107FBD4EF
:105B600021880220013989B203F013F8612003F083
:105B7000B0F803F0A7F84207FBD5622003F0A9F8BC
:105B80000023EB81009A1023136001F00BFA89497E
:105B9000844A894B1B6833B90B6823B9EB7A13B974
:105BA000937C9945F5D0062002F0EAFF834B40F341
:105BB00007201870824B7B4A1870AB7C994540F0E7
:105BC0005F81DFF8F0A1DAF8003057461BB1537857
:105BD00043F002035370EB7A03F0FF01002B40F017
:105BE000A580DBF80030002BABD0342205A8FEF7EF
:105BF00001FB2088636880B2059300F0F1FF302636
:105C00004643DFF8E88108EB060301936D4B1878F3
:105C10005A7893F802E01204D97842EA0060084307
:105C200040EA0E20029302F0BBFE58F80660704076
:105C3000C0F3052606F10208B8F1270F069075DCBF
:105C40000836B2080B2A029B01D15F4A0BE05F497C
:105C500003EB82030A689A4208D23A68002AF9D014
:105C600004E03B6813B91368DB07FAD4584A612093
:105C70001368042723F00103136003F02AF8514A44
:105C80007B1CD05D12F803C0BB1C12F803E0FB1CA8
:105C9000D35CB91043EA006040EA0C4040EA0E20B1
:105CA0000392029102F07CFE029912AB03EB810E8B
:105CB000019B043753F821302C2F80EA03004EF863
:105CC000300C039ADCD16369DBB9424B10221A60B5
:105CD00005A8AB699847404B4FF080761E6005A938
:105CE0000120FEF7EBFB40F63541304B1E603B4B8D
:105CF0001A683B4BC2F313021B6801FB0233E364D7
:105D000014E0294B4246186906A900F0EDFF12ABDA
:105D10001E44984416F8343C18F82F2C1B0443EA10
:105D2000022318F8302C13439842CED0612002F0A1
:105D3000D0FF274A2B491368183A23F001039361D7
:105D40001368580701D50B68FAE740F63541234B35
:105D50001A68234BC2F313021B6801FB0233E16C88
:105D6000227E8B4238BF03F14343A2F1020238BFC7
:105D700003F5A003012A03D81B4A5B1A934202D8F9
:105D8000EB69012B4ED1FFF787FD00984FF480712E
:105D90000023EB610160E97C024A012928D1D37418
:105DA00093746DE02C0A00105004001000E100E034
:105DB0003CC009204817001034120010381200109F
:105DC0003A12001015170010104100500441005005
:105DD0002400034038C0092080E100E05412001084
:105DE000084000400800034080F0FA027C9C00005C
:105DF000B9F10A0F44D001236420237602F069FF31
:105E000002F060FF4207FBD4B4F852309BB223B1DA
:105E1000224BB3F852309BB201E040F6621323806C
:105E200001232B6361892C2002F0B3FE21892D20F0
:105E300002F0AFFEEB7A0BB1FFF7C8FAEB69184E30
:105E4000002B02DD013BF36114E001F051FA01F097
:105E50008BFA336B3BB1606802F0A2FDFEF7D8FA13
:105E60000023336306E002F02DFF4307FBD56220D9
:105E700002F02FFF0023CBF80030CAF8003060E6B4
:105E8000084B4FF080721A60FEF770FB01F08CFA3D
:105E900001F048F913B0BDE8F08F00BF50040010C6
:105EA0002C0A001080E100E070B58EB015460C465B
:105EB00006463222002101A8FEF79CF9312D2A4620
:105EC000214628BF31220DF105008DF8046003F052
:105ED000B7FD01A90520FEF7F1FA0EB070BD000074
:105EE00038B540F664123148314C03889BB2934276
:105EF0000DD140F635412F4B1A682F4BC2F31302D8
:105F00001B6801FB0233636340F6661348E040F60A
:105F1000661103889BB28B4244D140F63541254B34
:105F2000408C1A68244BC2F313021B6801FB023336
:105F3000626B1E4993423CBF03F1434303F5A00348
:105F40009B1A41F66A0202FB003343F2D402424339
:105F5000B3FBF2F3242B21D8184A4008134493F8DA
:105F60006C3825258B760133088493FBF5F005FB0F
:105F7000103300224B760320114B8A84CA61E272EF
:105F80004A61087601221A31A361A072FFF78CFFE3
:105F9000E37C53B1064B2822DA6138BD40F6641326
:105FA000A38100E0A2810123E37238BD50040010F8
:105FB0002C0A00105412001008400040909B000072
:105FC0002947000038B540F63544244B244A1B6865
:105FD0001268C3F3130304FB032446F2A712214DF6
:105FE000AB6B9C423EBF04F14344A4F56514A4F599
:105FF000A254E31A934230D91B4A1B48D2F800112D
:106000008B4238BFC2F80031D2F80031174A03F58D
:10601000613303F25233B3FBF2F315499BB24A8C5E
:106020009A4215D1D0F804310133052BC0F8043160
:1060300012D1104B0222AB6140F66413AB810423F2
:10604000AB72223101231046EB72FFF72DFF03E004
:106050004B840023C0F80431AC6338BD54120010E7
:10606000084000402C0A001098120010A40E0700EF
:1060700050040010E15E000070B5184D6B695BBB09
:106080000379012B28D1447934BBC379027A86790C
:106090001B0243EA0243011D022243EA060000F00C
:1060A000F9FD23462246E86020FA02F1C2F1170406
:1060B00001F001010132A140182A43EA0103F3D1A2
:1060C0002B61074A074B012068619A610649032248
:1060D000BDE87040FFF7E8BE70BD00BF500400107F
:1060E000C55F00002C0A00105C04001030B5134995
:1060F000002351F8332001EBC30482420F4A03D13D
:1061000063680133636030BD0133202BF1D14FF060
:10611000FF310C46002302EBC3056D68A54201DB8D
:10612000002C01DA19462C460133202BF3D142F81A
:106130003100012302EBC102536030BD9812001000
:106140002DE9F04F95B040228046002104A8FEF7CB
:1061500051F8644D0123DFF890918DF810308DF8DF
:1061600020308DF823308DF830308DF832308DF8B6
:1061700040308DF842308DF8433000242888594F44
:1061800080B200F02DFD584E04A919F8003000220D
:1061900008194FF07F0EF11810F802C091F828107E
:1061A00001338CEA01018154B3FBFEF10132C1EBF2
:1061B000C111102AA3EB0103EDD11034402CDDD125
:1061C000DFF8409120244D46484BEE460FCB8DE83A
:1061D0000F0000239C4608EB040004AA02EB031105
:1061E000002210F802B011F802A0D34502D04EF8F8
:1061F00023C002E00132102AF3D10133042BECD189
:1062000000235EF823201AB90133042BF9D143E0AF
:1062100038884FF07F0A80B200F0E2FC325C002048
:106220004FF0000CE64604EBC00B0EEB0B034344AF
:10623000032813F8203C09DDB11891F82810013229
:106240004B40B2FBFAF1C1EBC111521A03FA0EF343
:106250000EF1010E43EA0C0CBEF1080F5FFA8CFC44
:10626000E3D1D9F8003003F800C001300A28D7D1B3
:106270002B68DB782A6892782968120448782968A4
:1062800042EA036309780B4343EA0020FFF72EFF3D
:1062900029680120FEF712F90134B4F53C7F93D14F
:1062A000134A002302EBC3014968032912DD104A97
:1062B000002452F83300FEF74DF90E4B0E4A2046EB
:1062C000DA620E4A0E499A6104227C61FFF7ECFD06
:1062D000204603E00133202BE4D1012015B0BDE8B6
:1062E000F08F00BF50040010909B000024A4000019
:1062F000981200102C0A00101D4600007960000062
:1063000054040010B01300102DE9F041184D194E3F
:106310002F46AB7C0A2B28D1FFF7E8FA3388DFF849
:10632000548013F0010F1CBF40F688133380D8F857
:10633000483043B9308880B200F0ACFE0E4B0A20E2
:10634000FB62FFF7E3FABC7CE4B20A2C0DD1042215
:106350000A490020FFF7A8FD094B2046AB61002346
:10636000C8F81430FFF7CCFBD3E7BDE8F08100BFDD
:106370002C0A001050040010416100005404001069
:10638000796000002DE9FF416A466C46264B03F117
:106390000806154618685968083303C5B3422A46EB
:1063A000F7D118689B8828602048AB800DF1010266
:1063B0000523195C13F1FF3302F8011FF9D21C4BBE
:1063C0000B222146186900F04AFC030A8DF80B00E5
:1063D000000C8DF80C308DF80D0000F0F5FE154E18
:1063E000154DB37C0C2B1BD14FF080784FF080679C
:1063F000C5F8008022462F600E211048FEF70CFFE2
:106400000F4B104AC3F800801F60136823F07F43CE
:1064100003F5A073116821F07F418B42FAD8E0E7C1
:1064200004B0BDE8F08100BF34A400004C0A0010A5
:10643000500400102C0A001080E100E0D6BE898EC6
:1064400000E100E054120010F0B58BB02D2002F0F6
:1064500097FB030A8DF805002C208DF8043002F01C
:106460008FFB030A8DF806308DF8070000F024FD3D
:1064700000F0AAFE02F026FC4106FBD5612002F0E6
:1064800028FC02F01FFC4207FBD5144B10221C46CF
:106490001A60134A80211160124F4FF48071124E1E
:1064A000116002250E2002F06BFB00F01F000F2888
:1064B000F8D1622002F00DFC3D6002F003FCC3063F
:1064C000FBD502A92560202002F0B2FB01A9002023
:1064D000FDF7F4FF306800F051FDE3E738C0092014
:1064E00058C009203CC009205412001008B52020D3
:1064F00002F046FB08B1FFF7A7FF034B03221A7017
:10650000BDE80840FFF736B82C0A00102DE9F0412D
:10651000354D10232D206E7C6B7402F031FB8046CC
:106520002C2002F02DFB314C074621882D2002F053
:1065300030FB61882C2002F02CFB5721032002F055
:1065400028FB41F24B31142002F023FB40F661712D
:10655000202002F01EFBA188022002F01AFBE17944
:106560000520F6B202F015FB02F0ACFB4106FBD5AC
:10657000612002F0AEFB02F0A5FB4207FBD51C4BED
:106580004FF480721A6080221A620E2002F0F8FA2C
:1065900000F01F000F28F8D1A079164902F0FEFA8A
:1065A000632002F096FB0E2002F0EAFA00F01F00D2
:1065B0000F28F8D1104B4FF480721A60642002F05B
:1065C00088FB02F07FFB4307FBD40C4B80221A6050
:1065D00041462D2002F0DDFA39462C2002F0D9FA8E
:1065E000AE74BDE8F08100BF2C0A001058120010F4
:1065F00038C00920601200103CC009205CC009208E
:106600002DE9F04F8FB03F4B10221A6000F054FC80
:1066100000F0DAFD3C4B80221A6042F62231122053
:1066200002F0B7FA41F24B31142002F0B2FA40F214
:106630000111202002F0ADFA2921032002F0A9FA6D
:1066400002F040FB4106FBD502F03CFB00F00400E9
:1066500000F0FF040028F7D1DFF8B480DFF8B49031
:10666000C24699F81230042B46D1B8F85450DFF8DE
:10667000A8B0ADB2BAF856309BB2AB42F1DB691E9E
:10668000022089B202F085FA612002F022FB02F0BA
:1066900019FB4207FBD5622002F01BFB4FF4FA7393
:1066A0000093009E013E0096002EFAD104EB4407B1
:1066B0000EAB1F4406202B0A07F8343C07F8335C66
:1066C00002F05EFA0134E4B2000A102C07F8320C32
:1066D00008D101A90420FDF7F1FEDBF8000000F06D
:1066E0004DFC3446642002F0F4FA02F0EBFA430762
:1066F000FBD40135ADB2BDE7044B10221A600FB0D8
:10670000BDE8F08F38C0092058C009203CC00920DE
:10671000500400102C0A001054120010F0B585B07F
:10672000434B802218689B880290ADF80C30414B97
:1067300042F622311A60122002F02BFA41F24B315C
:10674000142002F026FA40F20111202002F021FA72
:106750002921032002F01DFAF121062002F019FA86
:1067600002F0B0FA4106FBD502F0ACFA00F00400EA
:1067700000F0FF040028F7D12F4F304D304EBB7C86
:10678000072B53D104AB03EB440333F8081C02205E
:10679000013989B202F0FDF9612002F09AFA02F0A3
:1067A00091FA4207FBD5622002F093FA4FF4FA7394
:1067B0000193019B013B0193002BFAD1062002F0CB
:1067C000DFF9204B40F3072093F858305BB2984232
:1067D0000CDD012C07D003D3022C13D1346011E05F
:1067E0004FF4807300E0102333600BE0012C07D0DE
:1067F00003D3022C06D12C6004E04FF4807300E038
:1068000010232B600134032394FBF3F303EB4303C6
:10681000E41A0D4BE4B2186800F0B0FB642002F0FB
:1068200058FA02F04FFA4307FBD4A8E705B0F0BDD1
:1068300042A4000058C009202C0A00103CC00920C6
:1068400038C00920500400105412001008B502F09E
:10685000FFFA00F0BFFC384800F008FB374DFDF7A9
:1068600085FE00F0D5FC002001F0D2FC344935480B
:1068700001F02AFD2C46344E306800F07FFBAA7CE4
:106880006B7C9A42F8D0AB7C102BF5D8DFE803F094
:10689000511116283D2F37401B1D220925430F4952
:1068A0004E00012002F096F802F0DCFAE4E70E2335
:1068B00000E001236374FEF75DFEDDE702236374ED
:1068C000FEF70EFFD8E70823F4E70923637401F00D
:1068D000C3F8D1E7FFF718FDCEE7FFF753FDCBE78D
:1068E00003231A491548637401F0E0FAC4E705234D
:1068F0001648637401F0D8FA0023A374BCE706239A
:106900001248637401F0D1FAB6E7FFF779FEB3E7F6
:10691000FFF704FFB0E70D236374207D01F036FC20
:10692000AAE70F236374FFF7E1FDA5E7FFF7EEFD8C
:10693000A2E7FDF71BFE9FE7994800002C0A001014
:10694000379C000053A400005412001050040010A3
:106950002DE9F043464B474A002000211B68464D75
:10696000C2E900014F240022500090FBF4F104FB27
:106970001101515501324F2A3F48F5D13F4AC3F327
:10698000C4511170C3F30715C3F3C7043C4AC3F3E2
:10699000C34105F0100704F0080611703E44C3F32C
:1069A000870103F0010EC3F34702764401F00407A8
:1069B000374402F002063E44324F05F008053E70AF
:1069C000314EC3F388273780DE0906F040079E0961
:1069D00006F020065B093E4403F0100333442B44C9
:1069E00004F00404234401F00201194402F00102FE
:1069F000264B0A441A70264B1B78002B36D00022F7
:106A00001346DFF890E012F80E40224E00250021D8
:106A100054EA050CCFB201F1010108D014F1FF389E
:106A200045F1FF3904EA080405EA0905F0E70132F7
:106A30003B440A2ADBB2E6D1174A4F2513700023E4
:106A4000194693FBF5F205FB1232D7B2FC08345D10
:106A500002F0070244FA02F2D20748BF4A1C03F1CF
:106A6000020344BF4754D1B29E2BEAD1BDE8F08364
:106A700050170010A8130010B5170010B31700101E
:106A800060170010B41700106217001004180010EF
:106A9000D71600103B12001039120010F0B587B065
:106AA000C0F3D8054F2325F00F05B5FBF3F403FB26
:106AB0001454404BC0F340021B78510183EA104349
:106AC00003F01F038A1A5A403B4B8EB21B783B4996
:106AD00083EA5053097803EB90034B4003F01F0106
:106AE000374B02AF1B8883EAD010C0F308000023A5
:106AF00040FA03FE0EF0010E03F807E00133092B04
:106B0000F6D1002307EB030E42FA03F0013300F045
:106B10000100052B8EF80900F4D1002341FA03F29D
:106B200002F001020DF803200133052BF6D12548B0
:106B30000D217B5C7BB10A5C06AB1A44224B0DF144
:106B4000180CCB5C12F818EC634413F818CC02F85C
:106B500018CC03F818EC11F1FF31EAD200221346E9
:106B60001DF80310994001330A44052BD2B2F7D126
:106B7000164B4F201978A31911440B44B3FBF0F2C4
:106B800000FB1233124AD05C124B1B786BB1124BD4
:106B90001B78B5FBF3F203FB125232440A44B2FBFA
:106BA000F3F103FB11220D4B985C00F6621007B065
:106BB000F0BD00BFB4170010B3170010601700102D
:106BC0006217001070A400007EA4000004180010DA
:106BD000B5170010D71600103912001064170010F6
:106BE0000223A0F6621090FBF3F083B253B10B2B9B
:106BF00001D8013804E00C2B06D0262B06D8023829
:106C0000C0B2704725207047262070472720704764
:106C10000A2803D8400000F664107047242803D8DF
:106C2000400000F666107047252806D0262840F65A
:106C30007A1018BF4FF41B60704740F6621070471F
:106C400010B5437D02461846FFF7E2FF917D2524EB
:106C50000B4493FBF4F104FB1133537510BD70B575
:106C60000B4620F07F405C1A944212DA13F8015B65
:106C7000082485EA000616F0010F4FEA50001CBFF9
:106C800080F45A0080F4C040013C4FEA5505F0D131
:106C9000E9E770BD70B5013A002A14DB8E5C072469
:106CA000C50D400020F07F4346FA04F000F00100DB
:106CB000684018431DB180F4340080F4404014F162
:106CC000FF34EDD2E7E70023194620FA03F2C3F1BF
:106CD000170402F001020133A240182B41EA02011D
:106CE000F3D1084670BD000030B50C46074D20F0CA
:106CF0007F40631A9A4208DD14F8013B4340DBB23F
:106D000055F8233083EA1020F3E730BDAC040010BF
:106D1000F8B5054690B2FFF763FF144E2944345C82
:106D200028464FF07F0E81421ED000231D46077873
:106D3000C5F1070206EB040C9CF828C047FA02F2E2
:106D4000013402F001028CEA0202B4FBFEFCAA400C
:106D50000135CCEBCC1C1343082DCCEB0404DBB287
:106D6000E6D100F8013BDEE7F8BD00BF8CA40000CF
:106D7000F8B50C460546C02200212046FDF73AFA38
:106D80000127681E0023043510F8012F03F10806BF
:106D900012F001011BBF44F82370D4F8BC1044F872
:106DA000231004EB010E1CBF8EF89430013103F167
:106DB000010318BFC4F8BC10252B4FEA520202D0C1
:106DC0009E42E5D100E01E46A84201D03346DBE7F3
:106DD000F8BD51F8203043B9D1F8BC20B0FBF2F334
:106DE00002FB1300014491F89400704713B54388E7
:106DF0001268ADF8043083884078ADF80630054B52
:106E00001C680B4601A9A047431E5842584102B0D6
:106E100010BD00BF0C39001070B586B0694604463D
:106E200001A802F055F89DF80410E1B90E4620467D
:106E30000DF10505403415F8013B80F87D101A0965
:106E4000092A03F00F038CBF57323032092B8CBF55
:106E50005733303380F87C2080F87E3080F87F60B4
:106E60000430A042E7D106B070BD000038B5054639
:106E70000C4C02F005F92046FFF7CEFF204602F049
:106E80003DFB094B094A0A4902201D6002F0EEF859
:106E90000849FF2002F01CFB012002F08AF90020C3
:106EA00038BD00BFAC0800100C39001008380010C5
:106EB000ED6D000033A50000044B00214FF400529B
:106EC000034819605960FDF795B900BF680A0010C2
:106ED000081800100A4B1968586801F07F0100F08B
:106EE0007F00421C02F07F0291421FBF5A680132AC
:106EF0005A60044B14BF03EB80100020704700BFA2
:106F0000680A001008180010084B18685A6800F04A
:106F10007F0002F07F0290421FBF1A6801321A60A0
:106F2000034B14BF03EB801000207047680A001069
:106F30000818001037B50546FFF7E6FF0D4B04466D
:106F400038B10146402282209D6002F063F90120A1
:106F50000EE09A680849AA1A8A4208D9032202A9AF
:106F600001F8012D822001229D6002F053F9204694
:106F700003B030BD680A0010801A060038B5044618
:106F8000822002F021F98206054602D42046FFF74E
:106F9000D1FF6B0602D42046FFF7CCFFBDE8384096
:106FA00002F0A0B908B59E2200210748FDF722F99A
:106FB000064A00231370064A1360064B80221A709B
:106FC000054B7F221A7008BD740A0010D6160010F7
:106FD00010390010381200103A1200100B4A92F9C2
:106FE00000308342B8BF03461370094A92F900305B
:106FF0008342A8BF03461370064A136803EB0023BD
:107000001360054A1378013313707047381200106B
:107010003A12001010390010D616001010B540F6C4
:107020006213B0F51B6F38BF18460D4BA0F6621007
:107030001B7823B10B4A1268803292FBF3F30A49A2
:1070400003EB430331F91020FD2404FB02334FF41A
:107050008072803393FBF2F321F8103010BD00BF33
:10706000D616001010390010740A001040F6621392
:10707000B0F51B6F38BF1846054BA0F6621033F908
:1070800010004FF48073803090FBF3F040B27047F3
:10709000740A001010B5144C94F90030002B05DD73
:1070A000FFF7E4FF2378363B184443B26FF07704D0
:1070B000A342B8BF23466FF013029342A8BF134602
:1070C0001C4603F1380141F00301C9B2062001F06A
:1070D00060FD064B14F1770F1C70054BACBF00240C
:1070E00001241C7010BD00BFD81600104C170010F2
:1070F000A0130010074B00221A70074B4FF4001228
:107100001A60064B04221A60054A136843F0040310
:10711000136070474D17001000E100E0AC800240A2
:10712000B4800240074A136823F004031360064B3F
:1071300004221A60054B4FF400121A60044B00221F
:107140001A707047B4800240AC80024080E100E0D9
:107150004D17001008B5FFF7E5FF044B00221A7029
:10716000034A88231370034A137008BDA01300104C
:10717000D81600104C1700100A4B02221A600A4A57
:1071800000231360094A1360094A1360094A1380F7
:10719000094A1380094A1380094A1360094A136097
:1071A000704700BF0440004054120010301200101D
:1071B00048120010A2130010D41600105012001034
:1071C0004C1200100C170010014B01221A6070477E
:1071D0000440004008B5FFF7CFFF064B04221A60B9
:1071E00040F63442DA6003229A60034B02221A60AE
:1071F00008BD00BF0C40004000E100E008B5FFF70B
:10720000BBFF024B02221A6008BD00BF80E100E014
:10721000114A136843F000531360104B4FF0806223
:107220001A600F4A00231360136213641366C2F8D6
:107230008030C2F8A030C2F8C030C2F8E030FF237E
:10724000A2F5847213609360064B01221A601A68DB
:10725000D207FCD5704700BFC4C00F4000E100E07A
:10726000104100503040005030B5144A01231360E3
:1072700013489360134C144B144A154914609360DF
:107280005160D0609A60134D134A5D601C60D860F5
:107290001460516093604DF20602104B1860104864
:1072A0005A60002202600F4802600F4A11600F4AC4
:1072B00015605A6842F001025A6030BD0840005023
:1072C0003290008808000340C4390010D4390010FF
:1072D00015170010D9160010004100500C41005045
:1072E000341200104817001094120010B013001050
:1072F00030B5154A01231360144D9360144C154B9F
:107300001549002204EB82000A2A43F80C0C18BF2E
:10731000184602F1010208BF00200B2A43F8105C56
:1073200003E9030003F11003ECD10C4B0C4A19687C
:1073300011605968516099689160DA68094B1A6068
:107340004DF206025A6030BD08400050080003406C
:10735000151700102439001004100088143900108B
:10736000004100500C4100500B4B0C494FF0805233
:107370001A600B6843F001030B6051F8203C43F0A6
:10738000020341F8203C06490B6843F001030B60FF
:10739000044B1A60704700BF98C0092024000340C6
:1073A000104100509CC009200B4B4FF080521A60D6
:1073B0000A4A136823F00103136052F8203C23F0BB
:1073C000020342F8203C064B00221A60054A0123C2
:1073D00013609360704700BF98C0092024000340E9
:1073E000104100500840005030B50C4B0C490D4A7C
:1073F0000D4803F110044D1CDA60186059609C6060
:107400001861DA615D619B61084B186059609C608E
:10741000DA604DF206021A6130BD00BF140B001095
:10742000243A001001000080080003400041005091
:10743000034B044A1860136843F00103136070475C
:107440001880004014800040054B064A1B681E331C
:10745000136052F80C3C43F0400342F80C3C704778
:10746000088000402080004030B5002423460144BD
:10747000934205D0CD5CD80085402C430133F7E71B
:10748000204630BD10B5084A431E053013F8014FA1
:10749000D179214012F8014F8C4203D18342F5D1BA
:1074A000012010BD002010BD8B04001010B5054C4C
:1074B0004FF4E472002104F12000FCF79BFE024B24
:1074C000236210BD140B0010D6BE898E70B514480F
:1074D00000214FF4927404FB01F3C518D5F818216C
:1074E000BAB1104C00261C44C4F80063C4F8F06222
:1074F000C4F8EC624FF4827231462846FCF77AFEFB
:107500007F2384F80433802384F80533C4F80863A8
:1075100003E001310429DED11546284670BD00BFC5
:10752000FC0C0010140B001010B51B4B186A01F076
:1075300037FA044647F6FE710D2001F02AFB42F6A9
:107540002231122001F025FB41F24B21142001F0E1
:1075500020FB44F2E141202001F01BFBA1B22C20D2
:1075600001F017FB210C2D2001F013FB0B4B022027
:107570001988013989B201F00CFB4021032001F088
:1075800008FB01F09FFB4306FBD5612001F0A1FB46
:10759000BDE81040FFF758BF140B0010143A00105C
:1075A00070B5642001F095FB284A13681C3A23F05B
:1075B0000103D361264B1C6814F0040401D0116848
:1075C000F9E7244D4FF48272D5F878662146C6F863
:1075D0000841C6F804413046FCF70CFE7F2386F8CC
:1075E0001C31802386F81D31C6F82041FFF7FCFED0
:1075F000FFF7BAFE2A6A184B9A420ED140F67A1269
:10760000164B1B889BB2934205D0B3F51B6F0CBF82
:107610002720252012E0262010E095F82C0095F870
:107620002D302522184490FBF2F302FB130005F1E4
:107630004001C0B285F82C00FFF7CBFBFFF7E8FA5A
:10764000BDE87040064B1880FFF76EBF2400034072
:107650000C000340140B0010D6BE898EA20400104B
:10766000143A001038B52B4A2B4B5468022C01D128
:1076700010680EE0012C3AD1D3F80411002936D05D
:10768000D3F80051196B106829441E31091A3B299F
:107690002DD80121C3F80001C3F804111F4814B10B
:1076A0000168C3F80811002151609160B3F80C2102
:1076B000194C0132A3F80C210268D3F808015B6B66
:1076C000121A9A4203D8164B1A6832B11960FFF7A2
:1076D000EDFEBDE83840FFF763BFD4F80001236B2F
:1076E0001844A0F6B830BDE83840FFF7A1BED3F883
:1076F0000401094930B1D1F80051086B2844C1F8A0
:107700000001CBE71068C1F8000104480068C1F827
:107710000801C3E7183A0010140B0010088000405D
:10772000540A0010F8B56A4D6A4B2F681B68DE07D3
:1077300040F1CC80684B1B68DC0740F1C080674E8D
:1077400001233360062001F01BFA654C40F307204B
:10775000D4F8783693F91C21D3F82011824293F99A
:107760001D21C8BF83F81C018242D3F808210144BF
:10777000B8BF83F81D015B48C3F8201102F0010176
:10778000415C99540132012AC3F8082118D15649A5
:10779000A7F5C872C3F80C210A88088892B2C3F80A
:1077A0001021226A80B2C3F81421FFF719FA2428A5
:1077B00000F285804D4A136823F0010313607EE0D8
:1077C000022A2ED1B3F810015D78FFF709FA484A72
:1077D0007F27115C96460831B1FBF7F3C3EBC31367
:1077E000C91A00231E46C6F107020EEB010090F8ED
:1077F000280045FA02F2013102F001024240B1FBD9
:10780000F7F0B2400136C0EBC0101343082EA1EBD5
:107810000001DBB2E7D1D4F878260533C2F8043191
:107820004DE04CD9D3F804319A4248D3612001F09D
:1078300050FA304B00221A602F4A0123336013683C
:107840002E4923F001031360183A1368580701D535
:107850000B68FAE7D4F87816294800F007FB224BAA
:107860001F4E188880B2FFF7BBF924281DD8254A7F
:1078700053680133012B53600AD1D6F87836D3F818
:107880000C311360286800F6B830FFF7D1FD0CE02A
:10789000022B0AD1642001F01CFAFFF717FEC6F88C
:1078A0007806BDE8F840FFF7DDBEFFF70FFEC4F82D
:1078B0007806FFF799FDFFF757FDFFF7C5FD124B5F
:1078C0001B68DB0742BF114B01221A60F8BD00BFE5
:1078D0000880004000400050044000500840005024
:1078E000140B0010243A0010143A001014800040C9
:1078F0005AA5000010410050240003400800034036
:10790000E4390010183A00100C40005010400050AC
:1079100038B54A4B1A68D0075FD5494A0121D2F8D9
:1079200010011960474D134690B3B2F80C41B2F8FC
:107930001C0184422CD1A86860B9D06B50B1D2F838
:1079400000310344106BA3F6B8331844FFF770FD01
:10795000A96038BD0122AA600022D3F81401C3F83F
:107960000421C3F81021D3F80021D3F818110244E0
:10797000186302F5A542D86B5963503293F838303A
:1079800010441844FFF754FDBDE83840FFF708BE27
:10799000D3F820312A4C7BB1B4F80C21B4F824314F
:1079A0009A4209D1C02204F5947104F1400002F01A
:1079B00047F80023C4F82031AB6863B9214B01229A
:1079C0009A60214B186800F5BD400830FFF730FD84
:1079D000FFF7E6FD01E0FFF745FE184B1A68910737
:1079E0000DD51A4902221A600B6823F008030B60B8
:1079F000174B4FF480711960102119601A600F4BFA
:107A00001A68520718D504221A6001F05BF943077F
:107A10000ED5622001F05DF90E4B80221A604FF402
:107A200080721A60094A136823F04003136038BD5E
:107A3000BDE83840FFF708BD38BD00BF00800040FA
:107A4000140B0010183A0010088000401480004009
:107A50003CC0092058C009202DE9F04F87B0C14F24
:107A60004FF08073C04C3B60FFF7C8FB0125BF4E51
:107A7000BF48C4F80053C4F82454C4F84855C4F8A7
:107A80006C5600F0EFF90223BA4A33600423136006
:107A9000B94A35601360FFF719FDDFF81483B74B5F
:107AA000C1461B88B64A9BB21380B64BC4F8780611
:107AB0002362FFF701FA00F0D7FFFFF795FCFFF70D
:107AC00053FCFFF731FDB04B00221A60009701967E
:107AD0000293AE4B1B78092B40F0928006A900233D
:107AE00041F8043DA24800F0CFF9002800F084805E
:107AF0000598A74ED0F81021D0F80411FFF708F927
:107B0000736C43B3059DB5F81001FFF769F824289D
:107B100021D92B7803F00F02062A69D8012393405C
:107B200013F0550F03D113F02A0F06D160E0D5F8FA
:107B30000431072B5CD9A81C09E0D5F804310D2BC2
:107B400056D9A81CFFF79EFC28B905F10800FFF7DD
:107B500099FC00284CD08F4A102313608E4B8F4A1B
:107B60001B68059F03F5C333A0331360D8F80030BA
:107B700043F00803C8F80030FFF7ACF9054650B3EE
:107B80004FF0000A01232B7085F803A0D7F80C31C1
:107B900007F58A716B60D7F8103105F10E00623B72
:107BA000AB70D7F80421D7F82031B3FBF2F3AB72F6
:107BB00097F91C3104226B7297F91D3185F80BA0DF
:107BC0002B7201F03DFF2E22394605F1120001F023
:107BD00037FF85F801A0059DB5F81001FFF700F803
:107BE0002428297840F2AF8001F00F01052919D02F
:107BF000059B0122C3F818210020FFF7BFF968E7B1
:107C0000019B009902221A6004230B60644B10212F
:107C100019604FF4807119601A60FFF7DBFA07B042
:107C2000BDE8F08F736B002BE2D0D5F80431272B21
:107C3000DED1029B1B6813B1534B00221A60042251
:107C40000E212846FFF710FC03221221206228464D
:107C5000FFF70AFC606200F0A3FE0122A06215217A
:107C60002846FFF701FC022284F8380016218346DB
:107C70002846FFF7F9FB0222E063182182462846D6
:107C8000FFF7F2FB0222064620631C212846FFF77D
:107C9000EBFB01226063039023212846FFF7E4FBFE
:107CA00040F67A42B11F00F01F0091422E4F84F837
:107CB0002D0045D843F2D4014E4301FB0AF296420F
:107CC0003E63FA633CD343F2D3025FFA8BFB01FBC2
:107CD0000BFB934534DD334AA6F54356143E9642DA
:107CE00028BF16465E452BD3039B53432E4A7B6326
:107CF000A3F57423A3F51073934221D807F1400133
:107D000005F11E00FFF734F8D7F8FC30C3B1D9F8FD
:107D10000030002223F04003C9F80030234BD5F88F
:107D20000C015A609A60FB6BD5F80421034403F5FB
:107D30001A532C33502000FB0230FFF779FB57E732
:107D4000FFF7B4FB54E701F0030103297FF450AFC0
:107D50006F78002F3FF44CAFAB785BB3012B6CD046
:107D600046E700BF80E100E0140B001004800040F3
:107D7000E43900100C80004000E100E0A204001093
:107D8000143A0010D6BE898E540A00103E0A001024
:107D90005404001038C00920088000401C800040B6
:107DA0003CC00920A0860100C08D0313183A0010C2
:107DB000148000400C2F7FF41BAF01222846FFF7F0
:107DC00053FB0222C6B20421284684F83860FFF72C
:107DD0004BFB02228246E06306212846FFF744FB64
:107DE0000222C4F8140103900A212846FFF73CFB45
:107DF00002228346C4F8180139462846FFF734FBAF
:107E000006EB460206EB820206EB820643F2D40240
:107E1000039B02FB0AF15343C4F814310F4BB60025
:107E200003FB0BF3C4F818310123A4F81C0184F8F8
:107E30003860E163C4F81031DAE6082F7FF4D8AE79
:107E4000394602222846C4F82031FFF70DFB0449C9
:107E5000A4F82401E81CFEF78BFFC9E6A086010008
:107E60003C0C001000238362C3627047C36A826ABD
:107E700001330A2B28BF002393421DBF40F8231073
:107E8000C362012000207047836AC26A934209D00E
:107E900001330A2B28BF002350F823200A60836295
:107EA00001207047002070477047704770470000FE
:107EB00010B5064C0649431E233022685207FCD5F4
:107EC0000A6803F8012F8342F7D110BD0C0003406C
:107ED0000800034040F635410A4B1A680A4BC2F3CA
:107EE00013021B6801FB02338268C06893423CBFE7
:107EF00003F1434303F5A0039B1A834234BF0020E0
:107F000001207047541200100840004070470000E4
:107F100040F6681200234360024B1A80012303706D
:107F2000704700BF50040010012303707047000029
:107F300010B547F6FF7104460D2000F02AFE42F608
:107F40002231122000F025FE41F24B31142000F0C6
:107F500020FE4FF49861202000F01BFE1D4B0220F4
:107F60001988013989B200F014FE2621032000F09F
:107F700010FE0321212000F00CFE46F20F312D20CF
:107F800000F007FE49F6FE712C2000F002FE00F022
:107F900099FE4206FBD5104B4FF080520F491A60F4
:107FA0000B68612043F002030B600D4B1A6000F078
:107FB00090FE00F087FE4307FBD50E2000F0E0FDA9
:107FC00000F01F000F28F8D1622000F082FE02238B
:107FD000237010BD5004001098C009200400034015
:107FE0009CC0092010B58AB0282200216846FCF701
:107FF00001F940F63541164B1A68164BC2F31302CD
:108000001B6801FB0233099300F05CFEC2061DD51C
:10801000114B10241C606846FFF74AFF099A694615
:108020000620FCF775FF0D4B61201C6000F051FE2F
:1080300000F048FE4307FBD50E2000F0A1FD00F044
:108040001F000F28F8D1622000F043FE0AB010BDD7
:10805000541200100840004038C009203CC00920DC
:1080600010B50446FFF736FF08B340F635416368A4
:108070005A1C0F4B1340002BBCBF03F1FF3363F0BE
:1080800003030C4AB8BF013332F8132063600A4B74
:108090001A800A4B1A680A4BC2F313021B6801FBD1
:1080A0000233A360074BE36001232361237010BDFB
:1080B0000300008004A600005004001054120010B9
:1080C0000840004070110100F0B58BB040F6354615
:1080D0000446284D282200216846274FFCF78AF8DD
:1080E0002A683B68C2F3130206FB0232204609925B
:1080F000FFF7F0FE58B12A683B68C2F3130206FB93
:108100000233A36049F64043E3600323237000F089
:10811000D9FDC3061BD5194B10261E606846FFF714
:10812000C7FE099A69460620FCF7F2FE40F6354183
:10813000134B1E60104B2A681B68C2F3130201FB2D
:108140000233A3604EF66023E36003232370237899
:10815000022B0DD0642000F0BCFD0A4B4FF0805282
:108160001A60094A136823F0020313600123236194
:108170000BB0F0BD541200100840004038C0092078
:108180003CC0092098C009200400034030B589B0E4
:1081900004461C22002101A8FCF72CF8154D34B12F
:1081A000012C01D1144C03E000232B7020E0134C70
:1081B000134B4FF080721A6000F056FC2B780D2B99
:1081C00006D19DF8043001A854F823309847F5E70C
:1081D000642000F07EFD0B4B4FF080521A600A4A7B
:1081E000136823F002031360084B4FF080721A608B
:1081F00009B030BD3E0A001028A600000CA6000001
:1082000000E100E098C009200400034080E100E0A4
:10821000274A0B21136843F010031360254B832278
:108220001A60254A0433116000215160D321916204
:1082300053F8042C22F0800243F8042C10B1C02221
:108240001A6000E018601D4B09221A601C4A13686E
:10825000043223F0404343F0804342F8043CD36BA4
:1082600023F04043D363136823F0030343F0010377
:108270001360144B196821F003011960B8B111683B
:1082800021F00C0141F004011160196821F00C018A
:1082900041F008011960116821F4405141F4805106
:1082A00011601A6822F4405242F400521A6070477A
:1082B000C4C00F400C000140000001400800014014
:1082C00000C0024044C002400FB437B5134B1D68D4
:1082D000FDB9134C01221A60FF2107AB069A204614
:1082E000019300F009FB204684F8FF5001F01EFCCA
:1082F0000C4B0D4A1C605A604CF68022C0F30B00F8
:1083000040F004409D60D8601A611A6942F0010291
:108310001A6103B0BDE8304004B0704790110010FE
:10832000263A0010E0410050000001402DE9F84FCE
:10833000804689469346D2F810A0D66800270124CB
:10834000002522462B464046494601F0B7F9B9427E
:1083500008BFB04207D304FB07F306FB0533A4FBB9
:1083600006451D44EDE7002754EA050330D02246B8
:108370002B464046494601F0A1F922462B46494684
:108380000646404601F09AF920462946904699460D
:10839000DBF80C20002301F091F904460D4627B9C3
:1083A000002E02DC54EA0503DED1092E0AF1010297
:1083B00007DD9BF8003013F0040F14BF3723572359
:1083C00000E030231E448AF8006001379246CBE774
:1083D00000238AF80030BDE8F88FF0B50C69CA6850
:1083E0000123B0FBF3F5954201D35343F9E7002590
:1083F000E3B1B0FBF3F2CE6803FB1200B3FBF6F37C
:108400001DB9002A01DC002BF2D1092A04F1010771
:1084100006DD0E7816F0040F14BF3726572600E04D
:1084200030263244227001353C46E1E72370F0BD2E
:10843000F0B50C69CA680123B0FBF3F5954201D38E
:108440005343F9E70025E3B1B0FBF3F2CE6803FB39
:108450001200B3FBF6F31DB9002A01DC002BF2D1A8
:10846000092A04F1010706DD0E7816F0040F14BF87
:108470003726572600E030263244227001353C462C
:10848000E1E72370F0BD2DE9F04106460F461546A1
:108490005468136913F8012B1AB92B7A2BB1013CDC
:1084A00003E0002CF9DD013CF4E72B78990708D5AF
:1084B000EA68102A01D1023C03E0082A08BF04F14F
:1084C000FF3413F0090F0ED1A046B8F1000F05DDFF
:1084D00020213046B84708F1FF38F6E7631E002C2C
:1084E000B4BF1C461C1B297A09B13046B8472B780B
:1084F0009A0711D5EB68102B09D130213046B847C7
:108500002B7813F0040F14BF5821782102E0082BB8
:1085100002D130213046B8472B78DB070ED5A04674
:10852000B8F1000F05DD30213046B84708F1FF38BB
:10853000F6E7631E002CB4BF1C461C1BD5F8108048
:1085400018F8011B11B13046B847F9E72B7803F052
:108550000903082B06D1002C04DD20213046B84742
:10856000013CF8E7BDE8F0818368026893423CBFB4
:108570004268D15483680133836070472DE9F04726
:108580008CB0074688461C4606AE059692F80090C9
:10859000551CB9F1000F00F0AC81B9F1250F07D0DF
:1085A000B9F10A0F02D10D213846C047494655E1BD
:1085B0000022964611469446104691469DF8043096
:1085C000029203F0FC0362F3C3038DF804308DF8CC
:1085D0000C2015F8013B73B12D2B06D0302B07D0A2
:1085E000232B08D101229646F3E701208146F0E7CC
:1085F00001218C46EDE728B19DF8040069F3C30022
:108600008DF8040029B19DF804106CF300018DF879
:1086100004102AB19DF804206EF341028DF8042065
:10862000A3F13002092A1DD800210A20A3F130024B
:108630005FFA82FEBEF1090F04D800FB012115F894
:10864000013BF3E7A3F16102052A02D8A3F1570227
:1086500005E0A3F14102052A03D8A3F137020A2A53
:10866000EBDD02912E2B0BD19DF8043043F001037A
:108670008DF8043015F8013BA3F13002092AF9D92D
:108680007A2B01D12B7832E06C2B40F098802B783C
:108690006C2B2CD16B7805F10209692B48D011D8CD
:1086A000582B00F0E18007D8002B00F02281252B09
:1086B00040F0D7804D46D0E0632B00F0B380642BB0
:1086C00036D0CEE0732B00F0B48007D86F2B00F0CB
:1086D0009A80702B40F0C5804D467CE0752B03D00E
:1086E000782B40F0BE80BFE04D4602230CE0692BA2
:1086F00005F1010529D01ED9732B00F09B8066D9A6
:10870000752B40F0C88001230A22022B049208D165
:10871000E31D23F0070303F1080401AAD3E90001D4
:108720002BE0012B01A9206804F104093ED133E0BC
:108730004D4602230AE0582B00F0AF8040F28980BA
:10874000632B70D0642B40F08D8001230A22022B12
:10875000049215D1E31D23F00703D3E9000100289B
:1087600003F1080471F1000306DA40424FF02D03D3
:1087700061EB41018DF80C3001AAFFF7D7FD18E03D
:10878000012B206804F1040909D10028BEBF2D2364
:1087900040428DF80C3001A9FFF71FFE08E00028C9
:1087A000BEBF2D2340428DF80C3001A9FFF740FEDB
:1087B0004C4601AA41463846FFF765FE52E0692B58
:1087C00000F0828042D9732B34D000F28E806F2B60
:1087D0001AD0702B46D19DF80430102243F00203CA
:1087E0006FF3820304928DF8043001A9206804F12C
:1087F000040AFFF71DFEA946544601AA4146384621
:10880000FFF741FE2DE04D46082301A9206804939F
:10881000FFF70EFE01AA4146384604F10409FFF7AE
:1088200032FE11E04D462178384604F10409C04774
:108830000AE04D46236801AA41463846059304F1F3
:108840000409FFF720FE05964C460BE0582B3FD05D
:1088500036D8002B4DD0252B04D125213846C047D2
:1088600000E04D462A4691E6A3F1580043429DF8A8
:108870000410434163F382011022E31D23F0070338
:1088800004920CAA02F82C1DD3E9000103F108049C
:10889000FFF74CFDB1E7782BE4D1A3F1580110228A
:1088A0004B4204929DF804204B4163F382020CA9D1
:1088B00001F82C2D206804F1040AFFF78EFD9AE7D9
:1088C000632BB0D0642BCDD100233FE7782BC9D1E7
:1088D00010220492A3F15802534253419DF8042000
:1088E00063F382028DF804207FE7752BEED100231D
:1088F0000AE70CB0BDE8F0871FB5002481B101394B
:108900000290019101A808490394FFF737FE0399EB
:10891000019B029A994234BF5454D454039800E006
:10892000084604B010BD00BF6985000000F0DABC45
:1089300008B50D4A0D4B0E498B4204D252F8040F74
:1089400043F8040BF8E70B4B0B4A0021934202D289
:1089500043F8041BFAE7FBF725FC084B084A1A60AA
:10896000FDF774FFFEE700BF94A600002000001092
:108970000D0A0010100A0010263B001008ED00E060
:1089800000400000FEE70000044B0A221A601A684B
:10899000013A1A60002AFAD1704700BF9411001002
:1089A00090FAA0F070470000C30803EB900303EBBC
:1089B000901303EBD01303EB902303EBD020044B75
:1089C00058605A68013A5A60002AFAD1704700BFCD
:1089D00094110010014B5843FFF7E6BF40420F00CF
:1089E000104A0023136053609360D3601361D36116
:1089F000536293620C4A1360136213641366C2F8E5
:108A000080300A4A136053609360D3601361D3616E
:108A10005362074A1360136213641366C2F880300E
:108A2000704700BF00C0024000C0092040C00240A3
:108A300014C0092008B5FFF7D3FF4CF21271094AA0
:108A400000231360116240F2B11111644FF04051E4
:108A50001366C2F880105361536353655367C2F8BD
:108A6000943008BD00C00920114B1A6822F440421E
:108A700042F400421A601A6822F4405242F4005252
:108A80001A601A6822F4403242F400321A601A68FE
:108A900022F4402242F400221A60064B4FF080522A
:108AA0001A60054BC7221A600C225A60704700BF3B
:108AB00000C0024098C0092000000340094A136822
:108AC00023F470131360084A136823F0C063136023
:108AD000064B1A6842F420121A601A6822F4A01297
:108AE0001A60704704C0024000C0092044C0024020
:108AF000F0B51026B646114B2025441E01221D60FC
:108B00000F4F104D02FA04F40138C0B2FF280FD005
:108B1000214214BF2A601A602E60D7F800C04900B5
:108B20001CF0020F18BF41F00101C3F800E0EBE7B1
:108B3000044B20221A600846F0BD00BF5CC009202B
:108B400054C0092058C0092008B5FFF7B7FF0949EC
:108B50004FF400730B603220FFF726FF064B2022F4
:108B60001A604FF480430B6018200449BDE80840A8
:108B7000FFF7BEBF38C0092058C00920FF7F0D0095
:108B800008B540F0800109041820FFF7B1FF80B25A
:108B900008BD41EA00411820FFF7AABFF8B5224BF3
:108BA0002022224F1A60702408224FF0010E102656
:108BB00014F0800F02F1FF3214BFC7F800E0C3F8D1
:108BC00000E0640012F0FF023E60184DE4B21E6047
:108BD000EED10E4601274FF0100E721AD2B290421B
:108BE00013D916F8014B082214F0800F02F1FF325E
:108BF00014BF2F601F60640012F0FF02C5F800E090
:108C0000E4B2C3F800E0EFD1E7E708221021013A0F
:108C100012F0FF0229601960F9D1FFF7B5FE034B8E
:108C200020221A60F8BD00BF5CC0092058C009208E
:108C30002DE9F843204D2023204F2B60F0220823FC
:108C40004FF0010E102412F0800F03F1FF3314BF18
:108C5000C7F800E0C5F800E0520013F0FF033C60E5
:108C6000164ED2B22C60EED10138DFF854904F1E70
:108C70000144B9421AD0082000244FF01008FFF731
:108C800083FEC6F80080D9F8003064009B07E4B288
:108C900048BF44F00104FFF777FE013810F0FF00F1
:108CA000C5F80080EBD107F8014FE2E7FFF76CFE53
:108CB00020233360BDE8F8835CC0092058C0092038
:108CC00054C0092008B500210820FFF711FFC0B2E9
:108CD00008BD08B501460820FFF70AFFC0B208BD6D
:108CE00008B500211820FFF703FF0020FFF748FF19
:108CF0000028FAD14FF400411820FFF7F9FE0020B8
:108D0000FFF73EFFB0F5004FF9D108BD2DE9F04166
:108D100044F23A02404B414E1A60414D0023336009
:108D20002B68404C23F002032B60AA2323603E4AA9
:108D30005523236013683C4F13F0007FFAD12B6852
:108D400023F001032B60AA232360552323603B6893
:108D500013F08073FBD1DFF8F480C8F80030FFF720
:108D6000BFFF32491820FFF7C3FE6020FFF7B1FFB5
:108D7000FFF7A8FF4106FBD52D4B20221A601A6889
:108D80005206FCD52B4B28221A6000225A60012380
:108D90003360294A294BAA211A605522216022609A
:108DA0002B6843F001032B60216022603B68DE01E9
:108DB000FCD50323C8F800302B6843F002032B6076
:108DC000AA232360552323603B689801FCD51C4BE4
:108DD00022221A60AA24083355201A4A1C601860FF
:108DE000116841F0010111601C60174C1860216886
:108DF000154811F4807FFAD001684905FCD5116847
:108E000041F002011160AA221A6055221A6003681B
:108E10009B05FCD5BDE8F08100C00F400CC10F40A0
:108E200080C00F408CC00F4088C00F4070150800F4
:108E3000A0C10F40A8C10F401800010084C00F401E
:108E4000A4C00F40A0C00F40A8C00F4004C10F40F5
:108E500008B5FFF7EFFDFFF777FEBDE80840FFF725
:108E600055BF000008B5FFF7BBFD094B02221A6091
:108E70004FF080421368074843F003031360064B2A
:108E8000AA221A6055221A60BDE80840FFF78CBD7F
:108E90003CC0092040420F000800004030B58BB0B4
:108EA000044636230D46009305A96846074B9847AC
:108EB000059B2370069B1A0A6370A2701A0C1B0E86
:108EC00023710523E2702B600BB030BDF11FFF1F33
:108ED00030B58BB004463A230D46009305A9684689
:108EE000134B9847059B2370069B1A0A6370A27068
:108EF0001A0C1B0E2371079BE2701A0A6371A27190
:108F00001A0C1B0E2372089BE2711A0A6372A2727A
:108F10001A0C1B0E2373099BE2721A0A6373A27365
:108F20001A0C1B0E23741123E2732B600BB030BD9F
:108F3000F11FFF1F00B58BB03923009305A96846C8
:108F4000024B98470BB05DF804FB00BFF11FFF1FF9
:108F500038B5084C802025686168402DA8BF4025A1
:108F60002A4600F057F963682B44636023685D1B51
:108F7000256038BD9C11001037B51048047A0546AD
:108F8000C4F34114022C0CD1002302A941F8043D82
:108F900000F11002031D083000F066FA08B10198D4
:108FA0000AE005EB840463692BB1054A02F10C0168
:108FB000101D984700E0184603B030BD9C1100100A
:108FC000A011001010B500284AD101F0040101F0F1
:108FD000FF02254C01B30822A11800F045F9227ABE
:108FE000C2F3411304EB83035B6A6360E38923608C
:108FF00023610BB1D30935D0FFF7BEFF28B9BDE817
:1090000010400121802000F0F9B8E28923699A42DA
:10901000D4BF226023601AE02368002B1BDD1A46B0
:10902000616800F021F90028E9DB636803446360AC
:109030002368181A2060A8B9237AC3F3411304EBFC
:1090400083035B6A6360FFF797FF0028D7D0BDE812
:109050001040FFF77DBF1146BDE8104000F004B995
:109060008028F4D010BD00BF9C110010024B03EB10
:1090700080004161426270479C11001070470000FF
:1090800010B50E4C00F096F90D4800F081F821461D
:10909000002000F061F82146802000F05DF84021BA
:1090A000002000F03BF84021802000F037F8054A0E
:1090B00005490020FFF7DAFF012010BDC58F000031
:1090C0007D900000D01100105D950000034A1368E8
:1090D00030EA0303FBD1024B1860704700C2005016
:1090E00008C20050044B000440F4A06030221A6013
:1090F00098601020FFF7EABF08C2005008B5FFF7DC
:10910000F1FF054B090441F4807119601020BDE89E
:109110000840FFF7DBBF00BF10C2005010B543008E
:1091200003F01E0343EAD014094801230268A34058
:1091300013430360074B4FF480701C605960FFF7C6
:10914000C5FF44F040000021BDE81040FFF7D6BF46
:1091500044C2005048C200500A4A430003F01E03B4
:1091600042F81310084943EAD01001220B6802FAB2
:1091700000F01843054A0860136843F004031360C5
:10918000704700BFD811001034C2005004C2005014
:10919000034B044A1864136843F0080313607047D4
:1091A000D811001004C2005040F08001D020FFF719
:1091B000A5BF011C18BF0121FE20FFF79FBF01467C
:1091C000F320FFF79BBF000008B5430003F01E0328
:1091D00043EAD0110846FFF785FF064B090441F426
:1091E000007119602020FFF771FF034B1868C0B2AF
:1091F00008BD00BF10C2005014C20050430003F06D
:109200001E0343EAD010003118BF012140F0400096
:10921000FFF774BF38B50346400000F01E0040EA77
:10922000D3109B0003F03C030C4C43F0020323607B
:109230000B4B15461A600B4A236813F0020303D048
:1092400051F8043B1360F7E7044A1360FFF74AFF45
:10925000FA20FFF747FF284638BD00BF28C200505C
:1092600024C200501CC20050F8B50346400000F074
:109270001E0040EAD3109B00154C03F03C0343F062
:10928000010323602646083C23681D05FCD55C05C8
:109290001AD500252C460F4FC3F309039C420AD070
:1092A00014F0030F08BF3D6811B1944238BF0D554B
:1092B0002D0A0134F2E700233360FFF713FFF22099
:1092C000FFF710FF2046F8BD4FF0FF30F8BD00BF9C
:1092D00028C2005018C20050011C18BF0121D8201C
:1092E000FFF70CBFF8B52A4B1C68E10711D5012226
:1092F0009A60284B596C61B1F520FFF7F3FE264BBD
:10930000264A20201A60FFF7E1FE254B1868C0B2FC
:10931000884722071AD5234B08221A60FE20FFF740
:10932000E1FE1D4B204A20201A60FFF7CFFE1C4BA8
:109330001868C3B213F01A0F08D0164A126C2AB17B
:1093400000F0140003F001031843904763071ED593
:10935000144B0422154D164E114F1A6000240123A0
:109360002A68A34013420FD033602020FFF7AEFEDF
:10937000084B601053F8203039682BB140EAC41014
:1093800001F01F01C0B298470134202CE7D1F8BD8D
:1093900000C20050D811001010C200500002F500A9
:1093A00014C2005008C200500002FE0030C200503B
:1093B00038C2005008B5264A2649136823F44023D2
:1093C00043F48023136052F8043C23F0300343F04D
:1093D000100342F8043C52F8043C23F0405343F09D
:1093E000005342F8043C52F80C3C23F0406343F035
:1093F000806342F80C3C52F80C3C23F0405343F09D
:10940000805342F80C3C02F55022B432136843F00A
:1094100000431360104A136843F0120313600B6893
:109420000C4A13F0020FFAD01368DB06FCD50B4B85
:1094300000200B4A18604FF0FF3313605062D06277
:109440001363084B1860FFF7BAFE012008BD00BF88
:1094500010C00240F8CF0050F4CF005004C20050BA
:1094600008C2005040C2005070B5164C2578002448
:1094700015B34678AE4221D10C60C68844888088F6
:10948000042805D005281BD10F481860922002E05F
:109490000E48186028201060200A14680004A042BA
:1094A0000EDC1D680544201A1D60B042D4BF106058
:1094B00016600120086070BD284670BD204670BD52
:1094C000012070BD201200106909001040A60000A4
:1094D000084B187061B1084B4A1E253112F8010F74
:1094E00018B18A4203F8020BF8D100221A709A7060
:1094F000704700BF20120010AB090010014B5860EC
:10950000704700BF20120010F0B5010A0329C4B251
:10951000CEB2104808D1EE2C06D10F490078923116
:109520000874196012230FE04168002501E001353D
:109530000144087868B14F78B742F9D1A542F6D115
:10954000022E196003D14B8813600120F0BD0B7807
:10955000FAE7F0BD20120010690900102DE9F0476C
:109560004F4C0546A3680F469146A04643B928785C
:1095700000F01F06012E57D006D3022E6AD08BE0D2
:1095800098470028F3D04CE06A78D9F80030092ACF
:1095900000F28280DFE802F00580808080090D8083
:1095A000151C00221A705A7048E0A878FFF7FCFDDD
:1095B00037E04B463A46A9886888BDE8F047FFF790
:1095C000A3BF98F80C2001201A703860BDE8F0871E
:1095D000AE780EB930461FE0FF273B46D8F804406E
:1095E0002278C2B16278042A05D0052A05D0022A61
:1095F0000ED163790CE0E7780AE09E4208D137B9D2
:1096000061792379A07843EA0121FFF787FD33468A
:1096100022781444E4E70120FFF75EFE6B8888F8A7
:109620000C300120BDE8F0876B78D9F800200A2BB8
:1096300007D00B2B08D07BBB1370537002233B6009
:10964000EFE70023137016E06B882BBB3B603046BE
:10965000BDE8F0876C78012C0FD002D3032C14D016
:109660001AE02879D9F80040FFF7AEFD0023C0F3D7
:109670004000207063703E60D3E7698861B9287943
:10968000FFF7BCFD2046BDE8F0876B8823B90121B8
:109690002879FFF7B3FDC4E70020BDE8F08700BFDD
:1096A000201200109140031C90409C46203A9340A9
:1096B000194352426346D3401943704753B94AB9DC
:1096C000002908BF00281CBF4FF0FF314FF0FF30CA
:1096D00000F082B9ADF1080C6DE904CE00F006F897
:1096E000DDF804E0DDE9022304B070472DE9F04F16
:1096F0008C460C460546099E002B4FD18A421746E0
:109700006BD9B2FA82FEBEF1000F0BD0CEF120056C
:1097100020FA05F501FA0EF345EA030C02FA0EF7FA
:1097200000FA0EF5390CBCFBF1F0BAB201FB10C324
:1097300000FB02F84FEA154C4CEA0344A04509D956
:10974000E41900F1FF3380F02881A04540F2258123
:1097500002383C44C8EB0404B4FBF1F301FB134CA6
:1097600003FB02F2ACB244EA0C418A4209D9C9199E
:1097700003F1FF3480F00F818A4240F20C81023BFA
:1097800039448A1A43EA00400021002E63D022FAAD
:109790000EF2002386E80C00BDE8F08F8B4207D95B
:1097A000002E56D0002186E811000846BDE8F08F53
:1097B000B3FA83F1002940F09380A34202D382429E
:1097C00000F2FE80851A64EB03039C460120002E04
:1097D00041D086E82010BDE8F08F12B90127B7FB11
:1097E000F2F7B7FA87FEBEF1000F36D1E41B4FEA5D
:1097F00017481FFA87F90121B4FBF8F308FB13445B
:1098000009FB03F24FEA154C4CEA0444A24207D983
:10981000E41903F1FF3002D2A24200F2D3800346E2
:10982000A41AB4FBF8F008FB104809FB00F9ACB22D
:1098300044EA0842914507D9D21900F1FF3402D217
:10984000914500F2BA802046C9EB020240EA03408B
:109850009BE731463046BDE8F08F07FA0EF7CEF1B0
:10986000200C24FA0CF34FEA1748B3FBF8FA1FFA5E
:1098700087F908FB1A3520FA0CFC04FA0EF40AFBEF
:1098800009FB4CEA040C4FEA1C4242EA05439B45A3
:1098900000FA0EF50AD9DB190AF1FF3280F08B804D
:1098A0009B4540F28880AAF1020A3B44CBEB0303BC
:1098B000B3FBF8F008FB103300FB09F41FFA8CFC33
:1098C0004CEA03439C4207D9DB1900F1FF326ED208
:1098D0009C426CD902383B441C1B40EA0A418BE78E
:1098E000C1F1200E8B4022FA0EFC4CEA030C24FA44
:1098F0000EF74FEA1C49B7FBF9FA1FFA8CF309FB84
:109900001A7720FA0EF88C400AFB03F548EA0404A3
:109910004FEA144848EA0747BD4202FA01F200FA4A
:1099200001FB09D917EB0C070AF1FF3041D2BD4208
:109930003FD9AAF1020A67447F1BB7FBF9F509FB7F
:10994000157705FB03F3A4B244EA0747BB4208D9E5
:1099500017EB0C0705F1FF3027D2BB4225D9023D9A
:10996000674445EA0A40A0FB0289FF1A4F45454675
:109970004C4614D329D066B3BBEB050367EB040751
:1099800007FA0EFECB40CF404EEA030386E888007C
:109990000021BDE8F08F2346F3E61846DAE6B8EB7F
:1099A000020569EB0C040138E5E70546D9E71046E6
:1099B00092E78246C0E7924678E702383A4443E7A6
:1099C000084604E7023B3C442AE7C345E7D33C464C
:1099D000D1E73146BDE8F08F704700BF032A70B46D
:1099E00026D940EA01039B0711D004780D78AC42D8
:1099F00022D10244431C05E013F8014B11F8015F2A
:109A0000AC4219D19342F7D1002070BC70470C468C
:109A100003461E6825681846AE42214603F104033A
:109A200004F10404E1D1043A032A18462146F0D88F
:109A3000002ADAD11046E8E7601B70BC704700BF0F
:109A4000844641EA000313F0030349D1403A23D38B
:109A50000B6803604B6843608B688360CB68C360AE
:109A60000B6903614B6943618B698361CB69C36196
:109A70000B6A03624B6A43628B6A8362CB6AC3627E
:109A80000B6B03634B6B43638B6B8363CB6BC36366
:109A900040304031403ADBD230320BD30B680360A8
:109AA0004B6843608B688360CB68C36010301031B3
:109AB000103AF3D20C3205D351F8043B40F8043B82
:109AC000043AF9D2043208D0D2071CBF11F8013B86
:109AD00000F8013B01D30B8803806046704700BF4C
