:10400000E03F0010AD900000019100000191000020
:1040100001910000019100000191000000000000EA
:1040200000000000000000000000000001910000FE
:1040300001910000000000000191000001910000CA
:1040400001910000954F0000897A00000191000065
:104050000191000001910000019100000191000018
:104060000191000001910000019100000191000008
:1040700001910000019100000191000001910000F8
:1040800001910000019100000191000001910000E8
:1040900001910000D1500000019100000191000049
:1040A000A990000001910000E15100000191000081
:1040B00001910000019100000191000001910000B8
:1040C000019100000191000001910000044B05489E
:1040D0001B1A062B02D9044B03B11847704700BFC7
:1040E000130A0010100A00100000000005490648DD
:1040F000091A891001EBD171491002D0034B03B1A9
:1041000018477047100A0010100A00100000000045
:1041100010B5064C237843B9FFF7D8FF044B13B111
:104120000448AFF300800123237010BD100A001073
:10413000000000001CAE000008B5084B1BB1084988
:104140000848AFF300800848036813B9BDE8084089
:10415000CCE7064B002BF9D09847F7E700000000AA
:10416000140A00101CAE0000100A0010000000002D
:10417000002301461A46184600F08AB838B5074DA4
:10418000074C2C1BA41005D0013C55F8043D984762
:10419000002CF9D1BDE8384006F04ABE40AE000020
:1041A0003CAE000070B50F4E0F4D761BB61018BF19
:1041B000002405D0013455F8043B9847A642F9D1B4
:1041C0000A4E0B4D06F02AFE761BB61018BF0024CF
:1041D00006D0013455F8043B9847A642F9D170BD8A
:1041E00070BD00BF28AE000028AE000030AE000059
:1041F00028AE000070B4840746D0541E002A41D077
:10420000CDB2034602E0621EE4B3144603F8015B3C
:104210009A07F8D1032C2ED9CDB245EA05250F2CEB
:1042200045EA054519D9264603F11002103E0F2E26
:1042300042F8105C42F80C5C42F8085C42F8045CFE
:1042400002F11002F2D8A4F1100222F00F0204F0E1
:104250000F041032032C13440DD91E462246043A93
:10426000032A46F8045BFAD8221F22F00302043224
:10427000134404F003042CB1C9B21C4403F8011B1D
:10428000A342FBD170BC704714460346C2E700BF8F
:104290002DE9F047254C064625688846D5F8484163
:1042A00092469946C4B360681F2817DC411C76B15A
:1042B00004EB8003C3F888A0D4F88851012282401F
:1042C0001543022EC4F88851C3F808911ED0831CF0
:1042D0006160002044F82380BDE8F087144B03B3ED
:1042E0004FF4C870AFF300800446D0B1D5F8483120
:1042F000002784E888003846C5F848410121C4F801
:104300008871C4F88C71002EE1D0D1E7D4F88C31DB
:104310001A43C4F88C21DAE705F5A674C5F84841BC
:10432000C1E74FF0FF30BDE8F08700BF20A30000D9
:1043300000000000024B13B10248FFF719BF70479D
:10434000000000007D41000010B500231A4640FA2D
:1043500003F1C3F1070401F00101A14001330A4355
:10436000082BD2B2F3D1104610BD000038B5254B52
:10437000254C1A7812B11A78012A27D11B7833B14B
:10438000204B1B78012B14BF0025402500E0292578
:1043900047F6FF710D2004F0BAFF42F622311220D9
:1043A00004F0B5FF41F24B31142004F0B0FF40F2AD
:1043B0000111202004F0ABFF21880220013989B2CD
:1043C00004F0A5FF2946032004F0A1FF208880B255
:1043D00002F01CFF02F0B4FF05F040F84206FBD5E6
:1043E000612005F042F805F039F84307FBD562205B
:1043F00005F03BF8054B80221A604FF480721A607A
:1044000038BD00BF2C0A00105004001058C009200D
:1044100070B5274B04461A7832B11B78012B46D170
:10442000402540F2615602E040F26146292547F6F8
:10443000FF710D2004F06BFF42F62231122004F0D0
:1044400066FF41F24B21142004F061FF3146202029
:1044500004F05DFFA1B22C2004F059FF210C154C93
:104460002D2004F054FF21880220013989B204F084
:104470004EFF2946032004F04AFF208880B202F054
:10448000C5FE02F05DFF04F0E9FF4206FBD56120A6
:1044900004F0EBFF04F0E2FF4307FBD5622004F0D9
:1044A000E4FF054B80221A604FF480721A6070BDE1
:1044B0002C0A00105004001058C00920F8B5074617
:1044C0000E4602F0C3FD1D4D044620B96B7843F043
:1044D00004036B70F8BD042F07700ED140F6354110
:1044E000174A13681B0DC370164B12681B68C2F382
:1044F000130201FB0233436014E0AB78C3706B68B6
:1045000043602B89623B83700F4B1B7843720F4BC8
:104510001B780372288980B202F064FE0C4BA072F3
:104520001B78E3723222314604F10E0005F054FE8E
:104530006B780120637000236B70F8BD2C0A0010AB
:1045400054120010084000403A12001038120010B7
:10455000D616001010B5044C606004F0DFFD6081D9
:10456000000C208110BD00BF5004001010B5642065
:1045700004F07BFF04F072FF00F0040000F0FF0481
:104580000028F7D1214B80221A6010214FF480724D
:104590001A6043F8201C43F8202C022243F8202CF8
:1045A00002F0A6FE02F0BCFF02F090FE02F0B6FDA3
:1045B00040F68911164B174A9C72DC7211809E21BD
:1045C0009C81A2F8501040F66211DC81A2F85210D2
:1045D0009C705C601C811C745C705C749C74DC74EA
:1045E0001C751C704FF41663A2F8543040F6B313D8
:1045F000A2F85630E22382F85830074B0020002101
:10460000C3E90001C3E9020110BD00BF5CC009207D
:104610002C0A001050040010501700102DE9F0472C
:104620003B4E3C4F30883C4C80B202F095FB002260
:104630001346385C195D0133C9071F2B41EA52024A
:10464000DFF8D4C0F6D174681CF80310C90741EA3A
:104650005202A24255D1DFF8C49000244FF07F08E7
:104660004FF0000E754603EBC40A05EB0A026244E4
:10467000032C12F81F2C09DD391891F8281001308D
:104680004A40B0FBF8F1C1EBC111401A02FA05F142
:10469000013541EA0E02082D5FFA82FEE5D1D9F814
:1046A00000201E4D02F804E001342E2CD8D173698D
:1046B0005BB929680120FFF701FF194B10221A602E
:1046C000184B28689B6998471FE02B685C79104B52
:1046D000296804F03F04A21C0431186902F0C0FBF1
:1046E0002A6804F10803D35C2968E21D8A5C296802
:1046F0000634095D120242EA03430B43984204D197
:10470000D7E70133B3F5D87F9ED10120BDE8F0870C
:104710005004001028A30000B4130010B0130010C0
:1047200038C009202C0A001038B5584B05461A7EAF
:104730001C46022A13D103221A76554A1268DA61FE
:104740005A8C013A92B21A8400229A84DA62514B4E
:10475000DA7C002A00F099802822DA6138BD032A29
:1047600003793BD1E26A03F00303A2B1A28C218E4C
:1047700092B291420FD1464A1268E261628E62841F
:10478000013A92B2228494F8342084F82620E28EF2
:1047900022850022E262032B77D1AB79002B74D102
:1047A000EB7984F834306A7A2B7A03EB0223E386C0
:1047B000EA7AAB7A03EB022363866A7C2B7C03EBF9
:1047C0000223A28C9BB292B223869B1A47F6FE72FA
:1047D00093425ADC2D4B0122DA6238BD012A54D1B2
:1047E00003F00F03052B50D14379222B4DD1427F8B
:1047F000037F43EA022340F67A42063B9BB2934290
:1048000043D8A36C3BB9022323760023636105F1EF
:104810001101184611E00622811804F13C0005F050
:10482000A9FC0028EFD0062205F10C0104F13C00A0
:1048300005F0A0FC0028E6D038BD11F8012F9A4001
:104840000833202B40EA0200F7D1FFF783FEEB7D0F
:10485000287E1B0243EA0043A87D1843E06004F071
:104860005DFC6B7E206184F82630AB7E23856A7FF9
:104870002B7F43EA0223638495F82730012203F05B
:104880001F03A3766376034BDA7238BD5004001021
:10489000541200102C0A0010F8B50E4615461C469E
:1048A000462800F24583DFE810F0010149004E0080
:1048B000520057005A005F006200640068006D00FB
:1048C000C200C90006017B007600800085008800D8
:1048D0008D009500BA00BC00BE00FF000301430339
:1048E00008019900A000AA00A800AC003101240131
:1048F0004E01510155015901A301DC01F7013802B4
:1049000047025202410356025B02610268027602CC
:10491000E001EC018402BE024001C80243038C02A4
:1049200038033C03C501D801040243034700A30236
:104930002201B3020B023403002347E29D4B012006
:10494000987400239BE19B4B02229A7269E29A4B76
:104950001B68C3F34003FFE00A88022315E0964B6F
:104960001B68C3F30013F7E00A8810230DE0924B95
:1049700024E00A884FF4807307E08F4B1B68C3F371
:104980004023E9E00A884FF400730AB18B4A00E043
:104990008B4A1360CAE22146104604F04BFEC5E282
:1049A0002146104604F060FEC0E2864B1B68C3F34C
:1049B000C013D1E00A88802307E0824B1B68C3F351
:1049C0000023C9E00A884FF480730AB17E4AE0E709
:1049D0007E4ADEE70322774B9A74A7E2052004F0B3
:1049E0008DFC00F007002870D2E10988072900F249
:1049F0009F8241F008010520E5E10522EBE7062250
:104A0000E9E7734B1A782A705A786A709A78AA7014
:104A1000DA78EA701B792B710523236086E2002285
:104A2000D9E7644B97E00A78624B1A707EE2694BD3
:104A30001A882A701B88C3F307238FE10A8840F67F
:104A4000EA215C4BDA81DA8992B28A4204D90122E6
:104A50009A7240F6621215E000229A7240F6DC0269
:104A6000D98989B2914240F6E92184BFDA8992B2AC
:104A7000DA81DA8992B28A428FBF40F6EA224D4A41
:104A8000D28992B2DA81D989524A89B2A2F85210F7
:104A90005B7C4848092B00F04982C3899BB2138094
:104AA0000023C381108880E104F010FE0023B4E7E6
:104AB000494A4A4B1A600B228DE70A886FF400605E
:104AC0001318B3F5806F80F033824B886FF4006168
:104AD0005918B1F5806F80F02B829A4200F228823B
:104AE0003C49A1F85420A1F85630042298E10F2245
:104AF00096E10B88B3F5807F00F21A82354AC3F144
:104B000036035BB282F85830072289E10023137024
:104B10005370334805F0D6FBC6B2A8703246304910
:104B2000E81C05F059FB03360BE02E4805F0CAFBE4
:104B3000C6B205F8010B32462A49284605F04CFB5F
:104B400001362660F2E10120107022E10A88264B2E
:104B50001A7028E1244B1B782B7019E1234C00229A
:104B60000023C4E90023C4E902236F1E0026324655
:104B700017F8010F002105F061F9D4E90023083688
:104B800010431943402EC4E90001F0D10735002637
:104B9000324615F8010F002105F050F9D4E902233F
:104BA000083610431943402EC4E90201F0D101F048
:104BB0008BFFBBE12C0A001034C0092038C009204B
:104BC0003CC0092054C0092058C009205CC00920FD
:104BD000101700105004001021BB05431C000010EA
:104BE000E0AB0000CFA30000D81600105017001053
:104BF000AA4B00221A60E81C6A1E19680902196093
:104C000012F8014F1968904241EA04011960F4D189
:104C1000A34B02229A72A34A01204FF080511874CC
:104C2000116029796A7942EA01229F490A800822A3
:104C30009A74F8BD9A4B05229A720E229A74002338
:104C400019469A4A995401330A2BFBD1984B0022FA
:104C50001A70984B01201870F8BD914B0120D87242
:104C6000F8BD1268944B1A609DE0904A0023E95CFD
:104C7000995401330A2BFAD18E4A01201070236017
:104C8000F8BD00231946894A995401330A2BFBD1F8
:104C9000884A00211170C0E6874B551E1968002311
:104CA00021FA03F20833202B05F8012FF8D1042351
:104CB000B3E612786B7843EA02237B4A138035E12E
:104CC0007E4B10785278198842EA00220A4412B2C8
:104CD0001A801A887A4812F4004F7A4A07D01B8843
:104CE0004FF4A0715B429BB291FBF3F30AE0198889
:104CF00009B200290DDD1B884FF4A0711BB291FB96
:104D0000F3F39BB2138013889AB26F4B1B68134462
:104D100001E000231380036008E10B886B4D002243
:104D2000AB635F4B2260DA7203229A7209229A7493
:104D300002F07EF9288838E06449551E00234A684D
:104D4000DA400833202B05F8012FF8D1AFE71068BF
:104D5000FFF700FCD9E01323137037236B702EE0AC
:104D60005A4B5B69003318BF0123F5E60B88574A9D
:104D7000003318BF01235361D8E002F081F90146E6
:104D800028B14022284605F027FA402345E628703E
:104D900001202060F8BD424B002222609A720A2254
:104DA0009A7402F045F9494B188880B202F02EFA45
:104DB000BCE0087804F0A2FA030A2B7068700223A2
:104DC0002BE64988307804F0A2FAAFE032885C1C08
:104DD000DBB2934280F0AA8003EB4303EA185178D8
:104DE0009278E85C42EA012104F091FA2346EDE76B
:104DF0000026F7B2384604F081FA0136030A2E2E57
:104E00002F706B70A87005F10305F2D1872304E6BB
:104E1000927929460732D2B22D4805F0DDF91022E9
:104E20001F4B9A7442E61E4C0622294604F12000CC
:104E300005F0D2F90C23A37478E09479302C75D85E
:104E400074B9224D2146062205F13C00AC64FFF7FF
:104E5000D1F90622214605F14200FFF7CBF965E0C2
:104E60001C4C931D224613F8011DAB4202F8011F92
:104E7000F9D1002106221848FFF7BCF91349052390
:104E8000FF26A879082829D9CA1882F84260AA7989
:104E9000013B083ADBB2AA71F3E700BF48120010E9
:104EA0002C0A001098C00920A21300103B12001019
:104EB00039120010D716001054120010D41600102A
:104EC0000C170010501200104C120010500400106B
:104ED000581200108B0400109204001060B10021E1
:104EE0000A460131CDB25208A84242F08002F8D8F9
:104EF00010490B4483F842200F4A14F8011FA3798C
:104F0000A24203EA01032370F7D10A4B01209864FF
:104F1000F8BD0A4B01209862F8BD0A78074BDA7495
:104F200004E0064B0D229A740A781A750120F8BD28
:104F30000020F8BD50040010900400102C0A00104E
:104F40002DE9F04106460F46904602F07FF80F4DDE
:104F5000044628B96B7843F004036B70BDE8F08118
:104F60000B4B06701B880026623BC670C0F804809D
:104F700083708672C672322239460E3005F02CF9E3
:104F80006B786E7063700120BDE8F0812C0A001010
:104F90005004001030B54FF040231B68D9077DD571
:104FA0003F49404B08681A68024401321A600022E7
:104FB0000A603D4A1868947A114614B1947A012C1B
:104FC00005D11A68520638D10122CA7235E0917AA9
:104FD000022903D11968CD072FD42CE0917A032937
:104FE0001CD132490C7E032C27D1CC69001B8407CD
:104FF00023D1088C013880B20884088C80B240B973
:105000000120D0728A8C024492B28A844A8C0A842B
:1050100013E0274A4FF4807111600EE0917A052960
:105020000BD12249B1F8501088B2224909681C6896
:105030000144A14201D10121D1721F491F4A0868D0
:10504000B8B1108880B2A0B91C680868844210D337
:105050001B481C4D008800044CBF41F6690001202C
:105060001080186828601848008884B22868204496
:10507000086040F63440118889B2814282BF1968C5
:1050800002311960138811499BB203F634430B6057
:105090000023138001224FF040231A6030BD00BF6F
:1050A00048120010541200102C0A00105004001076
:1050B0003CC00920301200100C170010A213001081
:1050C000D41600104C12001050120010184000406E
:1050D000084B04221A60084B4FF080521A60074BAD
:1050E00001221A70064B9A7A022A04BF00221A740F
:1050F000704700BFAC8002409CC009204D170010D3
:105100002C0A001010B5284B5A7C012A11D05A7C69
:10511000082A0ED05A7C042A0BD05A7C092A08D0BF
:105120005A7C0A2A05D05A7C0C2A02D05A7C0F2AB3
:1051300039D11E4A1268D10735D51D4A1268D207E7
:1051400026D540F635441B4A012111609A7A1A4847
:10515000022A02BF194A4FF080511160184A0168B3
:105160001268C1F3130104FB01225A600268C2F302
:1051700007529A70134A128892B21A81124A134B3C
:10518000116818681060124A1960136801331360BF
:10519000104B1B68DB0706D50F4B01221A600F4A24
:1051A00013680133136010BD2C0A0010004000503A
:1051B00004400050084000505412001098C00920CC
:1051C000084000405004001094120010B01300106A
:1051D000341200100C4000501040005048170010CE
:1051E00008B5114B5B7C092B02D102F057FB01E0A3
:1051F000FFF788FF0D4B1B68190614D50C4B1B6875
:105200001A0605D50B4B80221A600B4B00221A6040
:105210000A4B1B681B0606D5094B80221A60094BF6
:1052200002221A60FEE708BD2C0A00100040005060
:105230000440005008400050901100100C400050F5
:105240001040005038C009202DE9F04F91B00546BC
:105250000C4690460DF103070DF1FF32E8B2013222
:105260002D0A0721002300F001068E40334311F17F
:10527000FF31DBB24FEA5000F5D297421370EDD107
:10528000584E594F30880DF1040980B201F064FD89
:10529000C646385C4FF07F0AC8EB0E039C421CD90F
:1052A0001EF801CB07220023391891F828100CF0C2
:1052B000010B01308BEA0101B0FBFAFB9140CBEB13
:1052C000CB1B0B4312F1FF32CBEB00004FEA5C0C1F
:1052D000DBB2E9D209F8013BDEE747F6FF710D20AA
:1052E00004F015F842F62231122004F010F841F2D1
:1052F0004B31142004F00BF840F60141202004F05B
:1053000006F83188022089B204F001F80B2105204B
:1053100003F0FDFF4021032003F0F9FF14212320B7
:1053200003F0F5FFED074CBF4AF6AA2145F25551AF
:105330002D2003F0ECFF082003F0E0FFC0F308018C
:105340000434064641F49C410820E4B203F0DFFF38
:1053500004F084F84006FBD5612004F086F804F0E0
:105360007DF84107FBD5214B4FF480721A608022F3
:105370001A620E2003F0C2FF00F01F000F28F8D1C0
:10538000632004F072F81A4F0025A5420DD23B6845
:105390005A07FCD4601BC0B210280DEB050128BFD2
:1053A000102003F0C7FF1035EFE70E2003F0A6FF33
:1053B00000F01F000F28F8D10E4B4FF480721A60D6
:1053C000642004F052F804F049F84307FBD40A4B78
:1053D00080221A603146082003F099FF11B0BDE821
:1053E000F08F00BF5004001028A3000038C009202F
:1053F00054C009203CC009205CC0092008B547F60C
:10540000FF710D2003F083FF42F62231122003F0DA
:105410007EFF42F24B31142003F079FF40F6014148
:10542000202003F074FF0B21052003F070FF4021C2
:10543000032003F06CFF04F011F84206FBD5612055
:1054400004F013F804F00AF84307FBD5084B4FF4B7
:1054500080721A6080221A620E2003F04FFF00F063
:105460001F000F28F8D16320BDE8084003F0FDBFFE
:1054700038C00920F8B5614C0023E372604B614AE3
:1054800019681160A27A52B9022003F037FF5E4B0F
:105490001B889BB2013B984240F08380F8BDA27A02
:1054A000012A33D1584A594B10461D78584B594F51
:1054B0001E784FF0080E138820339BB21380138898
:1054C0009BB2B3F51B6F81BF13884F3B9BB2138018
:1054D000002D66D0002E64D0038801889BB2A3F60D
:1054E000621393FBFEF389B217F803C04A4BA1F68F
:1054F00062110B40002BBEBF03F1FF3363F00703C3
:1055000001334CFA03F3DB07D5D54AE0A27A052A2A
:105510002ED13D4A3D4B10461D783E4E082713883C
:1055200020339BB2138013889BB2B3F51B6F81BFEE
:1055300013884F3B9BB213804F2D32D003880188D4
:105540009BB2A3F6621393FBF7F389B216F803E05C
:10555000314BA1F662110B40002BBEBF03F1FF33AC
:1055600063F0070301334EFA03F3D907D7D418E0E9
:10557000A27A022A05D1186801F04CFB224B188050
:105580000FE0A37A032B05D11F4D281D01F014FC59
:10559000288006E0A37A042B01BFA3891A4A9BB294
:1055A0001380642003F061FF03F058FF4207FBD42F
:1055B000607C154DC0B22988022817BF01F1FF3168
:1055C00089B289B2022003F0A2FEA37A1BB1288817
:1055D00080B201F01BFE612003F047FF03F03EFFA5
:1055E0004307FBD501232374637C022B0CBF63208C
:1055F0006220BDE8F84003F038BF00BF2C0A00105D
:105600005412001030120010500400103912001013
:10561000D71600103B120010070000802DE9F74F4D
:105620004D4D10234D4F2B6001F002FDB84603F0A5
:10563000D9FD01F0D5FE01F053FFFEF797FE01F012
:1056400015FE474CA37CA246012B7AD110232B6078
:1056500001F064FDDFF80CB16FF07F063B68414A52
:10566000DFF820911BBB062003F048FE9BF80030BA
:1056700040F307205BB116F1800F08D13A4B93F944
:1056800000603636B042B8BF304646B2304601F010
:1056900061FDD9F8000001F02DFD9AF80B3013B12F
:1056A000FFF7E8FEDAE74FF480732B60D6E72F4B65
:1056B00010212F4E196033681BB1637843F0020349
:1056C0006370D8F80030012B82BF637843F0010388
:1056D0006370217C224B29B1597841F02001597027
:1056E00000211974234B0192188880B201F052FDF9
:1056F000019A137813B9204B1B782BB1637843F0D0
:105700000803637000231370174B1C4A93F9003091
:1057100092F9002035339342B8BF63784FF0000010
:10572000BCBF43F010036370154B1968FEF7C6FE4B
:10573000D9F8000001F0DEFC0023C8F80030336027
:105740007FE7A37C082B81D001F0EAFE03B0BDE81F
:10575000F04F01F0A3BD00BF3CC00920341200107F
:105760002C0A00104D1700104C17001038C00920EB
:105770004817001050040010A01300103812001039
:10578000B0130010541200102DE9F04385B0964B71
:105790000027D3E90245002304F0010213434AF62F
:1057A000AA234FEAD57645F2555808BF9846002FF0
:1057B00008BF012EE0B20CBFAA265526FEF7C4FD95
:1057C0008DF80000C4F30720FEF7BEFD8DF8010040
:1057D000C4F30740FEF7B8FD8DF80200200EFEF777
:1057E000B3FD8DF80300E8B2FEF7AEFD8DF80400BE
:1057F000C5F30720FEF7A8FD8DF80500C5F30740A7
:10580000FEF7A2FD8DF80600280EFEF79DFD8DF82F
:1058100007003046FEF798FD8DF808007720FEF768
:1058200093FD8DF809006620FEF78EFD8DF80A00C5
:105830005520FEF789FD8DF80B004420FEF784FD0E
:105840008DF80C003320FEF77FFD8DF80D0022202F
:10585000FEF77AFD8DF80E001120FEF775FD3C462F
:105860003B468DF80F0048FA03F2C3F10F0102F036
:1058700001028A4001331443102BA4B2F3D147F63E
:10588000FF710D2003F043FD42F62231122003F098
:105890003EFD41F24B31142003F039FD40F6014149
:1058A000202003F034FD21462C2003F030FD0021A0
:1058B0002D2003F02CFD4D4B022019884C4C89B251
:1058C00003F025FD0B21052003F021FD23780BB902
:1058D000292103E02378012B1DD14021032003F06F
:1058E00016FD01F02DFD03F0B9FD4506FBD5612045
:1058F00003F0BBFD03F0B2FD4007FBD53D4B80221A
:105900001A600E2003F0FAFC00F01F000F28F8D1F7
:10591000632003F0AAFD1421232003F0F8FC0820E3
:1059200003F0ECFC344EC0F30801074641F49C41FF
:10593000082003F0ECFCB1460025A37C022B48D1E3
:10594000DFF8C4806D0840F6C9033268B5EB520F2A
:1059500005D1E27A002AF8D0FFF78CFDF3E7D8F8FA
:1059600000209A42F5D9254B4FF48072D9F80050A7
:1059700069461A60102003F0DDFC0E2003F0BEFC27
:1059800000F01F000F28F8D11D4B4FF480721A60F1
:10599000642003F06AFD03F061FD4107FBD403F0CE
:1059A0005DFD4206FBD5612003F05FFD03F056FD6F
:1059B0004307FBD50E2003F0A1FC00F01F000F28C9
:1059C000F8D1632003F051FD0B4B186801F092FBF6
:1059D000B3E70C4B80221A603946082003F097FC8D
:1059E00005B0BDE8F08300BF501700105004001050
:1059F0002C0A001058C009205412001038C0092089
:105A00003CC009205CC009200840004008B50F4890
:105A1000FEF7A0FD0E4B0F4ADA600F4A1A61002212
:105A20001A845A619A84DA641A765A769A76DA6116
:105A30005A8483F826201A85DA621A865A8683F8F1
:105A40003420DA86054BDA7208BD00BFD6BE898ED7
:105A50005004001055555500AAAAAA002C0A00109F
:105A600010B5064C4FF4847200212046FEF7C2FBAD
:105A70004FF0FF33C4F8003110BD00BF9812001082
:105A80002DE9F84F6D4C0123804623706074FFF7B9
:105A9000BDFF6B4B4FF080726A4E1A606A4F102345
:105AA000336001F0C5FAB94603F09CFB01F098FCA5
:105AB00001F016FDFEF75AFC01F0D8FB0025A37C8F
:105AC000984540F0A9805D4BDB899BB2CBB1642047
:105AD00003F0CBFC03F0C2FC4207FBD45B4B02207B
:105AE0001988013989B203F012FC612003F0BDFC72
:105AF00003F0B4FC4307FBD5622003F0B6FC00239F
:105B0000E381E37A13B1FFF7B5FC02E04FF4807351
:105B100033601023336001F001FB6FF07F0B3A68B4
:105B2000DFF848A1D2B9DAF80020BAB9062003F0AC
:105B3000E5FB474A40F30720127862B11BF1800F62
:105B400009D1444B93F9003036339842B8BF184618
:105B50004FFA80FB584601F0FDFAE0E7DAF8003032
:105B60001BB1637843F002036370D9F80030002B57
:105B70005ED03B68012B82BF637843F00103637002
:105B8000324B188880B201F005FB314A137813B903
:105B9000314B1B7833B16378022543F008036370FF
:105BA000002313702B4B2D4A93F9003092F90020FB
:105BB0003533934205DA6378022543F010036370AE
:105BC00000E0ADB326494FF4C872A1F5C87004F0E7
:105BD00003FB013DDFF88CB0DFF894E0EDB2002369
:105BE00003F132000BEBC0000021DEF80020D25C94
:105BF000DEF800C0D20942541CF8032001315200E3
:105C0000D2B208290CF80320EFD10133322BE7D1AF
:105C1000E36A1448984758B9134B4FF080721A60E2
:105C2000FEF7A4FC01F07CFCBDE8F84F01F036BBA8
:105C30000023C9F80030CAF8003040E72C0A0010F1
:105C400000E100E03CC009203412001050040010B4
:105C50004D1700104C170010A01300103812001040
:105C600044150010B413001080E100E04817001044
:105C7000B01300102DE9F04F93B0A74DA74C0123AE
:105C80002B702376A64B4FF08072A64E68741A6074
:105C900010233360814601F0CBF903F0A3FA01F041
:105CA000E3FB01F01DFC606803F038FADFF87CB21A
:105CB000FEF7AEFB0096AB7C994540F09E81964B7B
:105CC000DB899BB2C3B1642003F0CFFB03F0C6FBBA
:105CD0004107FBD421880220013989B203F017FB68
:105CE000612003F0C2FB03F0B9FB4207FBD5622041
:105CF00003F0BBFB0023EB81009A1023136001F03B
:105D00000DFA8949844A894B1B6833B90B6823B95A
:105D1000EB7A13B9937C9945F5D0062003F0EEFA9F
:105D2000834B40F307201870824B7B4A1870AB7C82
:105D3000994540F06281DFF8F0A1DAF8003057466B
:105D40001BB1537843F002035370EB7A03F0FF0169
:105D5000002B40F0A580DBF80030002BABD03422C4
:105D600005A8FEF747FA2088636880B2059300F023
:105D7000F3FF30264643DFF8E88108EB0603019382
:105D80006D4B18785A7893F802E01204D97842EAF9
:105D90000060084340EA0E20029303F0BFF958F870
:105DA00006607040C0F3052606F10208B8F1270F1F
:105DB000069075DC0836B2080B2A029B01D15F4AB7
:105DC0000BE05F4903EB82030A689A4208D23A6803
:105DD000002AF9D004E03B6813B91368DB07FAD452
:105DE000584A61201368042723F00103136003F06D
:105DF0003CFB514A7B1CD05D12F803C0BB1C12F85F
:105E000003E0FB1CD35CB91043EA006040EA0C409D
:105E100040EA0E200392029103F080F9029912AB3E
:105E200003EB810E019B043753F821302C2F80EABD
:105E300003004EF8300C039ADCD16369DBB9424BA6
:105E400010221A6005A8AB699847404B4FF0807646
:105E50001E6005A90120FEF731FB40F63541304BAD
:105E60001E603B4B1A683B4BC2F313021B6801FBDD
:105E70000233E36414E0294B4246186906A900F096
:105E8000EFFF12AB1E44984416F8343C18F82F2C40
:105E90001B0443EA022318F8302C13439842CED057
:105EA000612003F0E2FA274A2B491368183A23F0DD
:105EB000010393611368580701D50B68FAE740F6B0
:105EC0003541234B1A68234BC2F313021B6801FBB5
:105ED0000233E16C227E8B4238BF03F14343A2F1CF
:105EE000020238BF03F5A003012A03D81B4A5B1A3C
:105EF000934202D8EB69012B4ED1FFF787FD009842
:105F00004FF480710023EB610160E97C024A0129B2
:105F100028D1D374937470E02C0A00105004001040
:105F200000E100E03CC009204817001034120010C6
:105F3000381200103A1200101517001010410050CE
:105F4000044100502400034038C0092080E100E0F3
:105F500054120010084000400800034080F0FA028C
:105F600014A40000B9F10A0F47D00123642023765E
:105F700003F07BFA03F072FA4207FBD4B4F8523014
:105F80009BB223B1234BB3F852309BB201E040F6F1
:105F90006213238001232B6361892C2003F0B7F95E
:105FA00021892D2003F0B3F9EB7A0BB1FFF762FAE8
:105FB000EB69194E002B05DDFFF720FAF369013B71
:105FC000F36114E001F050FA01F08AFA336B3BB14F
:105FD000606803F0A3F8FEF71BFA0023336306E0C2
:105FE00003F03CFA4307FBD5622003F03EFA00239E
:105FF000CBF80030CAF800305DE6084B4FF08072F5
:106000001A60FEF7B3FA01F08BFA01F047F913B00A
:10601000BDE8F08F500400102C0A001080E100E071
:1060200070B58EB015460C4606463222002101A8F6
:10603000FEF7E0F8312D2A46214628BF31220DF126
:1060400005008DF8046004F0C7F801A90520FEF7EB
:1060500035FA0EB070BD000038B540F66412314814
:10606000314C03889BB293420DD140F635412F4B02
:106070001A682F4BC2F313021B6801FB02336363E0
:1060800040F6661348E040F6661103889BB28B42E7
:1060900044D140F63541254B408C1A68244BC2F35D
:1060A00013021B6801FB0233626B1E4993423CBF23
:1060B00003F1434303F5A0039B1A41F66A0202FB76
:1060C000003343F2D4024243B3FBF2F3242B21D832
:1060D000184A4008134493F86C3825258B76013311
:1060E000088493FBF5F005FB103300224B76032068
:1060F000114B8A84CA61E2724A61087601221A3120
:10610000A361A072FFF78CFFE37C53B1064B2822FA
:10611000DA6138BD40F66413A38100E0A281012357
:10612000E37238BD500400102C0A00105412001005
:106130000840004028A300002947000038B540F679
:106140003544244B244A1B681268C3F3130304FB31
:10615000032446F2A712214DAB6B9C423EBF04F1D3
:106160004344A4F56514A4F5A254E31A934230D92C
:106170001B4A1B48D2F800118B4238BFC2F80031CD
:10618000D2F80031174A03F5613303F25233B3FBFF
:10619000F2F315499BB24A8C9A4215D1D0F80431DA
:1061A0000133052BC0F8043112D1104B0222AB6130
:1061B00040F66413AB810423AB72223101231046F5
:1061C000EB72FFF72DFF03E04B840023C0F804318E
:1061D000AC6338BD54120010084000402C0A001077
:1061E00098120010A40E070050040010596000001F
:1061F00070B5184D6B695BBB0379012B28D14479CD
:1062000034BBC379027A86791B0243EA0243011D3B
:10621000022243EA060000F0F9FD23462246E86028
:1062200020FA02F1C2F1170401F001010132A1408C
:10623000182A43EA0103F3D12B61074A074B0120D7
:1062400068619A6106490322BDE87040FFF7E8BE25
:1062500070BD00BF500400103D6100002C0A00100A
:106260005C04001030B51349002351F8332001EBD2
:10627000C30482420F4A03D163680133636030BDB7
:106280000133202BF1D14FF0FF310C46002302EBFC
:10629000C3056D68A54201DB002C01DA19462C46C6
:1062A0000133202BF3D142F83100012302EBC1026C
:1062B000536030BD981200102DE9F04F95B0402288
:1062C0008046002104A8FDF795FF644D0123DFF807
:1062D00090918DF810308DF820308DF823308DF8A6
:1062E00030308DF832308DF840308DF842308DF8F6
:1062F000433000242888594F80B200F02DFD584EBD
:1063000004A919F80030002208194FF07F0EF11887
:1063100010F802C091F8281001338CEA0101815471
:10632000B3FBFEF10132C1EBC111102AA3EB010353
:10633000EDD11034402CDDD1DFF8409120244D46C2
:10634000484BEE460FCB8DE80F0000239C4608EB30
:10635000040004AA02EB0311002210F802B011F8A5
:1063600002A0D34502D04EF823C002E00132102A29
:10637000F3D10133042BECD100235EF823201AB9AA
:106380000133042BF9D143E038884FF07F0A80B203
:1063900000F0E2FC325C00204FF0000CE64604EB1B
:1063A000C00B0EEB0B034344032813F8203C09DD1C
:1063B000B11891F8281001324B40B2FBFAF1C1EB51
:1063C000C111521A03FA0EF30EF1010E43EA0C0C3E
:1063D000BEF1080F5FFA8CFCE3D1D9F8003003F866
:1063E00000C001300A28D7D12B68DB782A68927860
:1063F000296812044878296842EA036309780B4344
:1064000043EA0020FFF72EFF29680120FEF756F827
:106410000134B4F53C7F93D1134A002302EBC3014E
:106420004968032912DD104A002452F83300FEF7B0
:1064300091F80E4B0E4A2046DA620E4A0E499A61D6
:1064400004227C61FFF7ECFD204603E00133202BA2
:10645000E4D1012015B0BDE8F08F00BF500400105A
:1064600028A30000BCAB0000981200102C0A0010FA
:106470001D460000F161000054040010B01300102C
:106480002DE9F041184D194E2F46AB7C0A2B28D12F
:10649000FFF7E6FA3388DFF8548013F0010F1CBFD2
:1064A00040F688133380D8F8483043B9308880B23A
:1064B00000F0ACFE0E4B0A20FB62FFF7E1FABC7C59
:1064C000E4B20A2C0DD104220A490020FFF7A8FDEE
:1064D000094B2046AB610023C8F81430FFF7CAFB14
:1064E000D3E7BDE8F08100BF2C0A00105004001073
:1064F000B962000054040010F16100002DE9FF4171
:106500006A466C46264B03F108061546186859681A
:10651000083303C5B3422A46F7D118689B88286020
:106520002048AB800DF101020523195C13F1FF3304
:1065300002F8011FF9D21C4B0B222146186900F00A
:106540004AFC030A8DF80B00000C8DF80C308DF816
:106550000D0000F0F5FE154E154DB37C0C2B1BD134
:106560004FF080784FF08067C5F8008022462F609A
:106570000E211048FEF768FE0F4B104AC3F800804A
:106580001F60136823F07F4303F5A073116821F0A7
:106590007F418B42FAD8E0E704B0BDE8F08100BF4C
:1065A000CCAB00004C0A0010500400102C0A001064
:1065B00080E100E0D6BE898E00E100E054120010B8
:1065C000F0B58BB02D2002F099FE030A8DF805007E
:1065D0002C208DF8043002F091FE030A8DF806306D
:1065E0008DF8070000F024FD00F0AAFE02F036FF4F
:1065F0004106FBD5612002F038FF02F02FFF420771
:10660000FBD5144B10221C461A60134A80211160DE
:10661000124F4FF48071124E116002250E2002F0CD
:106620006DFE00F01F000F28F8D1622002F01DFF60
:106630003D6002F013FFC306FBD502A925602020B0
:1066400002F0C2FE01A90020FDF738FF306800F01B
:1066500051FDE3E738C0092058C009203CC009209B
:106660005412001008B5202002F048FE08B1FFF7D0
:10667000A7FF034B03221A70BDE80840FEF7CEBF08
:106680002C0A00102DE9F041354D10232D206E7C91
:106690006B7402F033FE80462C2002F02FFE314C4A
:1066A000074621882D2002F032FE61882C2002F05E
:1066B0002EFE5721032002F02AFE41F24B31142016
:1066C00002F025FE40F66171202002F020FEA18834
:1066D000022002F01CFEE1790520F6B202F017FE5E
:1066E00002F0BCFE4106FBD5612002F0BEFE02F0C6
:1066F000B5FE4207FBD51C4B4FF480721A60802216
:106700001A620E2002F0FAFD00F01F000F28F8D1E7
:10671000A079164902F00EFE632002F0A6FE0E20BC
:1067200002F0ECFD00F01F000F28F8D1104B4FF4E1
:1067300080721A60642002F098FE02F08FFE430718
:10674000FBD40C4B80221A6041462D2002F0DFFD65
:1067500039462C2002F0DBFDAE74BDE8F08100BFAD
:106760002C0A00105812001038C0092060120010C6
:106770003CC009205CC009202DE9F04F8FB03F4B91
:1067800010221A6000F054FC00F0DAFD3C4B80222D
:106790001A6042F62231122002F0B9FD41F24B316B
:1067A000142002F0B4FD40F20111202002F0AFFDF0
:1067B0002921032002F0ABFD02F050FE4106FBD57B
:1067C00002F04CFE00F0040000F0FF040028F7D1B6
:1067D000DFF8B480DFF8B490C24699F81230042B89
:1067E00046D1B8F85450DFF8A8B0ADB2BAF8563078
:1067F0009BB2AB42F1DB691E022089B202F087FD39
:10680000612002F032FE02F029FE4207FBD5622031
:1068100002F02BFE4FF4FA730093009E013E0096A7
:10682000002EFAD104EB44070EAB1F4406202B0ABE
:1068300007F8343C07F8335C02F060FD0134E4B241
:10684000000A102C07F8320C08D101A90420FDF72A
:1068500035FEDBF8000000F04DFC3446642002F009
:1068600004FE02F0FBFD4307FBD40135ADB2BDE7EA
:10687000044B10221A600FB0BDE8F08F38C0092019
:1068800058C009203CC00920500400102C0A0010F8
:1068900054120010F0B585B0434B802218689B88D5
:1068A0000290ADF80C30414B42F622311A601220B2
:1068B00002F02DFD41F24B31142002F028FD40F290
:1068C0000111202002F023FD2921032002F01FFDE9
:1068D000F121062002F01BFD02F0C0FD4106FBD5B0
:1068E00002F0BCFD00F0040000F0FF040028F7D126
:1068F0002F4F304D304EBB7C072B53D104AB03EBF5
:10690000440333F8081C0220013989B202F0FFFC6D
:10691000612002F0AAFD02F0A1FD4207FBD5622032
:1069200002F0A3FD4FF4FA730193019B013B019325
:10693000002BFAD1062002F0E1FC204B40F30720A7
:1069400093F858305BB298420CDD012C07D003D38A
:10695000022C13D1346011E04FF4807300E0102357
:1069600033600BE0012C07D003D3022C06D12C603E
:1069700004E04FF4807300E010232B600134032304
:1069800094FBF3F303EB4303E41A0D4BE4B21868F2
:1069900000F0B0FB642002F068FD02F05FFD4307E9
:1069A000FBD4A8E705B0F0BDDAAB000058C0092061
:1069B0002C0A00103CC0092038C0092050040010E7
:1069C0005412001008B502F00FFE00F0BFFC38486A
:1069D00000F008FB374DFDF7C9FD00F0D5FC0020A5
:1069E00001F0D4FF3449354802F02CF82C46344EDF
:1069F000306800F07FFBAA7C6B7C9A42F8D0AB7CBD
:106A0000102BF5D8DFE803F0511116283D2F374041
:106A10001B1D220925430F494E00012002F098FB5F
:106A200002F0ECFDE4E70E2300E001236374FEF7BF
:106A3000F5FDDDE702236374FEF7A6FED8E7082321
:106A4000F4E70923637401F0C3F8D1E7FFF718FDF9
:106A5000CEE7FFF753FDCBE703231A4915486374CC
:106A600001F0EAFCC4E705231648637401F0D8FA84
:106A70000023A374BCE706231248637401F01EFCD4
:106A8000B6E7FFF779FEB3E7FFF704FFB0E70D23A2
:106A90006374207D01F03CFFAAE70F236374FFF7C6
:106AA000E1FDA5E7FFF7EEFDA2E7FDF75FFD9FE73C
:106AB000994800002C0A0010CFA30000EBAB0000A7
:106AC00054120010500400102DE9F043464B474A81
:106AD000002000211B68464DC2E900014F2400221E
:106AE000500090FBF4F104FB1101515501324F2A83
:106AF0003F48F5D13F4AC3F3C4511170C3F30715A2
:106B0000C3F3C7043C4AC3F3C34105F0100704F0C4
:106B1000080611703E44C3F3870103F0010EC3F36E
:106B20004702764401F00407374402F002063E446F
:106B3000324F05F008053E70314EC3F38827378089
:106B4000DE0906F040079E0906F020065B093E4478
:106B500003F0100333442B4404F00404234401F0F5
:106B60000201194402F00102264B0A441A70264B16
:106B70001B78002B36D000221346DFF890E012F885
:106B80000E40224E0025002154EA050CCFB201F13F
:106B9000010108D014F1FF3845F1FF3904EA080477
:106BA00005EA0905F0E701323B440A2ADBB2E6D1E7
:106BB000174A4F2513700023194693FBF5F205FB86
:106BC0001232D7B2FC08345D02F0070244FA02F236
:106BD000D20748BF4A1C03F1020344BF4754D1B255
:106BE0009E2BEAD1BDE8F08350170010A8130010C7
:106BF000B5170010B317001060170010B41700107D
:106C00006217001004180010D71600103B12001075
:106C100039120010F0B587B0C0F3D8054F2325F026
:106C20000F05B5FBF3F403FB1454404BC0F34002D3
:106C30001B78510183EA104303F01F038A1A5A405C
:106C40003B4B8EB21B783B4983EA5053097803EBE8
:106C500090034B4003F01F01374B02AF1B8883EAC0
:106C6000D010C0F30800002340FA03FE0EF0010E1E
:106C700003F807E00133092BF6D1002307EB030EDD
:106C800042FA03F0013300F00100052B8EF80900F1
:106C9000F4D1002341FA03F202F001020DF80320BF
:106CA0000133052BF6D125480D217B5C7BB10A5CB5
:106CB00006AB1A44224B0DF1180CCB5C12F818EC01
:106CC000634413F818CC02F818CC03F818EC11F14F
:106CD000FF31EAD2002213461DF803109940013318
:106CE0000A44052BD2B2F7D1164B4F201978A319BD
:106CF00011440B44B3FBF0F200FB1233124AD05C98
:106D0000124B1B786BB1124B1B78B5FBF3F203FBF4
:106D1000125232440A44B2FBF3F103FB11220D4B31
:106D2000985C00F6621007B0F0BD00BFB417001009
:106D3000B3170010601700106217001008AC0000B5
:106D400016AC000004180010B5170010D71600107C
:106D500039120010641700100223A0F6621090FB95
:106D6000F3F083B253B10B2B01D8013804E00C2BA4
:106D700006D0262B06D80238C0B2704725207047AF
:106D800026207047272070470A2803D8400000F6C5
:106D900064107047242803D8400000F6661070473E
:106DA000252806D0262840F67A1018BF4FF41B601D
:106DB000704740F66210704710B5437D0246184692
:106DC000FFF7E2FF917D25240B4493FBF4F104FBD4
:106DD0001133537510BD70B50B4620F07F405C1A1F
:106DE000944212DA13F8015B082485EA000616F0D3
:106DF000010F4FEA50001CBF80F45A0080F4C040DD
:106E0000013C4FEA5505F0D1E9E770BD70B5013A94
:106E1000002A14DB8E5C0724C50D400020F07F4360
:106E200046FA04F000F00100684018431DB180F4F8
:106E3000340080F4404014F1FF34EDD2E7E7002342
:106E4000194620FA03F2C3F1170402F001020133DC
:106E5000A240182B41EA0201F3D1084670BD0000A0
:106E600030B50C46074D20F07F40631A9A4208DD8A
:106E700014F8013B4340DBB255F8233083EA10207D
:106E8000F3E730BDAC040010F8B5054690B2FFF74B
:106E900063FF144E2944345C28464FF07F0E814234
:106EA0001ED000231D460778C5F1070206EB040C2F
:106EB0009CF828C047FA02F2013402F001028CEA81
:106EC0000202B4FBFEFCAA400135CCEBCC1C134300
:106ED000082DCCEB0404DBB2E6D100F8013BDEE781
:106EE000F8BD00BF24AC0000F8B50C460546C02232
:106EF00000212046FDF77EF90127681E0023043596
:106F000010F8012F03F1080612F001011BBF44F82D
:106F10002370D4F8BC1044F8231004EB010E1CBFFE
:106F20008EF89430013103F1010318BFC4F8BC108E
:106F3000252B4FEA520202D09E42E5D100E01E46C8
:106F4000A84201D03346DBE7F8BD51F8203043B901
:106F5000D1F8BC20B0FBF2F302FB1300014491F81E
:106F60009400704713B543881268ADF804308388E5
:106F70004078ADF80630054B1C680B4601A9A047C8
:106F8000431E5842584102B010BD00BF0C390010DA
:106F900070B586B06946044601A802F065FB9DF80D
:106FA0000410E1B90E4620460DF10505403415F8F0
:106FB000013B80F87D101A09092A03F00F038CBFEA
:106FC00057323032092B8CBF5733303380F87C2056
:106FD00080F87E3080F87F600430A042E7D106B0B0
:106FE00070BD000038B505460C4C02F015FC20467B
:106FF000FFF7CEFF204602F04DFE094B094A0A4931
:1070000002201D6002F0FEFB0849FF2002F02CFE6A
:10701000012002F09AFC002038BD00BFAC0800102F
:107020000C39001008380010656F0000CBAC000070
:10703000044B00214FF40052034819605960FDF7DA
:10704000D9B800BF680A0010081800100A4B196868
:10705000586801F07F0100F07F00421C02F07F02BF
:1070600091421FBF5A6801325A60044B14BF03EBB0
:1070700080100020704700BF680A00100818001038
:10708000084B18685A6800F07F0002F07F029042B7
:107090001FBF1A6801321A60034B14BF03EB801044
:1070A00000207047680A00100818001037B5054620
:1070B000FFF7E6FF0D4B044638B10146402282201F
:1070C0009D6002F073FC01200EE09A680849AA1A3C
:1070D0008A4208D9032202A901F8012D8220012247
:1070E0009D6002F063FC204603B030BD680A0010CA
:1070F000801A060038B50446822002F031FC820670
:10710000054602D42046FFF7D1FF6B0602D4204685
:10711000FFF7CCFFBDE8384002F0B0BC08B59E22B6
:1071200000210748FDF766F8064A00231370064A57
:107130001360064B80221A70054B7F221A7008BD1F
:10714000740A0010D6160010103900103812001002
:107150003A1200100B4A92F900308342B8BF03463E
:107160001370094A92F900308342A8BF0346137096
:10717000064A136803EB00231360054A13780133B2
:1071800013707047381200103A12001010390010B6
:10719000D616001010B540F66213B0F51B6F38BF5D
:1071A00018460D4BA0F662101B7823B10B4A1268EB
:1071B000803292FBF3F30A4903EB430331F91020C9
:1071C000FD2404FB02334FF48072803393FBF2F30F
:1071D00021F8103010BD00BFD61600101039001075
:1071E000740A001040F66213B0F51B6F38BF1846E2
:1071F000054BA0F6621033F910004FF48073803015
:1072000090FBF3F040B27047740A001010B5144CB4
:1072100094F90030002B05DDFFF7E4FF2378363BBF
:10722000184443B26FF07704A342B8BF23466FF00F
:1072300013029342A8BF13461C4603F1380141F0E4
:107240000301C9B2062002F062F8064B14F1770F71
:107250001C70054BACBF002401241C7010BD00BF86
:10726000D81600104C170010A0130010074B002276
:107270001A70074B4FF400121A60064B04221A6072
:10728000054A136843F00403136070474D1700105C
:1072900000E100E0AC800240B4800240074A13687D
:1072A00023F004031360064B04221A60054B4FF4CD
:1072B00000121A60044B00221A707047B48002401A
:1072C000AC80024080E100E04D17001008B5FFF7E8
:1072D000E5FF044B00221A70034A88231370034A07
:1072E000137008BDA0130010D81600104C17001022
:1072F0000A4B02221A600A4A00231360094A1360EB
:10730000094A1360094A1380094A1380094A138005
:10731000094A1360094A1360704700BF04400040E7
:10732000541200103012001048120010A213001066
:10733000D4160010501200104C1200100C17001040
:10734000014B01221A6070470440004008B5FFF766
:10735000CFFF064B04221A6040F63442DA60032263
:107360009A60034B02221A6008BD00BF0C40004027
:1073700000E100E008B5FFF7BBFF024B02221A60F4
:1073800008BD00BF80E100E0114A136843F00053DC
:107390001360104B4FF080621A600F4A0023136095
:1073A000136213641366C2F88030C2F8A030C2F8CA
:1073B000C030C2F8E030FF23A2F5847213609360FE
:1073C000064B01221A601A68D207FCD5704700BF2D
:1073D000C4C00F4000E100E01041005030400050B8
:1073E00030B5144A0123136013489360134C144BB7
:1073F000144A1549146093605160D0609A60134D2F
:10740000134A5D601C60D8601460516093604DF257
:107410000602104B186010485A60002202600F48A4
:1074200002600F4A11600F4A15605A6842F001026B
:107430005A6030BD08400050329000880800034078
:10744000C4390010D439001015170010D9160010D7
:10745000004100500C410050341200104817001039
:1074600094120010B013001030B5154A01231360B8
:10747000144D9360144C154B1549002204EB820007
:107480000A2A43F80C0C18BF184602F1010208BF83
:1074900000200B2A43F8105C03E9030003F11003FA
:1074A000ECD10C4B0C4A196811605968516099680D
:1074B0009160DA68094B1A604DF206025A6030BDDD
:1074C0000840005008000340151700102439001030
:1074D0000410008814390010004100500C41005085
:1074E0000B4B0C494FF080521A600B6843F00103BC
:1074F0000B6051F8203C43F0020341F8203C064960
:107500000B6843F001030B60044B1A60704700BF27
:1075100098C0092024000340104100509CC009205D
:107520000B4B4FF080521A600A4A136823F0010394
:10753000136052F8203C23F0020342F8203C064B33
:1075400000221A60054A012313609360704700BF50
:1075500098C009202400034010410050084000500A
:1075600030B50C4B0C490D4A0D4803F110044D1C6D
:10757000DA60186059609C601861DA615D619B6136
:10758000084B186059609C60DA604DF206021A617F
:1075900030BD00BF140B0010243A00100100008021
:1075A0000800034000410050034B044A1860136870
:1075B00043F00103136070471880004014800040BE
:1075C000054B064A1B681E33136052F80C3C43F00F
:1075D000400342F80C3C7047088000402080004087
:1075E00030B5002423460144934205D0CD5CD80039
:1075F00085402C430133F7E7204630BD10B5084ADB
:10760000431E053013F8014FD179214012F8014F84
:107610008C4203D18342F5D1012010BD002010BD62
:107620008B04001010B5054C4FF4E472002104F1F6
:107630002000FCF7DFFD024B236210BD140B00108D
:10764000D6BE898E70B5144800214FF4927404FBA5
:1076500001F3C518D5F81821BAB1104C00261C4406
:10766000C4F80063C4F8F062C4F8EC624FF48272AC
:1076700031462846FCF7BEFD7F2384F8043380237F
:1076800084F80533C4F8086303E001310429DED12E
:107690001546284670BD00BFFC0C0010140B0010EE
:1076A00010B51B4B186A01F039FD044647F6FE7110
:1076B0000D2001F02CFE42F62231122001F027FEAF
:1076C00041F24B21142001F022FE44F2E14120203E
:1076D00001F01DFEA1B22C2001F019FE210C2D207D
:1076E00001F015FE0B4B02201988013989B201F017
:1076F0000EFE4021032001F00AFE01F0AFFE43061A
:10770000FBD5612001F0B1FEBDE81040FFF758BF86
:10771000140B0010143A001070B5642001F0A5FE9F
:10772000284A13681C3A23F00103D361264B1C68D6
:1077300014F0040401D01168F9E7244D4FF482726B
:10774000D5F878662146C6F80841C6F804413046A7
:10775000FCF750FD7F2386F81C31802386F81D310D
:10776000C6F82041FFF7FCFEFFF7BAFE2A6A184B65
:107770009A420ED140F67A12164B1B889BB2934266
:1077800005D0B3F51B6F0CBF2720252012E0262063
:1077900010E095F82C0095F82D302522184490FB28
:1077A000F2F302FB130005F14001C0B285F82C0092
:1077B000FFF7CBFBFFF7E8FABDE87040064B1880F7
:1077C000FFF76EBF240003400C000340140B0010B1
:1077D000D6BE898EA2040010143A001038B52B4A88
:1077E0002B4B5468022C01D110680EE0012C3AD1C9
:1077F000D3F80411002936D0D3F80051196B106862
:1078000029441E31091A3B292DD80121C3F8000152
:10781000C3F804111F4814B10168C3F8081100210E
:1078200051609160B3F80C21194C0132A3F80C217E
:107830000268D3F808015B6B121A9A4203D8164B00
:107840001A6832B11960FFF7EDFEBDE83840FFF766
:1078500063BFD4F80001236B1844A0F6B830BDE82C
:107860003840FFF7A1BED3F80401094930B1D1F87F
:107870000051086B2844C1F80001CBE71068C1F83B
:10788000000104480068C1F80801C3E7183A001075
:10789000140B001008800040540A0010F8B56A4D1F
:1078A0006A4B2F681B68DE0740F1CC80684B1B6871
:1078B000DC0740F1C080674E01233360062001F0F1
:1078C0001DFD654C40F30720D4F8783693F91C2150
:1078D000D3F82011824293F91D21C8BF83F81C01FF
:1078E0008242D3F808210144B8BF83F81D015B48E8
:1078F000C3F8201102F00101415C99540132012AC0
:10790000C3F8082118D15649A7F5C872C3F80C214D
:107910000A88088892B2C3F81021226A80B2C3F89C
:107920001421FFF719FA242800F285804D4A1368C4
:1079300023F0010313607EE0022A2ED1B3F8100178
:107940005D78FFF709FA484A7F27115C96460831AF
:10795000B1FBF7F3C3EBC313C91A00231E46C6F1EC
:1079600007020EEB010090F8280045FA02F20131FF
:1079700002F001024240B1FBF7F0B2400136C0EB29
:10798000C0101343082EA1EB0001DBB2E7D1D4F8FD
:1079900078260533C2F804314DE04CD9D3F80431D0
:1079A0009A4248D3612001F060FD304B00221A60FA
:1079B0002F4A0123336013682E4923F0010313601B
:1079C000183A1368580701D50B68FAE7D4F8781607
:1079D000294800F007FB224B1F4E188880B2FFF7A2
:1079E000BBF924281DD8254A53680133012B536065
:1079F0000AD1D6F87836D3F80C311360286800F62F
:107A0000B830FFF7D1FD0CE0022B0AD1642001F061
:107A10002CFDFFF717FEC6F87806BDE8F840FFF723
:107A2000DDBEFFF70FFEC4F87806FFF799FDFFF7FC
:107A300057FDFFF7C5FD124B1B68DB0742BF114B1B
:107A400001221A60F8BD00BF0880004000400050CD
:107A50000440005008400050140B0010243A00105D
:107A6000143A001014800040F2AC000010410050A5
:107A70002400034008000340E4390010183A0010C5
:107A80000C4000501040005038B54A4B1A68D007DF
:107A90005FD5494A0121D2F810011960474D1346BC
:107AA00090B3B2F80C41B2F81C0184422CD1A86802
:107AB00060B9D06B50B1D2F800310344106BA3F61B
:107AC000B8331844FFF770FDA96038BD0122AA60E1
:107AD0000022D3F81401C3F80421C3F81021D3F80D
:107AE0000021D3F818110244186302F5A542D86B9F
:107AF0005963503293F8383010441844FFF754FD5E
:107B0000BDE83840FFF708BED3F820312A4C7BB1DE
:107B1000B4F80C21B4F824319A4209D1C02204F5FA
:107B2000947104F1400002F057FB0023C4F82031A7
:107B3000AB6863B9214B01229A60214B186800F5AC
:107B4000BD400830FFF730FDFFF7E6FD01E0FFF72D
:107B500045FE184B1A6891070DD51A4902221A6082
:107B60000B6823F008030B60174B4FF4807119600A
:107B7000102119601A600F4B1A68520718D5042299
:107B80001A6001F06BFC43070ED5622001F06DFC1A
:107B90000E4B80221A604FF480721A60094A1368F3
:107BA00023F04003136038BDBDE83840FFF708BD3F
:107BB00038BD00BF00800040140B0010183A0010C0
:107BC00008800040148000403CC0092058C00920B3
:107BD0002DE9F04F87B0C14F4FF08073C04C3B6030
:107BE000FFF7C8FB0125BF4EBF48C4F80053C4F8D7
:107BF0002454C4F84855C4F86C5600F0EFF9022339
:107C0000BA4A336004231360B94A35601360FFF742
:107C100019FDDFF81483B74BC1461B88B64A9BB2E7
:107C20001380B64BC4F878062362FFF701FA01F01F
:107C3000D9FAFFF795FCFFF753FCFFF731FDB04B86
:107C400000221A60009701960293AE4B1B78092B15
:107C500040F0928006A9002341F8043DA24800F0BC
:107C6000CFF9002800F084800598A74ED0F81021A5
:107C7000D0F80411FFF708F9736C43B3059DB5F80C
:107C80001001FFF769F8242821D92B7803F00F029F
:107C9000062A69D80123934013F0550F03D113F03E
:107CA0002A0F06D160E0D5F80431072B5CD9A81C57
:107CB00009E0D5F804310D2B56D9A81CFFF79EFC1E
:107CC00028B905F10800FFF799FC00284CD08F4A2D
:107CD000102313608E4B8F4A1B68059F03F5C33337
:107CE000A0331360D8F8003043F00803C8F8003020
:107CF000FFF7ACF9054650B34FF0000A01232B7093
:107D000085F803A0D7F80C3107F58A716B60D7F8B6
:107D1000103105F10E00623BAB70D7F80421D7F8A3
:107D20002031B3FBF2F3AB7297F91C3104226B7272
:107D300097F91D3185F80BA02B7202F04DFA2E2217
:107D4000394605F1120002F047FA85F801A0059DB9
:107D5000B5F81001FFF700F82428297840F2AF8029
:107D600001F00F01052919D0059B0122C3F8182144
:107D70000020FFF7BFF968E7019B009902221A6013
:107D800004230B60644B102119604FF4807119605B
:107D90001A60FFF7DBFA07B0BDE8F08F736B002BBA
:107DA000E2D0D5F80431272BDED1029B1B6813B13A
:107DB000534B00221A6004220E212846FFF710FCC4
:107DC0000322122120622846FFF70AFC606201F0BC
:107DD000A5F90122A06215212846FFF701FC022225
:107DE00084F83800162183462846FFF7F9FB022263
:107DF000E063182182462846FFF7F2FB022206467E
:107E000020631C212846FFF7EBFB012260630390EF
:107E100023212846FFF7E4FB40F67A42B11F00F029
:107E20001F0091422E4F84F82D0045D843F2D40113
:107E30004E4301FB0AF296423E63FA633CD343F29F
:107E4000D3025FFA8BFB01FB0BFB934534DD334A16
:107E5000A6F54356143E964228BF16465E452BD3E0
:107E6000039B53432E4A7B63A3F57423A3F510733E
:107E7000934221D807F1400105F11E00FFF734F8C5
:107E8000D7F8FC30C3B1D9F80030002223F040030A
:107E9000C9F80030234BD5F80C015A609A60FB6B8F
:107EA000D5F80421034403F51A532C33502000FB6A
:107EB0000230FFF779FB57E7FFF7B4FB54E701F017
:107EC000030103297FF450AF6F78002F3FF44CAFCC
:107ED000AB785BB3012B6CD046E700BF80E100E0DC
:107EE000140B001004800040E43900100C800040A6
:107EF00000E100E0A2040010143A0010D6BE898E02
:107F0000540A00103E0A00105404001038C0092022
:107F1000088000401C8000403CC00920A086010071
:107F2000C08D0313183A0010148000400C2F7FF40A
:107F30001BAF01222846FFF753FB0222C6B20421E1
:107F4000284684F83860FFF74BFB02228246E06344
:107F500006212846FFF744FB0222C4F814010390CF
:107F60000A212846FFF73CFB02228346C4F8180189
:107F700039462846FFF734FB06EB460206EB820241
:107F800006EB820643F2D402039B02FB0AF1534341
:107F9000C4F814310F4BB60003FB0BF3C4F81831CF
:107FA0000123A4F81C0184F83860E163C4F810319F
:107FB000DAE6082F7FF4D8AE394602222846C4F804
:107FC0002031FFF70DFB0449A4F82401E81CFEF75B
:107FD0008BFFC9E6A08601003C0C001000238362E1
:107FE000C3627047C36A826A01330A2B28BF002329
:107FF00093421DBF40F82310C36201200020704748
:10800000836AC26A934209D001330A2B28BF002336
:1080100050F823200A6083620120704700207047D7
:108020002DE9F04798B000AF152387F830300023D2
:1080300087F831303A23BB609A4B82461B6807F1C0
:108040001C0107F10800C7F804D098473B7F002BBC
:1080500040F023813B6A42F622311A0E87F8322023
:108060001A0C87F8332087F835301A0A7B6A87F8AC
:1080700034201A0E87F836201A0C87F8372087F834
:1080800039301A0ABB6A87F838201A0E87F83A2066
:108090001A0C87F83B2087F83D301A0AFB6A87F8EC
:1080A0003C201A0E87F83E201A0C87F83F2087F8EC
:1080B00041301A0A1220FF2387F8402087F8443005
:1080C00087F8453001F023F941F24B31142001F0DB
:1080D0001EF940F6F151202001F019F9BAF800100C
:1080E000022089B201F013F94FF6AE112D2001F0F4
:1080F0000EF941F284512C2001F009F908210520E4
:1081000001F005F92921032001F001F901F0A6F998
:108110004306FBD5612001F0A8F901F09FF946075D
:10812000FBD5614B4FF4807298461A605F4A8021FC
:108130001160002407F13006E5B245F00801052082
:1081400001F0E5F887F84250002587F843500E20EB
:1081500001F0D4F800F01F000F28F8D14FF000090B
:1081600016F80910702009F1010901F0DEF8B9F1E3
:10817000160FF5D16320013501F077F9102DE4D108
:108180000134082CD8D10E2001F0B8F800F01F00FF
:108190000F28F8D1464C4FF480732360642001F01F
:1081A00064F901F05BF94507FBD4BAF8001002202E
:1081B000013989B201F0ABF801F050F94006FBD566
:1081C000612001F052F901F049F94107FBD5102374
:1081D000C8F8003007F148050E2001F08FF800F0D4
:1081E0001F000F28F8D1622001F03FF901F036F9A5
:1081F000C206FBD50223C8F800304FF000097020FA
:1082000001F08AF805F8090009F10109B9F1160F22
:10821000F5D101F023F9030702D402232360DBE741
:108220000E2001F06BF800F01F000F28F8D1642039
:1082300001F01BF901F012F900F0040303F0FF0054
:10824000002BF7D11B4B80221A601023236097F874
:108250005A10194B0122597097F85B101A709970D7
:1082600097F85C1087F83120D97097F85D10197174
:10827000014615F801C016F801E0F44518BF8A1C44
:1082800001F101011CBFD2B201201229F1D100B1CC
:108290001A7002232360D7F804D06037BD46BDE8CA
:1082A000F08700BFF0AD000038C0092058C0092099
:1082B0003CC009205CC00920101700102DE9F04FC8
:1082C00087B0DFF870A18146D346022542F62231FD
:1082D000122001F01CF841F24B31142001F017F884
:1082E000B9F800100220013989B201F010F84FF6F8
:1082F000AE112D2001F00BF841F284512C2001F039
:1083000006F80821052001F002F82921032000F0D9
:10831000FEFF01F0A3F84106FBD5612001F0A5F8AE
:1083200001F09CF84207FBD5404C10232746CAF8C1
:1083300000304FF4807323603D4B802225601A602B
:108340000E2000F0DBFF00F01F000F28F8D13D6089
:10835000622001F08AF801F081F8C306FBD5CBF862
:1083600000500026702000F0D7FF0DF806000136FF
:10837000162EF7D101F072F80607E1D5102325601B
:108380006420236001F071F801F068F84007FBD425
:1083900001F064F84106FBD5B9F80010022089B25B
:1083A00000F0B5FF01F05AF84206FBD5612001F05C
:1083B0005CF84FF48073CBF8003015238DF8003053
:1083C00001238DF801300026F7B247F0080105209F
:1083D00000F09DFF8DF8147000278DF815700E20A9
:1083E00000F08CFF00F01F000F28F8D14FF00008BC
:1083F0001DF80810702008F1010800F096FFB8F190
:10840000160FF5D16320013701F02FF8102FE4D1BA
:108410000136082ED8D14FF480732360642001F018
:1084200024F801F01BF84307FBD44FE73CC00920B8
:1084300058C0092038C0092038B503780D4623B14B
:108440000378012B2FD1402400E0292442F6223169
:10845000122000F05CFF43F24B31142000F057FF74
:1084600040F6F151202000F052FF2988022089B205
:1084700000F04DFF2146032000F049FF00F0EEFF21
:108480004206FBD5612000F0F0FF00F0E7FF430754
:10849000FBD5054B4FF480721A60632000F0E5FFB6
:1084A000024B80221A6038BD38C0092058C009200C
:1084B000044B4FF080521A60034A136823F0020302
:1084C0001360704798C009200400034010B5064CA3
:1084D0000649431E233022685207FCD50A6803F878
:1084E000012F8342F7D110BD0C0003400800034068
:1084F00010B540F63544074B1A68074BC2F3130218
:108500001B6804FB0233836042F210735943C1605D
:1085100010BD00BF541200100840004040F6354125
:108520000A4B1A680A4BC2F313021B6801FB0233A1
:108530008268C06893423CBF03F1434303F5A00344
:108540009B1A834234BF0020012070475412001050
:10855000084000407047000040F668120023436066
:10856000024B1A8001230370704700BF50040010B3
:10857000012303707047000030B58BB028220446F9
:1085800000216846FBF736FE40F635411A4B20467F
:108590001A681A4BC2F313021B6801FB02330993DA
:1085A000FFF7BCFF28B104212046FFF7A1FF0323FA
:1085B000237000F053FFC30612D5114B10251D6028
:1085C0006846FFF783FF099A69460620FCF7B8FC66
:1085D0000C4B06211D602046FFF78AFF0323237002
:1085E0002378022B06D0642000F03FFFFFF760FFE6
:1085F000012323610BB030BD54120010084000402D
:1086000038C009203CC0092010B547F6FF71044668
:108610000D2000F07CFE42F62231122000F077FEA1
:1086200041F24B31142000F072FE4FF4986120208B
:1086300000F06DFE1D4B02201988013989B200F04F
:1086400066FE2621032000F062FE0321212000F0B7
:108650005EFE46F20F312D2000F059FE49F6FE7104
:108660002C2000F054FE00F0F9FE4206FBD5104B22
:108670004FF080520F491A600B68612043F00203EB
:108680000B600D4B1A6000F0F0FE00F0E7FE4307B0
:10869000FBD50E2000F032FE00F01F000F28F8D1AD
:1086A000622000F0E2FE0223237010BD500400108F
:1086B00098C00920040003409CC0092010B547F66B
:1086C000FF7104460D2000F022FE42F622311220F6
:1086D00000F01DFE43F24B31142000F018FE4FF461
:1086E0009861202000F013FE1A4B0220198889B2ED
:1086F00000F00DFE2621032000F009FE03212120B9
:1087000000F005FE0F21052000F001FE00F0A6FE9E
:108710004206FBD5612000F0A8FE00F09FFE430753
:10872000FBD50E2000F0EAFD00F01F000F28F8D165
:10873000094B80221A60632000F097FE074B4FF42C
:1087400080721A6005232370A369A36044F6206336
:10875000E36010BD5004001058C0092038C0092043
:1087600010B50446FFF7DAFEC0B1636807215A1C52
:108770000B4B20461340002BBCBF03F1FF3363F0CB
:108780000303084AB8BF013332F813206360064B75
:108790001A80FFF7ADFE01232361237010BD00BFD7
:1087A000030000809CAD00005004001010B504468A
:1087B000FFF7B4FE30B1012323702361A369A360E6
:1087C000014BE36010BD00BFB0AD010010B5044621
:1087D000FFF7A4FE10B3642000F047FE104B802288
:1087E0001A604FF4807243F8202C63685A1C0D4BBA
:1087F0001340002BBCBF03F1FF3363F003030A4AAD
:10880000B8BF013332F813206360084B1A8003238A
:108810002370A369A3604EF66023E36010BD00BF20
:108820005CC00920030000809CAD000050040010D3
:1088300010B5044600F012FEC3060ED540F63541D1
:108840000423237001236361104B1A68104BC2F399
:1088500013021B6801FB0233A36123695BB120464D
:10886000FFF75CFE38B104232370002363610B2102
:108870002046FFF73DFE2378022B06D0642000F04F
:10888000F4FDBDE81040FFF713BE10BD54120010F8
:108890000840004010B58AB0282200216846FBF746
:1088A000A9FC40F63541164B1A68164BC2F3130269
:1088B0001B6801FB0233099300F0D0FDC2061DD5F1
:1088C000114B10241C606846FFF700FE099A6946A8
:1088D0000620FCF735FB0D4B61201C6000F0C5FD48
:1088E00000F0BCFD4307FBD50E2000F007FD00F0B3
:1088F0001F000F28F8D1622000F0B7FD0AB010BDAC
:10890000541200100840004038C009203CC0092023
:1089100030B589B004461C22002101A8FBF76AFC8F
:10892000012C144D05D006D3022C06D000232B7049
:108930001DE0114C02E0114C00E0114C114B4FF0C6
:1089400080721A6000F04EFC2B780D2B06D19DF83A
:10895000043001A854F823309847F5E7642000F06C
:1089600084FDFFF7A5FD084B4FF080721A6009B037
:1089700030BD00BF3E0A0010C0AD0000A4AD000035
:10898000D8AD000000E100E080E100E0274A0B21C3
:10899000136843F010031360254B83221A60254AA5
:1089A0000433116000215160D321916253F8042CEB
:1089B00022F0800243F8042C10B1C0221A6000E0BB
:1089C00018601D4B09221A601C4A1368043223F0F8
:1089D000404343F0804342F8043CD36B23F04043D0
:1089E000D363136823F0030343F001031360144BB4
:1089F000196821F003011960B8B1116821F00C0168
:108A000041F004011160196821F00C0141F00801E6
:108A10001960116821F4405141F4805111601A68C5
:108A200022F4405242F400521A607047C4C00F4012
:108A30000C000140000001400800014000C002405D
:108A400044C002400FB437B5134B1D68FDB9134C39
:108A500001221A60FF2107AB069A2046019300F01D
:108A600009FB204684F8FF5001F02CFC0C4B0D4A0A
:108A70001C605A604CF68022C0F30B0040F00440AA
:108A80009D60D8601A611A6942F001021A6103B050
:108A9000BDE8304004B0704790110010263A001035
:108AA000E0410050000001402DE9F84F8046894622
:108AB0009346D2F810A0D66800270124002522464C
:108AC0002B464046494601F0C5F9B94208BFB042BD
:108AD00007D304FB07F306FB0533A4FB06451D443F
:108AE000EDE7002754EA050330D022462B464046E6
:108AF000494601F0AFF922462B4649460646404614
:108B000001F0A8F92046294690469946DBF80C204A
:108B1000002301F09FF904460D4627B9002E02DC20
:108B200054EA0503DED1092E0AF1010207DD9BF8A4
:108B3000003013F0040F14BF3723572300E0302315
:108B40001E448AF8006001379246CBE700238AF87A
:108B50000030BDE8F88FF0B50C69CA680123B0FB9E
:108B6000F3F5954201D35343F9E70025E3B1B0FB98
:108B7000F3F2CE6803FB1200B3FBF6F31DB9002A33
:108B800001DC002BF2D1092A04F1010706DD0E7881
:108B900016F0040F14BF3726572600E03026324463
:108BA000227001353C46E1E72370F0BDF0B50C6959
:108BB000CA680123B0FBF3F5954201D35343F9E7AB
:108BC0000025E3B1B0FBF3F2CE6803FB1200B3FB68
:108BD000F6F31DB9002A01DC002BF2D1092A04F1B9
:108BE000010706DD0E7816F0040F14BF372657264E
:108BF00000E030263244227001353C46E1E7237024
:108C0000F0BD2DE9F04106460F461546546813693C
:108C100013F8012B1AB92B7A2BB1013C03E0002C7D
:108C2000F9DD013CF4E72B78990708D5EA68102AAA
:108C300001D1023C03E0082A08BF04F1FF3413F01D
:108C4000090F0ED1A046B8F1000F05DD20213046F6
:108C5000B84708F1FF38F6E7631E002CB4BF1C4686
:108C60001C1B297A09B13046B8472B789A0711D5D1
:108C7000EB68102B09D130213046B8472B7813F020
:108C8000040F14BF5821782102E0082B02D13021B3
:108C90003046B8472B78DB070ED5A046B8F1000F59
:108CA00005DD30213046B84708F1FF38F6E7631E8E
:108CB000002CB4BF1C461C1BD5F8108018F8011BF3
:108CC00011B13046B847F9E72B7803F00903082BB8
:108CD00006D1002C04DD20213046B847013CF8E7DE
:108CE000BDE8F0818368026893423CBF4268D1547A
:108CF00083680133836070472DE9F0478CB00746E5
:108D000088461C4606AE059692F80090551CB9F1AF
:108D1000000F00F0AC81B9F1250F07D0B9F10A0FAF
:108D200002D10D213846C047494655E100229646FA
:108D300011469446104691469DF80430029203F085
:108D4000FC0362F3C3038DF804308DF80C2015F892
:108D5000013B73B12D2B06D0302B07D0232B08D12C
:108D600001229646F3E701208146F0E701218C4677
:108D7000EDE728B19DF8040069F3C3008DF8040005
:108D800029B19DF804106CF300018DF804102AB18C
:108D90009DF804206EF341028DF80420A3F1300207
:108DA000092A1DD800210A20A3F130025FFA82FEB1
:108DB000BEF1090F04D800FB012115F8013BF3E7D0
:108DC000A3F16102052A02D8A3F1570205E0A3F13D
:108DD0004102052A03D8A3F137020A2AEBDD0291EA
:108DE0002E2B0BD19DF8043043F001038DF8043095
:108DF00015F8013BA3F13002092AF9D97A2B01D1E8
:108E00002B7832E06C2B40F098802B786C2B2CD197
:108E10006B7805F10209692B48D011D8582B00F066
:108E2000E18007D8002B00F02281252B40F0D7806D
:108E30004D46D0E0632B00F0B380642B36D0CEE0FB
:108E4000732B00F0B48007D86F2B00F09A80702B42
:108E500040F0C5804D467CE0752B03D0782B40F068
:108E6000BE80BFE04D4602230CE0692B05F10105F1
:108E700029D01ED9732B00F09B8066D9752B40F04A
:108E8000C88001230A22022B049208D1E31D23F09B
:108E9000070303F1080401AAD3E900012BE0012B29
:108EA00001A9206804F104093ED133E04D460223B4
:108EB0000AE0582B00F0AF8040F28980632B70D01D
:108EC000642B40F08D8001230A22022B049215D1DD
:108ED000E31D23F00703D3E90001002803F1080490
:108EE00071F1000306DA40424FF02D0361EB4101BE
:108EF0008DF80C3001AAFFF7D7FD18E0012B206890
:108F000004F1040909D10028BEBF2D2340428DF889
:108F10000C3001A9FFF71FFE08E00028BEBF2D237B
:108F200040428DF80C3001A9FFF740FE4C4601AAE3
:108F300041463846FFF765FE52E0692B00F082801B
:108F400042D9732B34D000F28E806F2B1AD0702B45
:108F500046D19DF80430102243F002036FF38203E0
:108F600004928DF8043001A9206804F1040AFFF787
:108F70001DFEA946544601AA41463846FFF741FE68
:108F80002DE04D46082301A920680493FFF70EFE4B
:108F900001AA4146384604F10409FFF732FE11E008
:108FA0004D462178384604F10409C0470AE04D4691
:108FB000236801AA41463846059304F10409FFF7E6
:108FC00020FE05964C460BE0582B3FD036D8002BA0
:108FD0004DD0252B04D125213846C04700E04D4611
:108FE0002A4691E6A3F1580043429DF804104341FC
:108FF00063F382011022E31D23F0070304920CAAFD
:1090000002F82C1DD3E9000103F10804FFF74CFD21
:10901000B1E7782BE4D1A3F1580110224B4204921E
:109020009DF804204B4163F382020CA901F82C2D1A
:10903000206804F1040AFFF78EFD9AE7632BB0D095
:10904000642BCDD100233FE7782BC9D110220492A5
:10905000A3F15802534253419DF8042063F3820266
:109060008DF804207FE7752BEED100230AE70CB0C2
:10907000BDE8F0871FB5002481B10139029001914C
:1090800001A808490394FFF737FE0399019B029A50
:10909000994234BF5454D454039800E0084604B0B5
:1090A00010BD00BFE58C000000F0E8BC08B50D4A1B
:1090B0000D4B0E498B4204D252F8040F43F8040BB7
:1090C000F8E70B4B0B4A0021934202D243F8041BF2
:1090D000FAE7FBF767F8084B084A1A60FDF772FCDD
:1090E000FEE700BF44AE0000200000100D0A001093
:1090F000100A0010263B001008ED00E000400000C0
:10910000FEE70000044B0A221A601A68013A1A604E
:10911000002AFAD1704700BF9411001090FAA0F015
:1091200070470000C30803EB900303EB901303EBBD
:10913000D01303EB902303EBD020044B58605A6804
:10914000013A5A60002AFAD1704700BF941100100A
:10915000014B5843FFF7E6BF40420F00104A00237F
:10916000136053609360D3601361D3615362936261
:109170000C4A1360136213641366C2F880300A4A03
:10918000136053609360D3601361D3615362074AE5
:109190001360136213641366C2F88030704700BF17
:1091A00000C0024000C0092040C0024014C0092095
:1091B00008B5FFF7D3FF4CF21271094A0023136080
:1091C000116240F2B11111644FF040511366C2F8C0
:1091D00080105361536353655367C2F8943008BDE0
:1091E00000C00920114B1A6822F4404242F40042A8
:1091F0001A601A6822F4405242F400521A601A6847
:1092000022F4403242F400321A601A6822F44022FA
:1092100042F400221A60064B4FF080521A60054B50
:10922000C7221A600C225A60704700BF00C002407B
:1092300098C0092000000340094A136823F4701302
:109240001360084A136823F0C0631360064B1A6862
:1092500042F420121A601A6822F4A0121A607047B1
:1092600004C0024000C0092044C00240F0B51026EE
:10927000B646114B2025441E01221D600F4F104D94
:1092800002FA04F40138C0B2FF280FD0214214BF03
:109290002A601A602E60D7F800C049001CF0020F47
:1092A00018BF41F00101C3F800E0EBE7044B2022B6
:1092B0001A600846F0BD00BF5CC0092054C00920F8
:1092C00058C0092008B5FFF7B7FF09494FF40073EC
:1092D0000B603220FFF726FF064B20221A604FF466
:1092E00080430B6018200449BDE80840FFF7BEBF6B
:1092F00038C0092058C00920FF7F0D0008B540F094
:10930000800109041820FFF7B1FF80B208BD41EACF
:1093100000411820FFF7AABF08B540F080010902FC
:109320001020FFF7A3FFC0B208BD41EA00211020C2
:10933000FFF79CBFF8B5224B2022224F1A60702401
:1093400008224FF0010E102614F0800F02F1FF32B8
:1093500014BFC7F800E0C3F800E0640012F0FF0299
:109360003E60184DE4B21E60EED10E4601274FF06C
:10937000100E721AD2B2904213D916F8014B08227D
:1093800014F0800F02F1FF3214BF2F601F606400E1
:1093900012F0FF02C5F800E0E4B2C3F800E0EFD13C
:1093A000E7E708221021013A12F0FF022960196054
:1093B000F9D1FFF7A7FE034B20221A60F8BD00BFCA
:1093C0005CC0092058C009202DE9F843204D202316
:1093D000204F2B60F02208234FF0010E102412F0D2
:1093E000800F03F1FF3314BFC7F800E0C5F800E0B9
:1093F000520013F0FF033C60164ED2B22C60EED147
:109400000138DFF854904F1E0144B9421AD00820A9
:1094100000244FF01008FFF775FEC6F80080D9F859
:10942000003064009B07E4B248BF44F00104FFF73A
:1094300069FE013810F0FF00C5F80080EBD107F895
:10944000014FE2E7FFF75EFE20233360BDE8F883BB
:109450005CC0092058C0092054C0092008B500216B
:109460000820FFF703FFC0B208BD08B50146082079
:10947000FFF7FCFEC0B208BD08B500211820FFF7B9
:10948000F5FE0020FFF73AFF0028FAD14FF4004123
:109490001820FFF7EBFE0020FFF730FFB0F5004F7C
:1094A000F9D108BD2DE9F04144F23A02404B414E5A
:1094B0001A60414D002333602B68404C23F00203B7
:1094C0002B60AA2323603E4A5523236013683C4F38
:1094D00013F0007FFAD12B6823F001032B60AA233D
:1094E0002360552323603B6813F08073FBD1DFF8C2
:1094F000F480C8F80030FFF7BFFF32491820FFF7AB
:10950000B5FE6020FFF7B1FFFFF7A8FF4106FBD5CE
:109510002D4B20221A601A685206FCD52B4B2822AC
:109520001A6000225A6001233360294A294BAA217C
:109530001A605522216022602B6843F001032B60E2
:10954000216022603B68DE01FCD50323C8F80030AF
:109550002B6843F002032B60AA232360552323606A
:109560003B689801FCD51C4B22221A60AA240833C0
:1095700055201A4A1C601860116841F00101116001
:109580001C60174C18602168154811F4807FFAD0D0
:1095900001684905FCD5116841F002011160AA2259
:1095A0001A6055221A6003689B05FCD5BDE8F0815E
:1095B00000C00F400CC10F4080C00F408CC00F4056
:1095C00088C00F4070150800A0C10F40A8C10F400F
:1095D0001800010084C00F40A4C00F40A0C00F407D
:1095E000A8C00F4004C10F4008B5FFF7E1FDFFF729
:1095F00069FEBDE80840FFF755BF000008B5FFF75A
:10960000ADFD094B02221A604FF0804213680748F3
:1096100043F003031360064BAA221A6055221A6016
:10962000BDE80840FFF77EBD3CC0092040420F0066
:109630000800004030B58BB0044636230D46009339
:1096400005A96846074B9847059B2370069B1A0A95
:109650006370A2701A0C1B0E23710523E2702B603D
:109660000BB030BDF11FFF1F30B58BB004463A235D
:109670000D46009305A96846134B9847059B237038
:10968000069B1A0A6370A2701A0C1B0E2371079BAB
:10969000E2701A0A6371A2711A0C1B0E2372089BE6
:1096A000E2711A0A6372A2721A0C1B0E2373099BD1
:1096B000E2721A0A6373A2731A0C1B0E237411232D
:1096C000E2732B600BB030BDF11FFF1F00B58BB0F4
:1096D0003923009305A96846024B98470BB05DF803
:1096E00004FB00BFF11FFF1F38B5084C8020256820
:1096F0006168402DA8BF40252A4600F057F96368ED
:109700002B44636023685D1B256038BD9C110010ED
:1097100037B51048047A0546C4F34114022C0CD125
:10972000002302A941F8043D00F11002031D083096
:1097300000F066FA08B101980AE005EB8404636959
:109740002BB1054A02F10C01101D984700E01846A4
:1097500003B030BD9C110010A011001010B50028FE
:109760004AD101F0040101F0FF02254C01B30822A7
:10977000A11800F045F9227AC2F3411304EB8303E8
:109780005B6A6360E389236023610BB1D30935D041
:10979000FFF7BEFF28B9BDE810400121802000F08E
:1097A000F9B8E28923699A42D4BF226023601AE0A3
:1097B0002368002B1BDD1A46616800F021F90028A0
:1097C000E9DB6368034463602368181A2060A8B962
:1097D000237AC3F3411304EB83035B6A6360FFF7EF
:1097E00097FF0028D7D0BDE81040FFF77DBF114696
:1097F000BDE8104000F004B98028F4D010BD00BFCF
:109800009C110010024B03EB8000416142627047E3
:109810009C1100107047000010B50E4C00F096F936
:109820000D4800F081F82146002000F061F8214643
:10983000802000F05DF84021002000F03BF840213E
:10984000802000F037F8054A05490020FFF7DAFFCD
:10985000012010BD5D97000015980000D011001088
:10986000F59C0000034A136830EA0303FBD1024B66
:109870001860704700C2005008C20050044B00043A
:1098800040F4A06030221A6098601020FFF7EABF11
:1098900008C2005008B5FFF7F1FF054B090441F479
:1098A000807119601020BDE80840FFF7DBBF00BFE2
:1098B00010C2005010B5430003F01E0343EAD01459
:1098C000094801230268A34013430360074B4FF488
:1098D00080701C605960FFF7C5FF44F04000002114
:1098E000BDE81040FFF7D6BF44C2005048C2005048
:1098F0000A4A430003F01E0342F81310084943EAE2
:10990000D01001220B6802FA00F01843054A0860E3
:10991000136843F004031360704700BFD8110010B0
:1099200034C2005004C20050034B044A1864136848
:1099300043F0080313607047D811001004C20050B0
:1099400040F08001D020FFF7A5BF011C18BF012106
:10995000FE20FFF79FBF0146F320FFF79BBF0000EB
:1099600008B5430003F01E0343EAD0110846FFF791
:1099700085FF064B090441F4007119602020FFF7B0
:1099800071FF034B1868C0B208BD00BF10C2005081
:1099900014C20050430003F01E0343EAD01000310C
:1099A00018BF012140F04000FFF774BF38B50346EF
:1099B000400000F01E0040EAD3109B0003F03C037F
:1099C0000C4C43F0020323600B4B15461A600B4A04
:1099D000236813F0020303D051F8043B1360F7E748
:1099E000044A1360FFF74AFFFA20FFF747FF2846B3
:1099F00038BD00BF28C2005024C200501CC2005015
:109A0000F8B50346400000F01E0040EAD3109B006A
:109A1000154C03F03C0343F0010323602646083C49
:109A200023681D05FCD55C051AD500252C460F4F73
:109A3000C3F309039C420AD014F0030F08BF3D682A
:109A400011B1944238BF0D552D0A0134F2E70023BD
:109A50003360FFF713FFF220FFF710FF2046F8BD39
:109A60004FF0FF30F8BD00BF28C2005018C20050B0
:109A7000011C18BF0121D820FFF70CBFF8B52A4BF5
:109A80001C68E10711D501229A60284B596C61B11D
:109A9000F520FFF7F3FE264B264A20201A60FFF739
:109AA000E1FE254B1868C0B2884722071AD5234B20
:109AB00008221A60FE20FFF7E1FE1D4B204A2020FD
:109AC0001A60FFF7CFFE1C4B1868C3B213F01A0FD1
:109AD00008D0164A126C2AB100F0140003F00103FA
