:10400000E03F001069900000BD900000BD900000EE
:10401000BD900000BD900000BD90000000000000B9
:10402000000000000000000000000000BD90000043
:10403000BD90000000000000BD900000BD90000099
:10404000BD900000B14F0000657A0000BD900000F7
:10405000BD900000BD900000BD900000BD9000002C
:10406000BD900000BD900000BD900000BD9000001C
:10407000BD900000BD900000BD900000BD9000000C
:10408000BD900000BD900000BD900000BD900000FC
:10409000BD900000ED500000BD900000BD900000FC
:1040A00065900000BD900000FD510000BD90000033
:1040B000BD900000BD900000BD900000BD900000CC
:1040C000BD900000BD900000BD900000044B05486D
:1040D0001B1A062B02D9044B03B11847704700BFC7
:1040E0000B0A0010080A00100000000005490648ED
:1040F000091A891001EBD171491002D0034B03B1A9
:1041000018477047080A0010080A00100000000055
:1041100010B5064C237843B9FFF7D8FF044B13B111
:104120000448AFF300800123237010BD080A00107B
:104130000000000050B0000008B5084B1BB1084853
:104140000849AFF300800848036813B9BDE8084088
:10415000CCE7064B002BF9D09847F7E700000000AA
:1041600050B000000C0A0010080A00100000000007
:10417000014600200246034600F08CB838B5084BD3
:10418000084DED1AAC1018BFED1805D0013C55F8DC
:10419000043D9847002CF9D1BDE8384006F062BFD5
:1041A00070B0000074B0000070B50F4E0F4D761B5C
:1041B000B61018BF002405D0013455F8043B9847C9
:1041C000A642F9D10A4E0B4D06F042FF761BB610FF
:1041D00018BF002406D0013455F8043B9847A64286
:1041E000F9D170BD70BD00BF5CB000005CB00000D4
:1041F00064B000005CB0000070B4840746D0541E68
:10420000002A41D0CDB2034602E0621EE4B3144658
:1042100003F8015B9A07F8D1032C2ED9CDB245EAF9
:1042200005250F2C45EA054519D9264603F110024C
:10423000103E0F2E42F8105C42F80C5C42F8085C0D
:1042400042F8045C02F11002F2D8A4F1100222F04C
:104250000F0204F00F041032032C13440DD91E4634
:104260002246043A032A46F8045BFAD8221F22F0B9
:1042700003020432134404F003042CB1C9B21C44F9
:1042800003F8011BA342FBD170BC704714460346E0
:10429000C2E700BF2DE9F047254C06462568884651
:1042A000D5F8484192469946C4B360681F2817DC88
:1042B000411C76B104EB8003C3F888A0D4F8885180
:1042C000012282401543022EC4F88851C3F8089198
:1042D0001ED0831C6160002044F82380BDE8F08775
:1042E000144B03B34FF4C870AFF300800446D0B151
:1042F000D5F84831002784E888003846C5F8484199
:104300000121C4F88871C4F88C71002EE1D0D1E786
:10431000D4F88C311A43C4F88C21DAE705F5A67479
:10432000C5F84841C1E74FF0FF30BDE8F08700BF56
:1043300054A5000000000000024B13B10248FFF733
:1043400017BF7047000000007D41000010B500233A
:104350001A4640FA03F1C3F1070401F00101A1403C
:1043600001330A43082BD2B2F3D1104610BD00002E
:1043700038B5254B254C1A7812B11A78012A27D165
:104380001B7833B1204B1B78012B14BF002540252F
:1043900000E029250D2047F6FF7104F090FF122060
:1043A00042F6223104F08BFF142041F24B3104F02D
:1043B00086FF202040F2011104F081FF21880220B5
:1043C000013989B204F07BFF0320294604F077FF0E
:1043D000208880B202F0FCFE02F096FF05F010F893
:1043E0004206FBD5612005F012F805F009F84307F5
:1043F000FBD5622005F00BF8054B80221A604FF4C4
:1044000080721A6038BD00BF240A001048040010F2
:1044100058C0092070B5274B04461A7832B11B7872
:10442000012B46D1402540F2615602E040F2614640
:1044300029250D2047F6FF7104F041FF122042F6B6
:10444000223104F03CFF142041F24B2104F037FFED
:104450002020314604F033FFA1B22C2004F02FFFBE
:10446000210C154C2D2004F02AFF2188022001394F
:1044700089B204F024FF0320294604F020FF20889D
:1044800080B202F0A5FE02F03FFF04F0B9FF420641
:10449000FBD5612004F0BBFF04F0B2FF4307FBD55E
:1044A000622004F0B4FF054B80221A604FF4807242
:1044B0001A6070BD240A00104804001058C009207A
:1044C000F8B507460E4602F0A3FD1D4D044620B97F
:1044D0006B7843F004036B70F8BD042F07700ED1A6
:1044E00040F63541174A13681B0DC370164B12680E
:1044F0001B68C2F3130201FB0233436014E0AB7884
:10450000C3706B6843602B89623B83700F4B1B78D1
:1045100043720F4B1B780372288980B202F044FE6D
:104520000C4BA0721B78E37204F10E00314632226C
:1045300005F06AFF6B780120637000236B70F8BD93
:10454000240A00104C1200100840004032120010E3
:1045500030120010CE16001010B5044C606004F04C
:10456000BBFD6081000C208110BD00BF480400101D
:1045700010B5642004F04BFF04F042FF00F004008B
:1045800000F0FF040028F7D1214B80221A6010218F
:104590004FF480721A6043F8201C43F8202C02224A
:1045A00043F8202C02F088FE02F09EFF02F072FE1B
:1045B00002F096FD40F68911164B174A9C72DC7288
:1045C00011809E219C81A2F8501040F66211DC817E
:1045D000A2F852109C705C601C811C745C705C744E
:1045E0009C74DC741C751C704FF41663A2F8543074
:1045F00040F6B313A2F85630E22382F85830074B46
:1046000000200021C3E90001C3E9020110BD00BF81
:104610005CC00920240A001048040010481700104C
:104620002DE9F041394D3A4F288880B202F070FBF5
:1046300000221346395C374E985D0133C0071F2BAB
:1046400040EA5202F7D16C68F05CC00740EA5202BF
:10465000A24253D100204FF00008C64603EBC00C25
:104660000EEB0C023244032812F81F2C0ADD7C18D2
:1046700094F82840013162407F24B1FBF4F4C4EB8C
:10468000C414091B02FA0EF20EF1010E42EA0802EE
:10469000BEF1080F5FFA82F8E2D11F4C226802F8DF
:1046A000008001302E28D6D16B695BB921680120CA
:1046B000FFF706FF194B10221A60194B20689B69FF
:1046C00098471FE023685D79104B216805F03F058E
:1046D000AA1C1869043102F0A1FB226805F1080345
:1046E000D35C2168EA1D8A5C21680635495D1202A7
:1046F00042EA03430B43984204D1D7E70133B3F5B1
:10470000D87FA1D10120BDE8F08100BF480400108E
:1047100058A50000AC130010A813001038C00920E1
:10472000240A001070B5594B0546197E02790229FA
:104730001C4613D103221A76554A1268DA615A8C44
:10474000013A92B21A8400229A84DA62514BDA7CDE
:10475000002A00F099802822DA6170BD03293BD13C
:10476000DB6A02F00302A3B1A38C218E9BB29942B3
:104770000FD1474B1B68E361638E6384013B9BB29F
:10478000238494F8343084F82630E38E2385002384
:10479000E362032A78D1AB79002B75D1EB7984F8E9
:1047A00034306A7A2B7A03EB0223E386EA7AAB7A17
:1047B00003EB022363866A7C2B7C03EB0223A28C2F
:1047C0009BB292B223869B1A47F6FE7293425BDC41
:1047D0002E4B0122DA6270BD012955D102F00F0281
:1047E000052A51D14379222B4ED1427F037F43EAE0
:1047F000022340F67A42063B9BB2934244D8A36C14
:104800003BB9022300202376606105F111010346C4
:1048100011E004F13C00A91D062205F0C3FD0028AB
:10482000EFD004F13C0005F10C01062205F0BAFDC1
:104830000028E6D070BD11F8012FDE000133B24030
:10484000042B40EA0200F6D1FFF786FEEB7D287EBE
:104850001B0243EA0043A87D1843E06004F03CFCDF
:104860006B7E206184F82630AB7E23856A7F2B7FA8
:1048700043EA0223638495F82730012203F01F03E3
:10488000A3766376034BDA7270BD00BF4804001054
:104890004C120010240A0010F8B50E4615461C46AE
:1048A000462800F24E83DFE810F0FF0047004C007E
:1048B0005000550058005D006000620066006B000B
:1048C000C000C7000401790074007E0083008600E8
:1048D0008B009300B800BA00BC00FD0001014C033E
:1048E000060197009E00A800A600AA002F01220141
:1048F0004C014F01530157019F01D701FA013A02C0
:10490000490253024A03600265026B02720280028E
:10491000E401F0018E02C9023E01D3024C0396026B
:1049200041034503C101D30106024C039B02AE02C1
:104930002001BE020D023D039C4B01209874002310
:10494000A1E19A4B02229A7276E2994B1B68C3F35B
:104950004003FFE00A88022315E0954B1B68C3F370
:104960000013F7E00A8810230DE0914B24E00A8839
:104970004FF4807307E08E4B1B68C3F34023E9E0DC
:104980000A884FF400730AB18A4A00E08A4A136029
:10499000D5E21046214604F01BFED0E21046214627
:1049A00004F032FECBE2854B1B68C3F3C013D1E0A9
:1049B0000A88802307E0814B1B68C3F30023C9E00A
:1049C0000A884FF480730AB17D4AE0E77D4ADEE74A
:1049D0000322764B9A74B2E2052004F067FC00F0E3
:1049E00007002870DEE10988072900F2AA82052065
:1049F00041F00801F1E10522EBE70622E9E7724BFD
:104A00001A782A705A786A709A78AA70DA78EA70F6
:104A10001B792B710523236091E20022D9E7634BB8
:104A200097E00A78614B1A7089E2684B1A882A70FD
:104A30001B88C3F307239BE10A8840F6EA215B4BFE
:104A4000DA81DA8992B28A4204D901229A7240F656
:104A5000621215E000229A7240F6DC02D98989B20E
:104A6000914240F6E92184BFDA8992B2DA81DA898B
:104A700092B28A428FBF40F6EA224C4AD28992B261
:104A8000DA81D989514A89B2A2F852105B7C474831
:104A9000092B00F05482C3899BB213800023C38189
:104AA00010888CE104F0E4FD0023B4E7484A494B48
:104AB0001A600B228DE70A886FF400601318B3F5B3
:104AC000806F80F03E824B886FF400615918B1F519
:104AD000806F80F036829342C0F033823B49A1F868
:104AE0005420A1F856300422A5E10F22A3E10B883F
:104AF000B3F5807F00F22582344AC3F13603DBB27E
:104B000082F85830072296E1002313705370324820
:104B100005F0F0FCC6B2AE703246E81C2E4905F036
:104B200073FC03360BE02D4805F0E4FCC6B22846C2
:104B3000324600F8016B294905F066FC0136266013
:104B4000FDE1012010702EE10A88254B1A7034E136
:104B5000234B1B782B7025E1224C00220023C4E953
:104B60000023C4E902230026A85DF200002105F01D
:104B700035F9D4E90023013610431943082EC4E95E
:104B80000001F1D107350026F20015F8010F0021D0
:104B900005F024F9D4E90223013610431943082E05
:104BA000C4E90201F0D101F073FFC8E1240A00104A
:104BB00034C0092038C009203CC0092054C0092055
:104BC00058C009205CC009200817001048040010D4
:104BD00021BB05431C00001014AE0000FFA500001F
:104BE000D016001048170010A34B00221A60E81CD2
:104BF0006A1E19680902196012F8014F1968824289
:104C000041EA04011960F4D19C4B02229A729C4A39
:104C100001204FF080511874116029796A7942EAB5
:104C2000012298490A8008229A74F8BD934B052204
:104C30009A720E229A740023934900225A54013327
:104C40000A2BF9D1914B01201A70914B1870F8BDC5
:104C50008A4B0120D872F8BDAB7852781B0443EA26
:104C600002232A781343EA7843EA0263894A1360ED
:104C7000A3E00023E95C844A995401330A2BF9D15B
:104C8000834A012010702360F8BD00237E49002272
:104C90005A5401330A2BF9D17D490A70BBE67D4B8A
:104CA00019680023DA0021FA02F2EA540133042BD6
:104CB000F8D10423AFE612786B7843EA0223714AF5
:104CC00013803CE1744B10785278198842EA002234
:104CD0000A4492B21A801A88704812B2002A704AA6
:104CE00007DA1B884FF4A0715B429BB291FBF3F390
:104CF0000AE0198809B200290DDD1B884FF4A07164
:104D00001BB291FBF3F39BB21380664B19681388B7
:104D10009BB20B4401E00023138003600FE10B887A
:104D2000614D0022AB63554B2260DA7203229A7206
:104D300009229A7402F05EF9288840E000235A4A5A
:104D4000D9005268CA40EA540133042BF7D1B0E7C6
:104D5000937850781B0443EA002310780343D078FB
:104D600043EA0060FFF7F8FBD8E013231370372302
:104D70006B702EE04C4B5B69003318BF0123E9E6F2
:104D80000B88494A003318BF01235361D7E002F072
:104D900059F9014628B12846402205F035FB402349
:104DA00039E6287001202060F8BD344B00222260D3
:104DB0009A720A229A7402F01DF93B4B188880B24D
:104DC00002F006FABBE0087804F070FA030A2B70D0
:104DD000687002231FE60878498804F070FAAEE094
:104DE000002332885C1CDBB2934280F0A88003EB86
:104DF0004303EA1851789278E85C42EA012104F012
:104E00005EFA2346EDE70026F7B2384604F04EFA84
:104E10000136030A2E2E2F706B70A87005F1030562
:104E2000F2D18723F7E5927920480732D2B229469A
:104E300005F0EAFA1022114B9A7435E60F4C114630
:104E400004F12000062205F0DFFA0C23A37476E0BB
:104E50009479302C73D85CBB134D214605F13C008E
:104E60000622AC64FFF7C8F905F14200214606228C
:104E7000FFF7C2F963E000BF40120010240A0010DF
:104E800098C009209A13001033120010311200103C
:104E9000CF1600104C120010CC1600100417001092
:104EA0004812001044120010480400105012001064
:104EB000254C06322346A11D12F8010D03F8010FFF
:104EC0008B42F9D1214800210622FFF795F90523ED
:104ED000A87908280AD91E4AFF211A4482F84210EC
:104EE000AA79013B083ADBB2AA71F1E768B1002167
:104EF0000A46CDB2854204D2520842F08002013106
:104F0000F7E713490B4483F84220124A013423780F
:104F1000A179944203EA01032370F7D10C4B0120DD
:104F20009864F8BD0C4B01209862F8BD0A780A4BD2
:104F3000DA7404E0084B0D229A740A781A7501207D
:104F4000F8BD0020F8BD00BF830400108A040010E3
:104F50004804001088040010240A00102DE9F041D4
:104F600006460F46904602F053F80F4D044628B906
:104F70006B7843F004036B70BDE8F0810B4B067057
:104F80001B880026623BC670C0F80480837086725E
:104F9000C672394632220E3005F036FA6B786E70E2
:104FA00063700120BDE8F081240A0010480400105D
:104FB00070B54FF040231B68DB077DD53F49404B60
:104FC00008681A68024401321A6000220A603D49EA
:104FD00018683D4A8E7AD4690D4616B18E7A012E34
:104FE00005D11A68560635D10122EA7232E08D7A6F
:104FF000022D03D11A68D4072CD429E08D7A032D11
:105000001AD1157E032D25D1001B800722D1108CCB
:10501000013880B21084108C80B240B90120C8726F
:10502000918C014489B29184518C118412E0274AF9
:105030004FF4807111600DE0887A05280AD1244868
:105040000068B2F850201C6892B20244A24201D11A
:105050000122CA721F49204A0868C0B1108880B274
:10506000A8B91C680868844211D31C48008800B2A3
:105070000028B4BF41F66900012010801C68184860
:10508000046004681748008880B22044086040F635
:105090003440118889B2814282BF19680231196097
:1050A000138811499BB203F634430B60002313802D
:1050B00001224FF040231A6070BD00BF4012001063
:1050C0004C120010240A0010480400103CC00920B3
:1050D00028120010041700109A130010CC160010AC
:1050E000441200104812001018400040084B0422DF
:1050F0001A60084B4FF080521A60074B01221A7059
:10510000064B9A7A022A04BF00221A74704700BF25
:10511000AC8002409CC0092045170010240A0010F2
:1051200010B5284B5A7C012A11D05A7C082A0ED07F
:105130005A7C042A0BD05A7C092A08D05A7C0A2AA5
:1051400005D05A7C0C2A02D05A7C0F2A39D11E4A2B
:105150001268D10735D51D4A1268D20726D540F608
:1051600035441B4A012111609A7A1A48022A02BF6B
:10517000194A4FF080511160184A01681268C1F352
:10518000130104FB01225A600268C2F307529A70AD
:10519000134A128892B21A81124A134B1168186886
:1051A0001060124A1960136801331360104B1B68BA
:1051B000DB0706D50F4B01221A600F4A1368013333
:1051C000136010BD240A001000400050044000503D
:1051D000084000504C12001098C0092008400040C0
:1051E000480400108C120010A81300102C1200109C
:1051F0000C400050104000504017001008B5124BF2
:105200005B7C092B02D102F02DFB01E0FFF788FF48
:105210000E4B1B68190615D50D4B1B681A0641BFAE
:105220000C4B80221A600C4B44BF00221A600B4BBF
:105230001B681B0606D50A4B80221A60094B022206
:105240001A60FEE708BD00BF240A001000400050AD
:105250000440005008400050881100100C400050DD
:105260001040005038C009202DE9F04790B00546A5
:105270000C4691460DF103070DF1FF32E8B2013201
:105280002D0A0721002300F001068E40334311F15F
:10529000FF31DBB24FEA5000F5D2BA421370EDD1C4
:1052A000594E5A4F30880DF1040A80B201F030FD9A
:1052B000CC463B5CC9EB0C02A24221D21CF8012B6C
:1052C0004FF0070E4FF00008F81890F8280002F091
:1052D0000101414001337F20B3FBF0F001FA0EF1F0
:1052E000C0EBC01041EA08081EF1FF3EA3EB00032B
:1052F0004FEA52025FFA88F8E6D20AF8018BD9E742
:105300000D2047F6FF7103F0DAFF122042F622313A
:1053100003F0D5FF142041F24B3103F0D0FF2020E1
:1053200040F6014103F0CBFF3188022089B203F03F
:10533000C6FF05200B2103F0C2FF0320402103F02C
:10534000BEFF1421232003F0BAFFED074CBF4AF63D
:10535000AA2145F255512D2003F0B1FF082003F09A
:10536000A5FFC0F308010434064641F49C4108201F
:10537000E4B203F0A4FF04F043F84006FBD561203B
:1053800004F045F804F03CF84107FBD5204B4FF4FE
:1053900080721A6080221A620E2003F087FF00F0EC
:1053A0001F000F28F8D1632004F031F80025A54232
:1053B0000ED2184B1B685A07FBD4601BC0B21028D2
:1053C0000DEB050128BF102003F08CFF1035EEE730
:1053D0000E2003F06BFF00F01F000F28F8D10E4BDA
:1053E0004FF480721A60642004F011F804F008F899
:1053F0004307FBD4094B80221A600820314603F092
:105400005EFF10B0BDE8F0874804001058A500000A
:1054100038C0092054C009203CC009205CC00920C4
:1054200008B50D2047F6FF7103F049FF122042F640
:10543000223103F044FF142042F24B3103F03FFFCE
:10544000202040F6014103F03AFF05200B2103F034
:1054500036FF0320402103F032FF03F0D1FF420664
:10546000FBD5612003F0D3FF03F0CAFF4307FBD550
:10547000084B4FF480721A6080221A620E2003F0EB
:1054800015FF00F01F000F28F8D16320BDE8084089
:1054900003F0BDBF38C0092038B55D4C0023E3726E
:1054A0005C4B5D4A19681160A27A4AB9022003F088
:1054B000FDFE5A4B1B889BB2013B98427DD138BD03
:1054C000A27A012A30D1564B1978564B1878534A94
:1054D000138820339BB2138013889BB2B3F51B6FE4
:1054E00081BF13884F3B9BB21380002965D00028F1
:1054F00063D0138808259BB2A3F6621393FBF5F3E0
:105500001288494D92B2ED5C484BA2F662121340EC
:10551000002BBEBF03F1FF3363F00703013345FAED
:1055200003F3DD07D3D548E0A27A052A2CD13C4B02
:1055300019783A4A138820339BB2138013889BB2A0
:10554000B3F51B6F81BF13884F3B9BB213804F296C
:1055500033D0138808209BB2A3F6621393FBF0F3B9
:105560001288314892B2C05C304BA2F662121340EE
:10557000002BBEBF03F1FF3363F00703013340FA92
:1055800003F3D807D5D418E0A27A022A05D1186807
:1055900001F01EFB214B18800FE0A37A032B05D1ED
:1055A0001E4D281D01F0E4FB288006E0A37A042BA1
:1055B00001BFA389194A9BB21380642003F027FF1F
:1055C00003F01EFF4207FBD4607C144DC0B2298853
:1055D00002281CBF01F1FF31022089B203F06FFEE7
:1055E000A37A1BB1288880B201F0F2FD612003F09C
:1055F0000EFF03F005FF4307FBD501232374637CF3
:10560000022B0CBF63206220BDE8384003F0FFBED0
:10561000240A00104C120010281200104804001038
:1056200031120010CF160010331200100700008056
:105630002DE9F0474A4E1023336001F0DBFC03F004
:10564000AFFD01F0B1FE01F02FFFFEF791FE01F07A
:10565000F1FD444CA37CA046012B78D1102333608C
:1056600001F03EFD8025404BDFF820A11A683F4F36
:1056700099461ABB062003F019FE9AF80030C0F3D1
:1056800007205BB1802D09D1394B40B293F900500E
:105690003635A842B8BF2846C5B2284640B201F008
:1056A0003BFD386801F008FD98F80B3013B1FFF7A7
:1056B000F3FED8E74FF480733360D4E72D4B10220C
:1056C0002D4D1A602B681BB1637843F002036370A1
:1056D000D9F80030012B82BF637843F00103637077
:1056E000227C204B2AB15A7842F020025A700022C4
:1056F0001A74224B188880B201F02EFD9AF80030FF
:1057000013B91F4B1B7833B1637843F00803637000
:1057100000238AF80030164B1A4A93F9003092F9A8
:10572000002035339342B8BF63784FF00000BCBF10
:1057300043F010036370144B1968FEF7C1FE38681C
:1057400001F0BAFC0023C9F800302B6081E7A37C8C
:10575000082B83D001F0C8FEBDE8F04701F082BD00
:105760003CC00920240A00102C1200104C1200101A
:105770004417001038C009204017001048040010DA
:105780009813001030120010A813001045170010D5
:105790002DE9FF41934B0027D3E90245002304F094
:1057A000010213434AF6AA234FEAD57645F255582B
:1057B00008BF9846002F08BF012EE0B20CBFAA26F2
:1057C0005526FEF7C3FD8DF80000C4F30720FEF751
:1057D000BDFD8DF80100C4F30740FEF7B7FD8DF85D
:1057E0000200200EFEF7B2FD8DF80300E8B2FEF7CE
:1057F000ADFD8DF80400C5F30720FEF7A7FD8DF879
:105800000500C5F30740FEF7A1FD8DF80600280E40
:10581000FEF79CFD8DF807003046FEF797FD8DF8EA
:1058200008007720FEF792FD8DF809006620FEF74C
:105830008DFD8DF80A005520FEF788FD8DF80B00D0
:105840004420FEF783FD8DF80C003320FEF77EFD2B
:105850008DF80D002220FEF779FD8DF80E00112045
:10586000FEF774FD3C463B468DF80F0048FA03F204
:10587000C3F10F0102F001028A4001331443102BDF
:10588000A4B2F3D10D2047F6FF7103F018FD1220EA
:1058900042F6223103F013FD142041F24B3103F0A4
:1058A0000EFD202040F6014103F009FD21462C2089
:1058B00003F005FD2D20002103F001FD4A4B0220DD
:1058C00019884A4C89B203F0FAFC05200B2103F039
:1058D000F6FC237813B90320292104E02378012B57
:1058E0001DD10320402103F0EAFC01F00DFD03F07F
:1058F00087FD4506FBD5612003F089FD03F080FD9F
:105900004007FBD53A4B80221A600E2003F0CEFCF4
:1059100000F01F000F28F8D1632003F078FD142158
:10592000232003F0CCFC082003F0C0FCC0F30801E6
:10593000074641F49C41082003F0C1FC0026A37CEB
:10594000022B45D176082B4D2B68B6EB530F05D1B2
:10595000E37A002BF7D0FFF79FFDF4E7264B1A6898
:1059600040F6C9039A42F3D9244B4FF480722E6853
:1059700010201A60694603F0B5FC0E2003F096FC77
:1059800000F01F000F28F8D11D4B4FF480721A60F1
:10599000642003F03CFD03F033FD4107FBD403F02A
:1059A0002FFD4206FBD5612003F031FD03F028FDF9
:1059B0004307FBD50E2003F079FC00F01F000F28F1
:1059C000F8D1632003F023FD286801F075FBB6E7EA
:1059D0000C4B80221A600820394603F070FC04B09A
:1059E000BDE8F0814817001048040010240A001098
:1059F00058C009204C1200100840004038C009204F
:105A00003CC009205CC0092008B50F48FEF7A4FD82
:105A10000E4B0F4ADA600F4A1A6100221A845A614B
:105A20009A84DA641A765A769A76DA615A8483F816
:105A300026201A85DA621A865A8683F83420DA8696
:105A4000054BDA7208BD00BFD6BE898E480400102F
:105A500055555500AAAAAA00240A001010B5064CF4
:105A6000002120464FF48472FEF7C6FB4FF0FF334F
:105A7000C4F8003110BD00BF901200102DE9F047AE
:105A80006A4C0123824623706074FFF7BDFF684BA8
:105A90004FF08072674F1A6010233B6001F0AAFA42
:105AA00003F07EFB01F080FC01F0FEFCFEF760FCE1
:105AB00001F0C0FB0026A37C534540F0A5805B4B62
:105AC000DB899BB2CBB1642003F0A1FC03F098FC0E
:105AD0004207FBD4584B02201988013989B203F0E0
:105AE000EEFB612003F093FC03F08AFC4307FBD537
:105AF000622003F08CFC0023E381E37A13B1FFF70B
:105B0000CBFC02E04FF480733B6010233B6001F05C
:105B1000E7FA8025494BDFF844911A689846D2B9D4
:105B2000D9F80030BBB9062003F0C0FB444BC0F3EA
:105B300007201B785BB1802D09D1424B40B293F90D
:105B400000503635A842B8BF2846C5B2284640B2F4
:105B500001F0E2FADEE7D9F800301BB1637843F0D8
:105B600002036370D8F80030002B59D0334B1B6808
:105B7000012B82BF637843F0010363702E4B1888BA
:105B800080B201F0E9FA2E4A137813B92E4B1B7834
:105B900033B16378022643F0080363700023137067
:105BA000284B2A4A93F9003092F90020353393426A
:105BB00005DA6378022643F01003637000E07EB3D9
:105BC00023484FF4C872013E00F5C87104F01CFC74
:105BD000F6B200221E4B02F1320003EBC00000219E
:105BE0001C4D2B689B5C2D68DB094354AB5C013179
:105BF0005B00DBB20829AB54F2D10132322AE9D181
:105C0000E36A1348984758B9134B4FF080721A60F3
:105C1000FEF7AEFC01F068FCBDE8F04701F022BBE6
:105C20000023C8F80030C9F8003044E7240A001007
:105C300000E100E03CC00920480400102C120010D4
:105C40004517001044170010981300103012001070
:105C5000AC130010A813001080E100E04017001002
:105C60002DE9F04F93B0A74DA74C01232B7023765D
:105C7000A64B4FF08072A64E68741A6010233360F2
:105C8000804601F0B7F903F08BFA01F0D1FB01F087
:105C90000BFC606803F020FAFEF7BCFBB146AB7C5E
:105CA000434540F0A281974BDB899BB2C3B164208E
:105CB00003F0ADFB03F0A4FB4707FBD421880220CF
:105CC000013989B203F0FBFA612003F0A0FB03F075
:105CD00097FB4607FBD5622003F099FB0023EB817D
:105CE0001023C9F8003001F0FBF98A4B1A689A4674
:105CF00042B9894B1B682BB9EB7A1BB9814B9B7C52
:105D00004345F2D0062003F0D1FA844BC0F30720BC
:105D10001870834B7B4A1870AB7C434540F065811B
:105D2000DFF8F4B1DBF80030DC461BB1537843F008
:105D300002035370EB7A03F0FF01002B40F0A580C3
:105D4000DAF80030002BAAD0342205A8CDF80CC018
:105D5000FEF752FA2088636880B2059300F0D8FFFE
:105D6000302646436F4FBB1901936F4B18785A7812
:105D700093F802E01204D97842EA0060084340EA4E
:105D80000E20029303F0A8F9BE59029B7040C0F3A5
:105D90000526B71C272F0690DDF80CC075DC0836E9
:105DA000B2080B2A0DD003EB8203604A12689A42B4
:105DB0000BD2DCF80020002AF7D006E0DCF8003037
:105DC0001BB95B4B1B68D807F8D45A4A612013688B
:105DD00023F00103136003F01AFB04235249581CFB
:105DE000CA5C03F1030E11F800C0981C085C11F89E
:105DF0000EE099104EEA026242EA0C4242EA0020AA
:105E00000393029103F068F9029912AB03EB810E40
:105E1000019B53F82120039B504004332C2B4EF858
:105E2000300CDBD16369DBB9434B10221A6005A843
:105E3000AB699847414B4FF080761E6005A9012061
:105E4000FEF73EFB40F63541304B1E603C4B1A6876
:105E50003C4BC2F313021B6801FB0233E36414E002
:105E6000294B3A46186906A900F0D8FF12AB1F4427
:105E70001E4417F82F3C16F8342C1B0243EA024349
:105E800017F8302C13439842CED0612003F0BFFAAC
:105E9000284A136823F0010313602B4B1B68590732
:105EA00002D52A4B1B68F8E740F63541244B1A68A7
:105EB000244BC2F313021B6801FB0233E16C227E08
:105EC0008B4238BF03F14343A2F1020238BF03F50E
:105ED000A003012A03D81E4A5B1A934202D8EB6939
:105EE000012B51D1FFF790FD4FF480710023EB613E
:105EF000C9F80010E97C034A01292BD1D3749374AB
:105F000073E000BF240A00104804001000E100E024
:105F10003CC009202C120010401700103012001055
:105F20003212001048A600000D1700100441005066
:105F3000104100502400034038C0092080E100E0F7
:105F40004C120010084000400C00034008000340C1
:105F500080F0FA02B8F10A0F47D0012364202376BB
:105F600003F055FA03F04CFA4207FBD4B4F8523070
:105F70009BB223B1234BB3F852309BB201E040F601
:105F80006213238001232B632C20618903F097F98E
:105F90002D20218903F093F9EB7A0BB1FFF77CFAFE
:105FA000EB69194E002B05DDFFF73AFAF369013B67
:105FB000F36114E001F03CFA01F076FA336B3BB187
:105FC000606803F089F8FEF725FA0023336306E0E2
:105FD00003F016FA4307FBD5622003F018FA0023FA
:105FE000CAF80030CBF8003059E6084B4FF0807209
:105FF0001A60FEF7BDFA01F077FA01F033F913B039
:10600000BDE8F08F48040010240A001080E100E091
:1060100070B58EB014460D460646002101A8322206
:10602000FEF7EAF8312C2246294628BF31220DF12D
:1060300005008DF8046004F0E7F901A90520FEF7DA
:106040003FFA0EB070BD000038B540F6641231481A
:10605000314C03889BB293420DD140F635412F4B12
:106060001A682F4BC2F313021B6801FB02336363F0
:1060700040F6661348E040F6661103889BB28B42F7
:1060800044D140F63541254B408C1A68244BC2F36D
:1060900013021B6801FB0233626B1E4993423CBF33
:1060A00003F1434303F5A0039B1A41F66A0202FB86
:1060B000003343F2D4024243B3FBF2F3242B21D842
:1060C000184A4008134493F8703825258B7601331D
:1060D000088493FBF5F005FB103300224B76032078
:1060E000114B8A84CA61E2724A61087601221A3130
:1060F000A361A072FFF78CFFE37C53B1064B28220B
:10610000DA6138BD40F66413A38100E0A281012367
:10611000E37238BD48040010240A00104C1200102D
:106120000840004058A500002547000038B540F65B
:106130003544244B244A1B681268C3F3130304FB41
:10614000032446F2A712214DAB6B9C423EBF04F1E3
:106150004344A4F56514A4F5A254E31A934230D93C
:106160001B4A1B48D2F800118B4238BFC2F80031DD
:10617000D2F80031174A03F5613303F25233B3FB0F
:10618000F2F315499BB24A8C9A4215D1D0F80431EA
:106190000133052BC0F8043112D1104B0220AB6142
:1061A00040F66413AB810423AB7222310123024613
:1061B000EB72FFF72DFF03E04B840023C0F804319E
:1061C000AC6338BD4C12001008400040240A001097
:1061D00090120010A40E070048040010496000004F
:1061E00038B5184D01466B6953BB0379012B27D194
:1061F00044792CBBCB79007A1B0243EA00438879AF
:1062000002221843043100F0DFFD23462246E860F5
:1062100020FA02F1C2F1170401F001010132A1409C
:10622000182A43EA0103F3D12B61074A074B0120E7
:106230009A61686106490322BDE83840FFF7E8BE6D
:1062400038BD00BF480400102D610000240A001072
:106250005404001030B50022124B53F8324003EBC7
:10626000C201844203D14B6801334B6030BD01321F
:10627000202AF1D14FF0FF310C46002203EBC2057A
:106280006D68A54201DB002C01DA11462C46013273
:10629000202AF3D143F83100012203EBC1035A60F5
:1062A00030BD00BF901200102DE9F04194B00021E4
:1062B0000446402204A8FDF79FFF01238DF810300B
:1062C0008DF820308DF823308DF830308DF8323055
:1062D0008DF840308DF842308DF843300027584D0E
:1062E000584E288880B200F013FD335C002104AAC8
:1062F0003A44F01812F801E090F8280001338EEAD1
:10630000000050547F22B3FBF2F20131C2EBC21203
:106310001029A3EB0203EAD11037402FDFD1202749
:10632000EE46494B0FCB8DE80F00002204AB03EB88
:1063300002110023E01910F803C0C85C844503D0A3
:1063400000234EF8223002E00133102BF2D101324B
:10635000042AEBD100235EF823201AB90133042B61
:10636000F9D149E0288880B200F0D2FC315C0022EB
:106370004FF0000CE64607EBC2080EEB080323447F
:10638000032A13F8203C0ADD701890F82800013128
:1063900043407F20B1FBF0F0C0EBC010091A03FAB4
:1063A0000EF30EF1010E43EA0C03BEF1080F5FFA83
:1063B00083FCE2D1DFF8A880D8F8003003F802C0EF
:1063C00001320A2AD4D1D8F80030DB78D8F800207E
:1063D0009278D8F8001012044878D8F8001042EAF1
:1063E000036309780B4343EA0020FFF733FFD8F833
:1063F00000100120FEF764F80137B7F53C7F8FD11C
:106400000023124A02EBC3014968032911DD52F847
:106410003300FEF7A1F80E4B0E4A0024DA620E4A52
:1064200020469A610D4904226C61FFF7F1FD204678
:1064300003E00133202BE4D1012014B0BDE8F0814A
:106440004804001058A50000F0AD000090120010A4
:10645000240A001021460000E16100004C040010F5
:10646000A813001038B5164CA37C0A2B26D1154D65
:10647000FFF7F4FA2B88DB0744BF40F688132B8024
:10648000AB6C4BB90F4B188880B200F0A1FE0E4BDD
:106490000A20E362FFF7F2FAA47CE4B20A2C0DD1E1
:1064A00000200A490422FFF7B3FD094A044B2046A5
:1064B0009A6100236B61FFF7D3FBD4E738BD00BFBF
:1064C000240A001048040010A96200004C040010C7
:1064D000E16100007FB56A466C46244B03F1080673
:1064E000154618685968083303C5B3422A46F7D1E0
:1064F00018689B882860AB800DF1010205231C49B8
:10650000595C13F1FF3302F8011FF8D2194B2146F1
:1065100018690B2200F03BFC030A8DF80B00000CFD
:106520008DF80C308DF80D0000F0EEFE124B9B7CC8
:106530000C2B19D1114B4FF080764FF080651E6007
:1065400022461D600E480E21FEF78EFE0D4B0E4AB0
:106550001E601D60136823F07F432033116821F013
:106560007F419942FAD3E1E704B070BD00AE00006C
:10657000440A001048040010240A001080E100E0E2
:10658000D6BE898E00E100E04C12001010B58AB032
:106590002D2002F08BFE030A8DF805002C208DF8CB
:1065A000043002F083FE030A8DF806308DF80700F0
:1065B00000F020FD00F0A8FE02F022FF4106FBD50E
:1065C000612002F024FF02F01BFF4207FBD5154BB0
:1065D00010221C461A60144A802111604FF4807109
:1065E00011600E2002F062FE00F01F000F28F8D1AB
:1065F000622002F00CFF0D4B02221A6002F000FF35
:10660000C306FBD50223236002A9202002F0AEFEC0
:1066100001A90020FDF754FF054B186800F04CFD60
:10662000DFE700BF38C0092058C009203CC009205E
:106630004C12001008B5202002F038FE08B1FFF718
:10664000A5FF034B03221A70BDE80840FEF7F0BF18
:10665000240A00102DE9F041354D10232D206E7CC9
:106660006B7402F023FE80462C2002F01FFE314C9A
:10667000074621882D2002F022FE2C20618802F09E
:106680001EFE0320572102F01AFE142041F24B3166
:1066900002F015FE202040F6617102F010FE02208B
:1066A000A18802F00CFE0520E179F6B202F007FEA7
:1066B00002F0A6FE4106FBD5612002F0A8FE02F022
:1066C0009FFE4207FBD51C4B4FF480721A6080225C
:1066D0001A620E2002F0EAFD00F01F000F28F8D128
:1066E000A079164902F0FEFD632002F090FE0E2014
:1066F00002F0DCFD00F01F000F28F8D1104B4FF422
:1067000080721A60642002F082FE02F079FE430774
:10671000FBD40C4B80221A602D20414602F0CFFDA5
:106720002C20394602F0CBFDAE74BDE8F08100BFED
:10673000240A00105012001038C00920581200100E
:106740003CC009205CC009202DE9F0418EB03D4BD2
:1067500010221A6000F04EFC00F0D6FD3A4B802269
:106760001A60122042F6223102F0A9FD142041F2F3
:106770004B3102F0A4FD202040F2011102F09FFDF8
:106780000320292102F09BFD02F03AFE4106FBD5D1
:1067900002F036FE00F0040000F0FF040028F7D1FC
:1067A0002A4B9B7C042B47D1294B9846B3F8545075
:1067B000ADB2B8F856309BB2AB42F1DB691E022095
:1067C00089B202F07CFD612002F021FE02F018FE89
:1067D0004207FBD5622002F01AFE4FF4FA730093D1
:1067E000009E013E0096002EFAD104EB44070EAB4A
:1067F0001F4406202B0A07F8343C07F8335C02F0EC
:1068000055FD0134E4B2000A102C07F8320C09D10E
:1068100004200DEB0001FDF753FE0E4B34461868C3
:1068200000F04AFC642002F0F2FD02F0E9FD4307AB
:10683000FBD40135ADB2BCE7074B10221A600EB095
:10684000BDE8F08138C0092058C00920240A001092
:10685000480400104C1200103CC009201FB5444BE6
:10686000802218689B880290ADF80C30414B1220B2
:106870001A6042F6223102F022FD142041F24B311F
:1068800002F01DFD202040F2011102F018FD03204E
:10689000292102F014FD0620F12102F010FD02F082
:1068A000AFFD4106FBD502F0ABFD00F0040000F0A7
:1068B000FF040028F7D1304B9B7C072B56D104AB4B
:1068C00003EB440333F8081C0220013989B202F0BB
:1068D000F6FC612002F09BFD02F092FD4207FBD521
:1068E000622002F094FD4FF4FA730193019B013B87
:1068F0000193002BFAD1062002F0D8FC1F4B40F385
:10690000072093F858305BB298420CDD012C07D079
:1069100003D3022C16D11A4B13E04FF4807200E01F
:106920001022174B0BE0012C07D003D3022C09D106
:10693000144B06E04FF4807200E01022114B1A60F5
:1069400000E01C600134032394FBF3F303EB4303E7
:10695000E41A0D4BE4B2186800F0AEFB642002F0BC
:1069600056FD02F04DFD4307FBD4A4E704B010BD73
:106970000EAE000058C00920240A00104804001080
:1069800038C009203CC009204C12001008B502F0A4
:10699000F9FD00F0BFFC384800F006FBFDF7E8FD0C
:1069A00000F0D6FC002001F0E3FF3448344902F047
:1069B0003BF8344B344C186800F07EFBA27C637CBF
:1069C0009A42F6D0A37C102BF3D8DFE803F05111E4
:1069D00016283D2F37401B1D220925430F494E0025
:1069E000012002F093FB02F0D7FDE2E70E2300E066
:1069F00001236374FEF71CFEDBE702236374FEF7DA
:106A0000C7FED6E70823F4E70923637401F0CEF844
:106A1000CFE7FFF727FDCCE7FFF75CFDC9E70323CE
:106A200019481A49637401F0F9FCC2E705231748B5
:106A3000637401F0E9FA0023A374BAE7062313484C
:106A4000637401F02FFCB4E7FFF77EFEB1E7FFF7B8
:106A500005FFAEE70D236374207D01F04BFFA8E72F
:106A60000F236374FFF7E6FDA3E7FFF7F3FDA0E74D
:106A7000FDF77EFD9DE700BF994800001FAE0000B6
:106A8000FFA500004C120010240A0010480400105A
:106A9000F0B5444B444A002000211B68C2E90001C4
:106AA000002255004F2195FBF1F401FB14513F48A2
:106AB000115401324F2AF4D13D4AC3F3C45111702D
:106AC000C3F30715C3F3C7043A4AC3F3C34105F040
:106AD000100704F0080611703E44C3F3870103F069
:106AE000010EC3F34702764401F00407374402F075
:106AF00002063E44304F05F008053E702F4EC3F3AA
:106B0000882737809E0906F02007DE0906F0400638
:106B10005B093E4403F0100333442B4404F00404A7
:106B2000234401F00201194402F00102244B0A44FB
:106B30001A70244B1B789BB3002213462249002570
:106B4000545C4FF0000E54EA05075FFA8EF60EF122
:106B5000010E06D014F1FF3645F1FF3734403D40B9
:106B6000F1E7013233440A2ADBB2E7D1174A137046
:106B700000231C464F2593FBF5F205FB1232D6B2DB
:106B8000F5084D5D02F0070245FA02F2D20748BF50
:106B9000621C03F1020344BF0655D4B29E2BE9D117
:106BA000F0BD00BF48170010A0130010AD17001073
:106BB000AB17001058170010AC1700105A17001030
:106BC000FC170010CF160010331200103112001005
:106BD000F0B587B0C0F3D8044F2324F00F04B4FB02
:106BE000F3F203FB1242404BC0F340061B787101E5
:106BF00083EA104303F01F038DB2891B59403B4BBE
:106C00003B4E1B78367883EA505303EB9003734076
:106C1000384EC9B2368803F01F0386EAD010C0F39D
:106C20000800002640FA06FE02AF0EF0010E06F83C
:106C300007E00136092EF5D100204EB207EB000E19
:106C40000641013006F0010605288EF80960F4D1EE
:106C5000002143FA01F000F001000DF801000131BC
:106C60000529F6D10D217B5C83B1234B06AEC85CB0
:106C70000E33CB5C0DF1180E3044734410F8186CD1
:106C800013F818EC00F818EC03F8186C11F1FF3148
:106C9000E9D2002319461DF8010088400131034460
:106CA0000529DBB2F7D115494F2009781944AB18F3
:106CB0000B44B3FBF0F200FB1233114AD05C114BD2
:106CC0001B786BB1104B1B78B4FBF3F203FB12443F
:106CD00025440D44B5FBF3F403FB14550B4B585DF1
:106CE00000F6621007B0F0BDAC170010AB17001033
:106CF000581700105A1700103CAE0000FC17001087
:106D0000AD170010CF160010311200105C170010E4
:106D10000223A0F6621090FBF3F083B253B10B2B69
:106D200001D8013804E00C2B06D0262B06D80238F7
:106D3000C0B2704725207047262070472720704733
:106D40000A2803D8400000F664107047242803D8AE
:106D5000400000F666107047252806D0262840F629
:106D60007A1018BF4FF41B60704740F662107047EE
:106D700038B50446457D2846FFF7E2FFA37D25216F
:106D80002B4493FBF1F201FB1233637538BD70B5F0
:106D90000B4620F07F405C1A944214DA13F8015B32
:106DA000082485EA000616F0010F4FEA50001EBFC6
:106DB00040F4000080F4B40080F4C040013C4FEA8D
:106DC0005505EED1E7E770BD70B5013A002A14DB36
:106DD0008E5C0724C50D400020F07F4346FA04F086
:106DE00000F00100684018431DB180F4340080F4C5
:106DF000404014F1FF34EDD2E7E70023194620FAB2
:106E000003F2C3F1170402F001020133A240182B70
:106E100041EA0201F3D1084670BD000030B50C46CE
:106E200020F07F40631A934209DA14F8013B044DC5
:106E30004340DBB255F8233083EA1020F2E730BD3F
:106E4000A4040010F8B5064690B20C46FFF760FFA8
:106E5000144B31191D5C9E463046884220D00027D5
:106E60003E4690F800C00EEB050292F8284001352E
:106E70007F22B5FBF2F2C6F107034CFA03F303F0ED
:106E800001036340C2EBC212AD1A03FA06F20136E7
:106E900047EA0203082EDFB2E5D100F8017BDCE708
:106EA000F8BD00BF58AE0000F8B505460C460846D0
:106EB000C0220021FDF7A0F9681E0023043510F858
:106EC000012F03F1080612F001011DBF012144F852
:106ED0002310D4F8BC1044F823101EBF671887F89D
:106EE0009430013103F1010318BFC4F8BC10252B05
:106EF0004FEA520202D0B342E5D100E01E46A8425A
:106F000001D03346DBE7F8BD51F8203043B9D1F862
:106F1000BC20B0FBF2F302FB1300014491F8940093
:106F20007047000013B50B4641881268ADF8041095
:106F300081884078ADF8061004490C6801A9A04783
:106F4000431E5842584102B010BD00BF0439001022
:106F500010B586B00446694601A802F055FB9DF8BD
:106F60000430F3B920460DF10501403411F8013B1E
:106F700004301A09092A03F00F038CBF573230324C
:106F8000092B80F8782088BF57334FF0000298BF54
:106F9000303380F8792080F87A3080F87B20A04266
:106FA000E4D106B010BD000038B505460C4C02F027
:106FB00007FC2046FFF7CCFF204602F041FE094BBC
:106FC000094A022009491D6002F0F0FB0849FF2030
:106FD00002F020FE012002F08AFC002038BD00BF34
:106FE000A40800100439001000380010256F0000BC
:106FF000FFAE0000044B002104484FF4005219601A
:107000005960FDF7F9B800BF600A001000180010C1
:107010000A4B1968586801F07F0100F07F00421C9C
:1070200002F07F0291421FBF5A6801325A60044B3E
:1070300014BF03EB80100020704700BF600A0010EF
:1070400000180010084B18685A6800F07F0002F022
:107050007F0290421FBF1A6801321A60034B14BFAF
:1070600003EB801000207047600A00100018001029
:1070700037B50546FFF7E6FF0D4B044638B18220D1
:10708000214640229D6002F063FC01200EE09A68D8
:107090000849AA1A8A4208D9032202A901F8012D37
:1070A000822001229D6002F053FC204603B030BDD7
:1070B000600A0010801A060038B50446822002F0EB
:1070C00021FC8206054602D42046FFF7D1FF6B065D
:1070D00002D42046FFF7CCFFBDE8384002F0A8BC40
:1070E00008B59E2207480021FDF786F8064A0023CE
:1070F0001370064A1360064B80221A70054B7F22DC
:107100001A7008BD6C0A0010CE1600100839001065
:1071100030120010321200100B4A92F900308342F4
:10712000B8BF03461370094A92F900308342A8BFE2
:1071300003461370064A136803EB00231360054AE5
:1071400013780133137070473012001032120010A0
:1071500008390010CE16001010B540F66213B0F5D5
:107160001B6F38BF18460D4BA0F662101B7823B179
:107170000B4A1268803292FBF3F30A4903EB430394
:1071800031F91020FD2404FB02334FF48072803368
:1071900093FBF2F321F8103010BD00BFCE160010A3
:1071A000083900106C0A001040F66213B0F51B6F2E
:1071B00038BF1846054BA0F6621033F910004FF4A3
:1071C0008073803090FBF3F040B270476C0A00107F
:1071D00038B5154D2C7863B2002B05DDFFF7E4FFC1
:1071E0002C78363C2044C4B264B26FF077008442FD
:1071F000B8BF04466FF013039C42A8BF1C46E4B21C
:1072000004F1380141F003010620C9B202F057F839
:10721000064B1C7064B214F1770F054BACBF002411
:1072200001241C7038BD00BFD01600104417001098
:1072300098130010074B00221A70074B4FF40012EE
:107240001A60064B04221A60054A136843F00403CF
:10725000136070474517001000E100E0AC80024069
:10726000B4800240074A136823F004031360064BFE
:1072700004221A60054B4FF400121A60044B0022DE
:107280001A707047B4800240AC80024080E100E098
:107290004517001008B5FFF7E5FF044B00221A70F0
:1072A000034A88231370034A137008BD9813001013
:1072B000D0160010441700100A4B02221A600A4A26
:1072C00000231360094A1360094A1360094A1380B6
:1072D000094A1380094A1380094A1360094A136056
:1072E000704700BF044000404C12001028120010EC
:1072F000401200109A130010CC1600104812001013
:107300004412001004170010014B01221A6070474C
:107310000440004008B5FFF7CFFF064B04221A6077
:1073200040F63442DA6003229A60034B02221A606C
:1073300008BD00BF0C40004000E100E008B5FFF7C9
:10734000BBFF024B02221A6008BD00BF80E100E0D3
:10735000114A136843F000531360104B4FF08062E2
:107360001A600F4A00231360136213641366C2F895
:107370008030C2F8A030C2F8C030C2F8E030FF233D
:10738000A2F5847213609360064B01221A601A689A
:10739000D207FCD5704700BFC4C00F4000E100E039
:1073A000104100503040005030B5144A01231360A2
:1073B00013489360134C144B144A1549146093609E
:1073C0005160D0609A60134D134A5D601C60D860B4
:1073D0001460516093604DF20602104B1860104823
:1073E0005A60002202600F4802600F4A11600F4A83
:1073F00015605A6842F001025A6030BD08400050E2
:107400003290008808000340BC390010CC390010CD
:107410000D170010D1160010004100500C41005013
:107420002C120010401700108C120010A81300102E
:10743000154A012313609360144B002214490A2A51
:1074400043F8101C134901EB820143F80C1C14BFD4
:107450001946002143F8081C01320F490B2A43F852
:10746000041C03F11003E9D10C4B0D4A196811609B
:107470005968516099689160DA680A4B1A604DF258
:1074800006025A60704700BF084000501C390010C7
:10749000080003400D170010041000880C3900107C
:1074A000004100500C4100500B4B0C494FF08052F2
:1074B0001A600B6843F001030B6051F8203C43F065
:1074C000020341F8203C06490B6843F001030B60BE
:1074D000044B1A60704700BF98C009202400034085
:1074E000104100509CC009200B4B4FF080521A6095
:1074F0000A4A136823F00103136052F8203C23F07A
:10750000020342F8203C064B00221A60054A012380
:1075100013609360704700BF98C0092024000340A7
:10752000104100500840005030B50C4B0C490D4A3A
:107530000D4803F110044D1CDA60186059609C601E
:107540001861DA615D619B61084B186059609C604D
:10755000DA604DF206021A6130BD00BF0C0B00105C
:107560001C3A001001000080080003400041005058
:10757000034B044A1860136843F00103136070471B
:107580001880004014800040054B064A1B681E33DB
:10759000136052F80C3C43F0400342F80C3C704737
:1075A000088000402080004070B50546002003465A
:1075B000934206D06C18E45CDE00B44020430133F3
:1075C000F6E770BD10B5084A431E0530D47913F8AC
:1075D000011F214012F8014F8C4203D18342F5D1A3
:1075E000012010BD002010BD8304001010B5054C13
:1075F000002104F120004FF4E472FCF7FDFD024B82
:10760000236210BD0C0B0010D6BE898EF8B5002188
:107610004FF492734B43124C04F5F4751D44D5F8A6
:107620001821B2B11C440026C4F80063C4F8F0620B
:10763000C4F8EC62284631464FF48272FCF7DCFD58
:107640007F2384F80433802384F80533C4F8086367
:1076500003E001310429DBD115462846F8BD00BFFF
:107660000C0B001010B51B4B186A01F035FD0446D9
:1076700047F6FE710D2001F022FE122042F6223163
:1076800001F01DFE142041F24B2101F018FE2020D4
:1076900044F2E14101F013FE2C20A1B201F00FFEF3
:1076A0002D20210C01F00BFE0B4B02201988013913
:1076B00089B201F004FE0320402101F000FE01F038
:1076C0009FFE4306FBD5612001F0A1FEBDE81040FE
:1076D000FFF75ABF0C0B00100C3A001070B5642075
:1076E00001F095FE284A136823F001031360274B2D
:1076F0001C6814F0040402D0254B1B68F7E7254DE5
:107700004FF48272D5F878662146C6F80841C6F86B
:1077100004413046FCF770FD7F2386F81C3180233E
:1077200086F81D31C6F82041FFF7FEFEFFF7BCFECC
:107730002A6A194B9A420ED140F67A12174B1B88CF
:107740009BB2934205D0B3F51B6F0CBF27202520B9
:1077500012E0262010E095F82C0095F82D30252217
:10776000184490FBF2F302FB130005F14001C0B294
:1077700085F82C00FFF7C8FBFFF7E2FABDE8704080
:10778000074B1880FFF76EBF240003400C00034036
:10779000080003400C0B0010D6BE898E9A0400101E
:1077A0000C3A001038B52B4A2B4B5468022C01D1EF
:1077B00010680EE0012C3AD1D3F80411002936D01C
:1077C000D3F80051196B106829441E31091A3B295E
:1077D0002DD80121C3F80001C3F804111F4814B1CA
:1077E0000168C3F80811002151609160B3F80C21C1
:1077F000194C0132A3F80C210268D3F808015B6B25
:10780000121A9A4203D8164B1A6832B11960FFF760
:10781000EDFEBDE83840FFF761BFD4F80001236BEF
:107820001844A0F6B830BDE83840FFF7A1BED3F841
:107830000401094930B1D1F800010D6B2844C1F8A9
:107840000001CBE71068C1F8000104480068C1F8E6
:107850000801C3E7103A00100C0B0010088000402C
:107860004C0A00102DE9F0416D4D6E4B2F681B68DE
:10787000D80740F1D2806C4B1B68D90740F1C68015
:10788000DFF8DC810123C8F80030062001F00EFD8E
:10789000664CC0F30720D4F8783641B293F91C2126
:1078A000D3F820618A4293F91D21C8BF83F81C01D7
:1078B0008A42D3F80821B8BF83F81D015C480E4402
:1078C00002F00101415CC3F8206199540132012AA0
:1078D000C3F8082118D15749A7F5C872C3F80C217D
:1078E0000A88088892B2C3F81021226A80B2C3F8CD
:1078F0001421FFF70DFA242800F288804E4A1368FD
:1079000023F00103136081E0022A30D1B3F81001A3
:107910005D78FFF7FDF949497F220B5C00260833AB
:10792000B3FBF2F237468E46C2EBC2129B1A0EEB45
:10793000030191F8280001337F21B3FBF1F1C7F176
:10794000070245FA02F202F001024240C1EBC11106
:107950005B1A02FA07F1013746EA0102082FD6B294
:10796000E5D1D4F87836721DC3F804214EE04DD924
:10797000D3F804319A4249D3612001F048FD304BDD
:1079800000221A6001232F4AC8F80030136823F040
:10799000010313602C4B1B685A0702D52B4B1B6845
:1079A000F8E7D4F878162A4800F010FB214B1F4E58
:1079B000188880B2FFF7ACF924281DD8254A5368EF
:1079C0000133012B53600AD1D6F87836D3F80C3145
:1079D0001360286800F6B830FFF7CAFD0CE0022BF0
:1079E0000AD1642001F013FDFFF710FEC6F87806F7
:1079F000BDE8F041FFF7D6BEFFF708FEC4F87806F1
:107A0000FFF792FDFFF750FDFFF7BEFD124B1B681D
:107A1000DB0742BF114B01221A60BDE8F08100BFB5
:107A20000880004000400050044000500C0B001043
:107A30001C3A00100C3A00101480004026AF0000E1
:107A400010410050240003400C0003400800034094
:107A5000DC390010103A00100C400050104000506B
:107A60000840005038B54A4B1A68D0075FD5494ADC
:107A70000124D2F810111C60474D134691B3B2F89F
:107A80000C01B2F81C1188422CD1A96861B9D06BE5
:107A900050B1D2F800310344106BA3F6B833184448
:107AA000FFF766FDAC6038BD0122AA600022D3F862
:107AB0001401C3F80421C3F81021D3F80021D3F82E
:107AC00018110244186302F5A542D86B596350326D
:107AD00093F8383010441844FFF74AFDBDE83840A9
:107AE000FFF7FCBDD3F820312A4C7BB1B4F80C2150
:107AF000B4F824319A4209D104F1400004F594719C
:107B0000C02202F081FC0023C4F82031AB6863B9C5
:107B1000214B01229A60214B186800F5BD400830C6
:107B2000FFF726FDFFF7DAFD01E0FFF73BFE184BFC
:107B30001A6891070DD51A4902221A600B6823F0C2
:107B400008030B60174B4FF4807119601021196006
:107B50001A600F4B1A68520718D504221A6001F0F8
:107B60004FFC43070ED5622001F051FC0E4B8022E2
:107B70001A604FF480721A60094A136823F04003B8
:107B8000136038BDBDE83840FFF7FEBC38BD00BF0C
:107B9000008000400C0B0010103A001008800040DC
:107BA000148000403CC0092058C009202DE9F04F46
:107BB00087B0B84F4FF08073B74C3B60FFF7BEFB08
:107BC0000125B64EB648C4F80053C4F82454C4F88E
:107BD0004855C4F86C5600F0F5F90223B14A3360F9
:107BE00004231360B04A35601360FFF70FFDAF4BFD
:107BF000AF4A1B88C4F878069BB21380AD4BB046E1
:107C00002362FFF7F7F901F0CBFAFFF78DFCFFF7DE
:107C10004BFCFFF727FDA84B00229A461A600197FC
:107C2000A64B1B78092B40F0B58106A9002341F82B
:107C3000043D9B4800F0D8F9002800F0A781059882
:107C40009F4ED0F80411D0F81021FFF7FBF8736CA9
:107C5000059D5BB3B5F81001FFF75AF8242825D924
:107C60002A7802F00F02062A00F28C810123934049
:107C700013F0550F03D113F02A0F07D182E1D5F885
:107C80000431072B40F27E81A81C0AE0D5F80431AC
:107C90000D2B40F27781A81CFFF794FC30B905F159
:107CA0000800FFF78FFC002800F06C81854B102244
:107CB0001A60854B854A1B68DFF820B203F5C33391
:107CC000A0331360DBF80030059F43F00803CBF8C6
:107CD0000030FFF79DF9054668B34FF00009012316
:107CE000037080F80390D7F80C3107F58A71436070
:107CF000D7F810310E30623B00F80C3CD7F8042165
:107D0000D7F82031B3FBF2F300F8043C97F81C31AC
:107D1000042200F8053C97F81D3100F8039C00F898
:107D2000063C02F071FB05F1120039462E2202F0EA
:107D30006BFB85F80190059DB5F81001FEF7E8FF93
:107D40002428297840F2998001F00F01052940F09C
:107D50001981736B002B00F01581D5F80431272BA6
:107D600040F01081DAF8003013B1534B00221A6052
:107D70000E2104222846FFF717FC1221032220625D
:107D80002846FFF711FC606201F0A6F91521A062F8
:107D900001222846FFF708FC162184F838000390DA
:107DA00002222846FFF700FC1821E06302228146E8
:107DB0002846FFF7F9FB1C210646206302222846CD
:107DC000FFF7F2FB23216063029001222846FFF7B0
:107DD000EBFB40F67A42B11F00F01F0091422E4F9C
:107DE00084F82D0046D843F2D402564302FB09F131
:107DF000B1423E63F963DDF808C0039B3AD8DBB2B9
:107E00005A4343F2D3039A4234DD314BA6F543562D
:107E1000143E9E4228BF1E46B2422BD803FB0CF3F1
:107E2000A3F5742C7B632B4BACF5107C9C4521D8BF
:107E300005F11E0007F14001FFF736F8D7F8FC30D6
:107E4000C3B1DBF80030002223F04003CBF8003050
:107E5000214BD5F80C015A609A60FB6BD5F80421D0
:107E6000034403F51A532C33502000FB0230FFF774
:107E70007FFB87E0FFF7BAFB84E001F003010329F1
:107E800040F080806B78002B7CD0AA7842B3012A26
:107E900069D077E080E100E00C0B00100480004026
:107EA000DC3900100C80004000E100E09A04001072
:107EB0000C3A0010D6BE898E4C0A0010360A00100B
:107EC0004C04001038C00920088000401C8000408D
:107ED000A0860100C08D0313103A001014800040EA
:107EE0000C2B4FD1012228460293FFF75DFB0421A2
:107EF000C6B20222284684F83860FFF755FB0621F7
:107F00000746E06302222846FFF74EFB0A2183461C
:107F1000C4F8140102222846FFF746FB029B814663
:107F2000C4F81801194628460222FFF73DFB06EB6C
:107F3000460306EB830306EB830643F2D4035F4359
:107F400003FB0BF3C4F814311B4BB60003FB09F31E
:107F5000C4F818310123A4F81C0184F83860E763E1
:107F6000C4F810310EE0082B0CD1C4F820211946BA
:107F700028460222FFF718FB1049A4F82401E81C48
:107F8000FEF792FF059B0122C3F818210020FFF79E
:107F900093F845E6019902220423C8F800200B60FB
:107FA000074B102119604FF4807119601A60FFF7B8
:107FB000B1F907B0BDE8F08FA0860100340C0010C5
:107FC0003CC0092000238362C3627047C36A826A8F
:107FD00001330A2B28BF002393421DBF40F8231012
:107FE000C362012000207047836AC26A934209D0AD
:107FF00001330A2B28BF002350F823200A60836234
:1080000001207047002070472DE9F04798B000AF7D
:10801000152387F84830002387F8493082463A23F1
:1080200007F1600040F8583D984B07F11C011B68B0
:10803000C7F804D098473A7F002A40F022813B6A73
:108040001220190E87F84A10190C87F84B1087F880
:108050004D30190A7B6A87F84C10190E87F84E10BC
:10806000190C87F84F1087F85130190ABB6A87F846
:108070005010190E87F85210190C87F8531087F812
:108080005530190AFB6A87F85410190E87F85610F4
:10809000190C87F85710190A87F8581087F85930C3
:1080A00042F62231FF2387F85A2087F85B2087F8B1
:1080B0005C3087F85D3001F002F9142041F24B3159
:1080C00001F0FDF8202040F6F15101F0F8F8BAF87F
:1080D0000010022089B201F0F2F82D204FF6AE1107
:1080E00001F0EDF82C2041F2845101F0E8F8052070
:1080F000082101F0E4F80320292101F0E0F801F063
:108100007FF94206FBD5612001F081F901F078F991
:108110004307FBD55E4B4FF4807298461A605D4A68
:10812000802111600024E5B2052045F0080101F02E
:10813000C6F8002687F85A5087F85B600E2001F0D9
:10814000B5F800F01F000F28F8D14FF0000907F133
:10815000480515F80910702009F1010901F0BDF872
:10816000B9F1160FF3D16320013601F050F9102E4A
:10817000E2D10134082CD6D10E2001F097F800F09E
:108180001F000F28F8D1444C4FF480732360642003
:1081900001F03DF901F034F94607FBD4BAF80010BC
:1081A0000220013989B201F08AF801F029F940066C
:1081B000FBD5612001F02BF901F022F94107FBD535
:1081C0001023C8F800300E2001F070F800F01F00F6
:1081D0000F28F8D1622001F01AF901F011F9C20656
:1081E000FBD50223C8F800304FF00009702001F0E1
:1081F0006BF807F1300606F8090009F10109B9F139
:10820000160FF3D101F0FCF8030702D40223236018
:10821000D9E70E2001F04AF800F01F000F28F8D12E
:10822000642001F0F4F801F0EBF800F0040000F035
:10823000FF030028F7D1194A802111601022226023
:1082400097F84200164A0121507097F8430087F8CA
:108250004910907097F84400D07097F8450010715D
:1082600016F803E0E85C864518BF991C03F101038A
:1082700018BFC9B2122BF3D1022311702360D7F8B3
:1082800004D06037BD46BDE8F08700BF24B00000D1
:1082900038C0092058C009203CC009205CC0092012
:1082A000081700102DE9F04387B08046122042F6EF
:1082B000223101F004F8142041F24B3100F0FFFFAD
:1082C000B8F800100220013989B200F0F8FF2D2023
:1082D0004FF6AE1100F0F3FF2C2041F2845100F074
:1082E000EEFF0520082100F0EAFF0320292100F01D
:1082F000E6FF01F085F84106FBD5612001F087F823
:1083000001F07EF84207FBD5414C424EA14637466C
:10831000102333604FF480732360022323603E4BAD
:1083200080221A600E2000F0C1FF00F01F000F280D
:10833000F8D10223C9F80030622001F068F801F09A
:108340005FF8C306FBD502233B600025702000F0D8
:10835000BBFF0DF805000135162DF7D101F050F8DF
:108360000507DFD50223236010232360642001F07A
:108370004EF801F045F84007FBD401F041F8410602
:10838000FBD5B8F80010022089B200F098FF01F088
:1083900037F84206FBD5612001F039F84FF48073BD
:1083A000336015238DF8003001238DF8013000254E
:1083B000EEB246F00801052000F081FF8DF8146050
:1083C00000268DF815600E2000F070FF00F01F00F1
:1083D0000F28F8D100271DF807107020013700F092
:1083E0007CFF162FF7D16320013601F010F8102E14
:1083F000E7D10135082DDBD14FF480732360642071
:1084000001F005F800F0FCFF4307FBD44EE700BF86
:108410003CC0092038C0092058C0092038B503786D
:108420000D4623B10378012B2FD1402400E02924ED
:10843000122042F6223100F042FF142043F24B3169
:1084400000F03DFF202040F6F15100F038FF298870
:10845000022089B200F033FF0320214600F02FFFF5
:1084600000F0CEFF4206FBD5612000F0D0FF00F007
:10847000C7FF4307FBD5054B4FF480721A6063209A
:1084800000F0C5FF024B80221A6038BD38C00920B9
:1084900058C00920044B4FF080521A60034A1368F9
:1084A00023F002031360704798C0092004000340C2
:1084B000431E2330054A12685207FBD5044A12684E
:1084C00003F8012F8342F5D1704700BF0C00034031
:1084D0000800034010B540F63544074B1A68074BB7
:1084E000C2F313021B6804FB0233836042F2107371
:1084F0005943C16010BD00BF4C120010084000403D
:1085000040F635410A4B1A680A4BC2F313021B6846
:1085100001FB02338268C06893423CBF03F14343CE
:1085200003F5A0039B1A834234BF0020012070474B
:108530004C120010084000407047000040F66812DE
:1085400000234360024B1A8001230370704700BF71
:1085500048040010012303707047000010B547F66F
:10856000FF7104460D2000F0AAFE122042F62231CF
:1085700000F0A5FE142041F24B3100F0A0FE2020B7
:108580004FF4986100F09BFE1D4B022019880139C1
:1085900089B200F094FE0320262100F090FE2120F5
:1085A000032100F08CFE2D2046F20F3100F087FEF3
:1085B0002C2049F6FE7100F082FE00F021FF4206F9
:1085C000FBD5104B4FF080520F491A600B686120A9
:1085D00043F002030B600D4B1A6000F018FF00F02F
:1085E0000FFF4307FBD50E2000F060FE00F01F00D8
:1085F0000F28F8D1622000F00AFF0223237010BD7B
:108600004804001098C00920040003409CC00920C1
:1086100010B547F6FF7104460D2000F050FE122001
:1086200042F6223100F04BFE142043F24B3100F0B1
:1086300046FE20204FF4986100F041FE1A4B0220C4
:10864000198889B200F03BFE0320262100F037FE96
:108650002120032100F033FE05200F2100F02FFE22
:1086600000F0CEFE4206FBD5612000F0D0FE00F007
:10867000C7FE4307FBD50E2000F018FE00F01F00D8
:108680000F28F8D1094B80221A60632000F0BFFE4A
:10869000074B4FF480721A6005232370A369A3600F
:1086A00044F62063E36010BD4804001058C0092060
:1086B00038C0092010B50446FFF722FFC0B1636837
:1086C00020465A1C0B4B07211340002BBCBF03F163
:1086D000FF3363F00303084AB8BF013332F81320B5
:1086E0006360064B1A80FFF7F5FE012323612370B8
:1086F00010BD00BF03000080D0AF00004804001090
:1087000010B50446FFF7FCFE30B10123237023614E
:10871000A369A360014BE36010BD00BFB0AD0100D1
:1087200010B50446FFF7ECFE10B3642000F06FFEB6
:10873000104B80221A604FF4807243F8202C63683B
:108740005A1C0D4B1340002BBCBF03F1FF3363F0E9
:1087500003030A4AB8BF013332F813206360084BA1
:108760001A8003232370A369A3604EF66023E3609D
:1087700010BD00BF5CC0092003000080D0AF000026
:108780004804001010B58AB0002128226846FBF783
:1087900033FD40F63541164B1A68164BC2F31302EF
:1087A0001B6801FB0233099300F02AFEC2061DD5A7
:1087B000114B10241C606846FFF77AFE06206946BC
:1087C000099AFCF7CBFB0D4B61201C6000F01FFEEB
:1087D00000F016FE4307FBD50E2000F067FD00F009
:1087E0001F000F28F8D1622000F011FE0AB010BD62
:1087F0004C1200100840004038C009203CC009203D
:1088000010B5044600F0FCFDC3060ED540F6354118
:108810000423237001236361104B1A68104BC2F3C9
:1088200013021B6801FB0233A36123695BB120467D
:10883000FFF766FE38B104232370002363612046EE
:108840000B21FFF747FE2378022B06D0642000F0AF
:10885000DEFDBDE81040FFF71DBE10BD4C1200103C
:108860000840004030B58BB00021044628226846FD
:10887000FBF7C2FC40F635411A4B20461A681A4BEA
:10888000C2F313021B6801FB02330993FFF738FEA2
:1088900028B120460421FFF71DFE0323237000F0BA
:1088A000AFFDC30612D5114B10251D606846FFF7BA
:1088B000FFFD6946099A0620FCF750FB0C4B204649
:1088C0001D600621FFF706FE032323702378022B89
:1088D00006D0642000F09BFDFFF7DCFD012323613F
:1088E0000BB030BD4C1200100840004038C00920C9
:1088F0003CC0092030B589B00446002101A81C22E3
:10890000FBF77AFC012C144D05D006D3022C06D0BF
:1089100000232B701DE0114C02E0114C00E0114CC3
:10892000114B4FF080721A6000F03AFC2B780D2B3F
:1089300006D19DF8043001A854F823309847F5E794
:10894000642000F064FDFFF7A5FD084B4FF0807236
:108950001A6009B030BD00BF360A0010F4AF000045
:10896000D8AF00000CB0000000E100E080E100E0C2
:10897000274A0B21136843F010031360254B832211
:108980001A60254A0433116000215160D32191629D
:1089900053F8042C22F0800243F8042C10B1C022BA
:1089A0001A6000E018601D4B09221A601C4A136807
:1089B000043223F0404343F0804342F8043CD36B3D
:1089C00023F04043D363136823F0030343F0010310
:1089D0001360144B196821F003011960B8B11168D4
:1089E00021F00C0141F004011160196821F00C0123
:1089F00041F008011960116821F4405141F480519F
:108A000011601A6822F4405242F400521A60704712
:108A1000C4C00F400C0001400000014008000140AC
:108A200000C0024044C002400FB437B5134B1D686C
:108A3000FDB9134C01221A60FF2107AB069A2046AC
:108A4000019300F0F5FA204684F8FF5001F052FD42
:108A50000C4B0D4A1C605A604CF68022C0F30B0090
:108A600040F004409D60D8601A611A6942F001022A
:108A70001A6103B0BDE8304004B07047881100109F
:108A80001E3A0010E0410050000001402DE9F84F6F
:108A9000804689469346D2F810A0D6680027012464
:108AA00000254046494622462B4601F0A3F9B9422B
:108AB00008BFB04207D304FB07F306FB0533A4FB52
:108AC00006451D44EDE7002654EA050331D0224651
:108AD0002B464046494601F08DF9494622462B4631
:108AE0000746404601F086F92046294690469946B9
:108AF000DBF80C20002301F07DF904460D4626B971
:108B0000002F02DC54EA0503DED1092F0AF101012E
:108B1000FBB207DD9BF8002012F0040F14BF3722D0
:108B2000572200E0302213448AF8003001368A468A
:108B3000CAE700238AF80030BDE8F88FF0B50A696B
:108B4000CC680123B0FBF3F5A54201D36343F9E7F9
:108B50000025EBB1B0FBF3F4CE6803FB1400B3FBCC
:108B6000F6F31DB9002C01DC002BF2D1092C02F127
:108B70000107E6B206DD0C7814F0040F14BF3724A9
:108B8000572400E030243444147001353A46E0E7BD
:108B90001370F0BDF0B50A69CC680123B0FBF3F5A2
:108BA000A54201D36343F9E70025EBB1B0FBF3F431
:108BB000CE6803FB1400B3FBF6F31DB9002C01DCF7
:108BC000002BF2D1092C02F10107E6B206DD0C7888
:108BD00014F0040F14BF3724572400E03024344429
:108BE000147001353A46E0E71370F0BD2DE9F0410D
:108BF00006460F4615465468136913F8012B1AB937
:108C00002B7A2BB1013C03E0002CF9DD013CF4E7A9
:108C10002B78990708D5EA68102A01D1023C03E0B5
:108C2000082A08BF04F1FF3413F0090F0ED1A04643
:108C3000B8F1000F05DD30462021B84708F1FF38B4
:108C4000F6E7631E002CB4BF1C461C1B297A09B131
:108C50003046B8472B789A0712D5EB68102B0AD10B
:108C600030213046B8472B78304613F0040F14BF3C
:108C70005821782103E0082B02D130463021B84733
:108C80002B78DB070ED5A046B8F1000F05DD304686
:108C90003021B84708F1FF38F6E7631E002CB4BF57
:108CA0001C461C1BD5F8108018F8011B11B130466A
:108CB000B847F9E72B7803F00903082B06D1002CFD
:108CC00004DD30462021B847013CF8E7BDE8F081DB
:108CD0008368026893423CBF4268D1548368013381
:108CE000836070472DE9F0438DB0074688461C46E7
:108CF00006AE059692F80090551CB9F1000F00F0F1
:108D00009381B9F1250F08D0B9F10A0F02D1384685
:108D10000D21C047384649463BE19DF80420002319
:108D200002F0FC0263F3C3028DF80420D2B2C2F356
:108D3000C00E02F0010002938DF80C30C2F3400225
:108D400015F8013B63B12D2B05D0302B06D0232B1A
:108D500006D10122F4E74FF0010EF1E70120EFE721
:108D60009DF804106EF3C30160F3000162F341014A
:108D7000A3F13002092A8DF804101BD80021A3F1B9
:108D80003002D0B2092805D80A2303FB012115F8C7
:108D9000013BF4E7A3F16102052A02D8A3F15702CF
:108DA00005E0A3F14102052A03D8A3F137020A2AFC
:108DB000EADD02912E2B0BD19DF8043043F0010324
:108DC0008DF8043015F8013BA3F13002092AF9D9D6
:108DD0007A2B01D12B7832E06C2B40F08B802B78F2
:108DE0006C2B2CD16B7805F10209692B47D011D877
:108DF000582B00F0D38007D8002B00F01581252BCD
:108E000040F0C9804D46C2E0632B00F0A580642B82
:108E100035D0C0E0732B00F0A68007D86F2B00F090
:108E20008C80702B40F0B7804D466FE0752B03D0DF
:108E3000782B00F0B380AEE04D4602230CE0692BA6
:108E400005F1010527D01DD9732B00F08D8059D96C
:108E5000752B40F0BB8001230A22022B049207D11C
:108E6000E31D23F0070303F10804D3E9000129E01F
:108E7000012B206801A904F1040955D1B8E04D4641
:108E8000022309E0582B00F0A3807CD9632B64D027
:108E9000642B40F0818001230A22022B049215D119
:108EA000E31D23F00703D3E90001002803F10804C0
:108EB00071F1000306DA40424FF02D0361EB4101EE
:108EC0008DF80C3001AAFFF7E1FD30E0012B20689E
:108ED00004F1040907D10028BEBF2D2340428DF8BC
:108EE0000C3001A984E000281DDA2D2340428DF8C2
:108EF0000C3018E0692B00F0828041D9732B33D0FD
:108F000000F28E806F2B19D0702B45D19DF8043064
:108F1000102243F002036FF3820304928DF80430B1
:108F2000206804F1040901A9FFF734FE4C463846D5
:108F3000414601AAFFF75AFE2EE04D46082320685D
:108F400001A90493FFF726FE3846414601AA04F121
:108F50000409FFF74BFE11E04D463846217804F135
:108F60000409C0470AE04D4623683846414601AA35
:108F7000059304F10409FFF739FE05964C460BE012
:108F8000582B40D037D8002B4ED0252B04D1384653
:108F90002521C04700E04D462A46ABE6A3F1580024
:108FA00043429DF80410434163F382011022E31D04
:108FB00023F0070304920CAA02F82C1DD3E9000148
:108FC00003F108044D46FFF761FDB0E7782BE3D1CC
:108FD000A3F1580110224B4204929DF804204B410A
:108FE00063F382020CA9206801F82C2D04F1040916
:108FF000FFF7A4FD9AE7632BAFD0642BCCD10023FD
:109000004AE7782BC8D110220492A3F158025342A8
:1090100053419DF8042063F382028DF804207FE71A
:10902000752BEED1002317E70DB0BDE8F0830000EB
:109030001FB5002481B101390290019101A80849AE
:109040000394FFF74FFE0399019B029A994234BFA4
:109050005454D454039800E0084604B010BD00BF37
:10906000D18C000000F0E4BC08B50D4A0D4B0E4950
:109070008B4204D252F8041F43F8041BF7E70B4B52
:109080000B4A934203D2002243F8042BF8E7FBF784
:109090008BF8084B084A1A60FDF778FCFEE700BF22
:1090A0007CB0000020000010050A0010080A001023
:1090B0001E3B001008ED00E000400000FEE700004D
:1090C000044B0A221A601A68013A1A60002AFAD17F
:1090D000704700BF8C11001090FAA0F0704700009C
:1090E000830803EBD00303EB901303EBD01303EBE4
:1090F000902303EBD020044B58605A68013A5A6021
:10910000002AFAD1704700BF8C110010014B584360
:10911000FFF7E6BF40420F00104A00231360536080
:109120009360D3601361D361536293620C4A1360FE
:10913000136213641366C2F880300A4A13605360E6
:109140009360D3601361D3615362074A1360136263
:1091500013641366C2F88030704700BF00C002403D
:1091600000C0092040C0024014C0092008B5FFF724
:10917000D3FF4CF21271094A00231360116240F2CE
:10918000B11111644FF040511366C2F88010536161
:10919000536353655367C2F8943008BD00C009207B
:1091A000114B1A6822F4404242F400421A601A68D5
:1091B00022F4405242F400521A601A6822F44032FB
:1091C00042F400321A601A6822F4402242F400226B
:1091D0001A60064B4FF080521A60054BC7221A6086
:1091E0000C225A60704700BF00C0024098C009209E
:1091F00000000340094A136823F470131360084AFF
:10920000136823F0C0631360064B1A6842F42012FF
:109210001A601A6822F4A0121A60704704C0024053
:1092200000C0092044C0024030B50125431E9D40C6
:109230000D4B20220138C0B2FF281A600B4C0FD012
:1092400029424FF0010214BF22601A6010222260EE
:10925000074C49002468A40748BF41F00101E9E731
:1092600020232360084630BD5CC0092058C0092077
:1092700054C0092010B50A4CFFF7BCFF4FF400732F
:1092800023603220FFF72CFF064B20221A604FF498
:109290008043236018200449BDE81040FFF7C4BF95
:1092A00038C0092058C00920FF7F0D0008B540F0E4
:1092B000800109041820FFF7B7FF80B208BD41EA1A
:1092C00000411820FFF7B0BF08B540F08001090247
:1092D0001020FFF7A9FFC0B208BD41EA002110200D
:1092E000FFF7A2BFF8B51F4B20221A607025082295
:1092F0001D4C15F0800F4FF0010602F1FF3214BF34
:1093000026601E606D00102612F0FF022660EDB28E
:109310001E60EDD10E46721AD2B2824214D216F8F5
:10932000015B082215F0800F4FF0010702F1FF32B8
:1093300014BF27601F606D00102712F0FF02276026
:10934000EDB21F60EED1E6E70822013A102112F0DB
:10935000FF0221601960F8D1FFF7B2FE024B202214
:109360001A60F8BD5CC0092058C009202DE9F843F7
:10937000204D20232B60F0220823DFF8808012F09C
:10938000800F4FF0010403F1FF3314BFC8F8004011
:109390002C605200102413F0FF03C8F80040D2B232
:1093A0002C60EAD1013801F1FF390E18B1451AD00D
:1093B00008270024FFF784FE1023C8F800300E4B66
:1093C00064001B68E4B29B0707F1FF3748BF44F015
:1093D0000104FFF775FE102317F0FF072B60E9D19A
:1093E00009F8014FE2E7FFF76BFE2023C8F80030D1
:1093F000BDE8F8835CC0092054C0092058C009208A
:1094000008B500210820FFF70FFFC0B208BD08B55E
:1094100001460820FFF708FFC0B208BD08B51820B4
:109420000021FFF701FF0020FFF740FF0028FAD1DD
:1094300018204FF40041FFF7F7FE0020FFF736FF3A
:10944000B0F5004FF9D108BD2DE9F04144F23A02E0
:109450003E4B3F4F1A603F4D00233B602B683E4C14
:1094600023F002032B60AA232360552323603B4E85
:1094700033689801FBD42B6823F001032B60AA23E7
:10948000236055232360336813F08073FBD1DFF82A
:10949000F080C8F80030FFF7C1FF18203049FFF70F
:1094A000C3FE6020FFF7B3FFFFF7AAFF4106FBD51D
:1094B0002C4B20221A601A685206FCD52A4B28220F
:1094C0001A6000225A6001233B60284A284BAA21D7
:1094D0001A605522216022602B6843F001032B6043
:1094E000216022603368DF01FCD50323C8F8003017
:1094F0002B6843F002032B60AA23236055232360CB
:1095000033689D01FCD51B4B22221A60AA24083324
:109510005520194A1C601860116841F00101116062
:109520001C60186015490868C405FBD5086840052B
:10953000FCD5106840F002001060AA221A60552283
:109540001A600B689B05FCD5BDE8F08100C00F4098
:109550000CC10F4080C00F408CC00F4088C00F402E
:1095600070150800A0C10F40A8C10F4018000100ED
:1095700084C00F40A4C00F40A0C00F40A8C00F403F
:1095800004C10F4008B5FFF7F1FDFFF773FEBDE81A
:109590000840FFF759BF000008B5FFF7BDFD094BB4
:1095A00002221A604FF080421368074843F0030319
:1095B0001360064BAA221A6055221A60BDE80840C3
:1095C000FFF78EBD3CC0092040420F00080000405C
:1095D00030B58BB0044636230AA80D4640F8283D26
:1095E00005A9084B9847059B2370069B1A0A6370D0
:1095F000A2701A0C1B0E23710523E2702B600BB0B6
:1096000030BD00BFF11FFF1F30B58BB004463A23B9
:109610000AA80D4640F8283D05A9144B9847059B1C
:109620002370069B1A0A6370A2701A0C1B0E23711A
:10963000079BE2701A0A6371A2711A0C1B0E237247
:10964000089BE2711A0A6372A2721A0C1B0E237332
:10965000099BE2721A0A6373A2731A0C1B0E23741D
:109660001123E2732B600BB030BD00BFF11FFF1F51
:1096700000B58BB039230AA840F8283D05A9024B54
:1096800098470BB05DF804FBF11FFF1F38B5084C7D
:10969000802025686168402DA8BF40252A4600F03B
:1096A00057F963682B44636023685D1B256038BDF0
:1096B0009411001037B5114B1C7A1D46C4F34114A8
:1096C000022C0DD1002202A941F8042D03F108005B
:1096D00003F11002043300F069FA08B101980AE0BE
:1096E00005EB840463692BB1054800F10801021FF2
:1096F000984700E0184603B030BD00BF9411001039
:109700009C11001010B500284AD101F0040303F0A9
:10971000FF01254C0BB3082204F1080100F04CF9BD
:10972000227AC2F3411304EB83035B6A6360E3892B
:10973000236023610BB1D30934D0FFF7BBFF28B9F5
:10974000BDE810408020012100F0F6B8E2892369CD
:109750009A42D4BF2260236019E02268002A1ADDF1
:10976000616800F029F90028EADB6368034463605C
:109770002368181A2060A8B9237AC3F3411304EBB5
:1097800083035B6A6360FFF795FF0028D8D0BDE8CC
:109790001040FFF77BBF0A46BDE8104000F00CB94F
:1097A0008028F4D010BD00BF94110010024B03EBD1
:1097B00080004161426270479411001070470000C0
:1097C00010B50E4C00F09AF90D4800F07FF82146D4
:1097D000002000F061F82146802000F05DF80020B4
:1097E000402100F03BF88020402100F037F80020B5
:1097F0000449054AFFF7DAFF012010BD0597000074
:10980000BD970000A59C0000C8110010034B1B6809
:1098100003408342FAD1024B1860704700C20050E7
:1098200008C20050044B000440F4A06030221A60CB
:1098300098601020FFF7EABF08C2005010B50C4630
:10984000FFF7F0FF2404044B44F480741C601020E4
:10985000BDE81040FFF7DABF10C2005010B500F0AD
:109860000F04C00940EA4404094801230268A340E8
:1098700013430360074B4FF480701C605960FFF77F
:10988000C5FF44F040000021BDE81040FFF7D6BFFF
:1098900044C2005048C20050094A00F00F0342F889
:1098A00023100849C0090A6840EA430001238340A5
:1098B0001343054A0B60136843F0040313607047B9
:1098C000D011001034C2005004C20050034B044AAF
:1098D0001864136843F0080313607047D011001038
:1098E00004C2005040F08001D020FFF7A7BF011C48
:1098F00018BF0121FE20FFF7A1BF0146F320FFF7AB
:109900009DBF000010B500F00F04C00940EA4404F8
:109910002046FFF787FF2404054B44F400741C60C5
:109920002020FFF773FF034B1868C0B210BD00BFC3
:1099300010C2005014C2005000F00F03C00940EAEA
:109940004300003140F0400018BF0121FFF776BF0F
:1099500038B5154600F00F03C00940EA4300134A2A
:109960009B0043F002031360114B1D601368043128
:1099700013F0020310D011F8023C11F8014C1B0443
:1099800043EA046311F8044C234311F8034C43EAFF
:109990000423084C2360E9E7044A1360FFF742FF01
:1099A000FA20FFF73FFF284638BD00BF28C200500D
:1099B00024C200501CC2005070B5174C00F00F03B9
:1099C0002646C00940EA43009B0043F001032360A0
:1099D000124B1B681D05FBD55C051AD500252C46CE
:1099E000C3F309039C420BD014F0030F04BF0C4DCA
:1099F0002D6811B1944238BF0D552D0A0134F1E79D
:109A000000233360FFF70EFFF220FFF70BFF204625
:109A100070BD4FF0FF3070BD28C2005020C2005012
:109A200018C20050011C18BF0121D820FFF706BF43
:109A300038B5294B1C68E10711D501229A60274BE4
:109A40005D6C65B1F520FFF7EDFE254B254A202022
:109A50001A60FFF7DBFE244B1868C0B2A847220744
:109A600017D5224B08221A60FE20FFF7DBFE1C4BA5
:109A70001F4A20201A60FFF7C9FE1B4B1868C0B2AE
:109A800010F01A0F05D0154B1B6C13B100F0150028
:109A9000984763071ED5154B04221A600024154A07
:109AA00001231268A340134211D0134A20201360EF
:109AB000FFF7ACFE0C4B60101968084B53F82030D0
:109AC0002BB140EAC410C0B201F01F019847013425
:109AD000202CE4D138BD00BF00C20050D0110010CE
